{
  "_format": "hh-sol-artifact-1",
  "contractName": "SwapRouter",
  "sourceName": "contracts/swap/swapRouter.sol",
  "abi": [
    {
      "inputs": [
        {
          "internalType": "address",
          "name": "_weth",
          "type": "address"
        },
        {
          "internalType": "address",
          "name": "_swap",
          "type": "address"
        },
        {
          "internalType": "address",
          "name": "_osd",
          "type": "address"
        },
        {
          "internalType": "address",
          "name": "_tradeStakeUpdater",
          "type": "address"
        }
      ],
      "stateMutability": "nonpayable",
      "type": "constructor"
    },
    {
      "stateMutability": "payable",
      "type": "fallback"
    },
    {
      "inputs": [
        {
          "internalType": "address",
          "name": "token",
          "type": "address"
        },
        {
          "internalType": "uint256",
          "name": "amount",
          "type": "uint256"
        },
        {
          "internalType": "address",
          "name": "to",
          "type": "address"
        },
        {
          "internalType": "uint256",
          "name": "deadline",
          "type": "uint256"
        }
      ],
      "name": "addLiquidity",
      "outputs": [
        {
          "internalType": "uint256",
          "name": "",
          "type": "uint256"
        }
      ],
      "stateMutability": "payable",
      "type": "function"
    },
    {
      "inputs": [],
      "name": "getWETHAddress",
      "outputs": [
        {
          "internalType": "address",
          "name": "",
          "type": "address"
        }
      ],
      "stateMutability": "view",
      "type": "function"
    },
    {
      "inputs": [
        {
          "internalType": "address",
          "name": "token",
          "type": "address"
        },
        {
          "internalType": "uint256",
          "name": "liquidity",
          "type": "uint256"
        },
        {
          "internalType": "address",
          "name": "to",
          "type": "address"
        },
        {
          "internalType": "uint256",
          "name": "deadline",
          "type": "uint256"
        }
      ],
      "name": "removeLiquidity",
      "outputs": [
        {
          "internalType": "uint256",
          "name": "",
          "type": "uint256"
        },
        {
          "internalType": "uint256",
          "name": "",
          "type": "uint256"
        }
      ],
      "stateMutability": "payable",
      "type": "function"
    },
    {
      "inputs": [
        {
          "internalType": "address",
          "name": "tokenIn",
          "type": "address"
        },
        {
          "internalType": "address",
          "name": "tokenOut",
          "type": "address"
        },
        {
          "internalType": "uint256",
          "name": "amountIn",
          "type": "uint256"
        },
        {
          "internalType": "uint256",
          "name": "amountOutMin",
          "type": "uint256"
        },
        {
          "internalType": "address",
          "name": "to",
          "type": "address"
        },
        {
          "internalType": "uint256",
          "name": "deadline",
          "type": "uint256"
        }
      ],
      "name": "swapIn",
      "outputs": [],
      "stateMutability": "payable",
      "type": "function"
    },
    {
      "inputs": [
        {
          "internalType": "address",
          "name": "tokenIn",
          "type": "address"
        },
        {
          "internalType": "address",
          "name": "tokenOut",
          "type": "address"
        },
        {
          "internalType": "uint256",
          "name": "amountInMax",
          "type": "uint256"
        },
        {
          "internalType": "uint256",
          "name": "amountOut",
          "type": "uint256"
        },
        {
          "internalType": "address",
          "name": "to",
          "type": "address"
        },
        {
          "internalType": "uint256",
          "name": "deadline",
          "type": "uint256"
        }
      ],
      "name": "swapOut",
      "outputs": [],
      "stateMutability": "payable",
      "type": "function"
    },
    {
      "stateMutability": "payable",
      "type": "receive"
    }
  ],
  "bytecode": "0x6101006040523480156200001257600080fd5b5060405162001f4838038062001f48833981016040819052620000359162000075565b6001600160a01b0393841660805291831660a052821660c0521660e052620000d2565b80516001600160a01b03811681146200007057600080fd5b919050565b600080600080608085870312156200008c57600080fd5b620000978562000058565b9350620000a76020860162000058565b9250620000b76040860162000058565b9150620000c76060860162000058565b905092959194509250565b60805160a05160c05160e051611d4162000207600039600081816105250152610b6f015260006116a4015260008181610351015281816103fd01528181610486015281816106cb015281816107500152818161084a015281816108d201528181610a4701528181610acc01528181610d1901528181610da101528181610f6301528181610feb015281816111df01528181611267015281816113f00152818161149d0152818161154901526116dc015260008181605e0152818161015a015281816102130152818161029b0152818161032101528181610598015281816106150152818161069b015281816107da0152818161096d01528181610be201528181610c6301528181610ce901528181610e4f01528181610ef3015281816110860152818161150d01526115f60152611d416000f3fe60806040526004361061004e5760003560e01c8063376d3d5d14610107578063863856991461012d578063affa881714610140578063d2b6dac314610184578063fb1da1d614610197576100c8565b366100c857336001600160a01b037f000000000000000000000000000000000000000000000000000000000000000016146100c65760405162461bcd60e51b8152602060048201526013602482015272149958d95a5d99481b9bdd08185b1b1bddd959606a1b60448201526064015b60405180910390fd5b005b60405162461bcd60e51b815260206004820152601460248201527311985b1b189858dac81b9bdd08185b1b1bddd95960621b60448201526064016100bd565b61011a610115366004611a87565b6101bf565b6040519081526020015b60405180910390f35b6100c661013b366004611acf565b61050e565b34801561014c57600080fd5b506040516001600160a01b037f0000000000000000000000000000000000000000000000000000000000000000168152602001610124565b6100c6610192366004611acf565b610b58565b6101aa6101a5366004611a87565b61137c565b60408051928352602083019190915201610124565b60006001600160a01b03831633146102115760405162461bcd60e51b81526020600482015260156024820152742a37903732b2b21032b89036b9b39739b2b73232b960591b60448201526064016100bd565b7f00000000000000000000000000000000000000000000000000000000000000006001600160a01b0316856001600160a01b0316036103c4573484146102995760405162461bcd60e51b815260206004820152601b60248201527f4574682076616c7565206d75737420657175616c20616d6f756e74000000000060448201526064016100bd565b7f00000000000000000000000000000000000000000000000000000000000000006001600160a01b031663d0e30db0346040518263ffffffff1660e01b81526004016000604051808303818588803b1580156102f457600080fd5b505af1158015610308573d6000803e3d6000fd5b505060405163095ea7b360e01b81526001600160a01b037f000000000000000000000000000000000000000000000000000000000000000016935063095ea7b3925061037b91507f0000000000000000000000000000000000000000000000000000000000000000903490600401611b36565b6020604051808303816000875af115801561039a573d6000803e3d6000fd5b505050506040513d601f19601f820116820180604052508101906103be9190611b64565b5061046c565b6103d96001600160a01b038616843087611785565b60405163095ea7b360e01b81526001600160a01b0386169063095ea7b390610427907f0000000000000000000000000000000000000000000000000000000000000000908890600401611b36565b6020604051808303816000875af1158015610446573d6000803e3d6000fd5b505050506040513d601f19601f8201168201806040525081019061046a9190611b64565b505b60405163376d3d5d60e01b81526000906001600160a01b037f0000000000000000000000000000000000000000000000000000000000000000169063376d3d5d906104c1908990899089908990600401611b7f565b6020604051808303816000875af11580156104e0573d6000803e3d6000fd5b505050506040513d601f19601f820116820180604052508101906105049190611ba9565b9695505050505050565b604051638638569960e01b81526001600160a01b037f0000000000000000000000000000000000000000000000000000000000000000169063863856999061056490899089908990899089908990600401611bc2565b600060405180830381600087803b15801561057e57600080fd5b505af1158015610592573d6000803e3d6000fd5b505050507f00000000000000000000000000000000000000000000000000000000000000006001600160a01b0316866001600160a01b0316036107d8573484146106135760405162461bcd60e51b81526020600482015260126024820152710829a9eaa9ca8929cbe8aaaa28298be8aa8960731b60448201526064016100bd565b7f00000000000000000000000000000000000000000000000000000000000000006001600160a01b031663d0e30db0346040518263ffffffff1660e01b81526004016000604051808303818588803b15801561066e57600080fd5b505af1158015610682573d6000803e3d6000fd5b505060405163095ea7b360e01b81526001600160a01b037f000000000000000000000000000000000000000000000000000000000000000016935063095ea7b392506106f591507f0000000000000000000000000000000000000000000000000000000000000000903490600401611b36565b6020604051808303816000875af1158015610714573d6000803e3d6000fd5b505050506040513d601f19601f820116820180604052508101906107389190611b64565b50604051638638569960e01b81526001600160a01b037f0000000000000000000000000000000000000000000000000000000000000000169063863856999061078f90899089908990899089908990600401611bc2565b6020604051808303816000875af11580156107ae573d6000803e3d6000fd5b505050506040513d601f19601f820116820180604052508101906107d29190611ba9565b50610b50565b7f00000000000000000000000000000000000000000000000000000000000000006001600160a01b0316856001600160a01b031603610a0e576108266001600160a01b038716833087611785565b60405163095ea7b360e01b81526001600160a01b0387169063095ea7b390610874907f0000000000000000000000000000000000000000000000000000000000000000908890600401611b36565b6020604051808303816000875af1158015610893573d6000803e3d6000fd5b505050506040513d601f19601f820116820180604052508101906108b79190611b64565b50604051638638569960e01b81526000906001600160a01b037f00000000000000000000000000000000000000000000000000000000000000001690638638569990610911908a908a908a908a9030908a90600401611bc2565b6020604051808303816000875af1158015610930573d6000803e3d6000fd5b505050506040513d601f19601f820116820180604052508101906109549190611ba9565b604051632e1a7d4d60e01b8152600481018290529091507f00000000000000000000000000000000000000000000000000000000000000006001600160a01b031690632e1a7d4d90602401600060405180830381600087803b1580156109b957600080fd5b505af11580156109cd573d6000803e3d6000fd5b50506040516001600160a01b038616925083156108fc02915083906000818181858888f19350505050158015610a07573d6000803e3d6000fd5b5050610b50565b610a236001600160a01b038716833087611785565b60405163095ea7b360e01b81526001600160a01b0387169063095ea7b390610a71907f0000000000000000000000000000000000000000000000000000000000000000908890600401611b36565b6020604051808303816000875af1158015610a90573d6000803e3d6000fd5b505050506040513d601f19601f82011682018060405250810190610ab49190611b64565b50604051638638569960e01b81526001600160a01b037f00000000000000000000000000000000000000000000000000000000000000001690638638569990610b0b90899089908990899089908990600401611bc2565b6020604051808303816000875af1158015610b2a573d6000803e3d6000fd5b505050506040513d601f19601f82011682018060405250810190610b4e9190611ba9565b505b505050505050565b60405163d2b6dac360e01b81526001600160a01b037f0000000000000000000000000000000000000000000000000000000000000000169063d2b6dac390610bae90899089908990899089908990600401611bc2565b600060405180830381600087803b158015610bc857600080fd5b505af1158015610bdc573d6000803e3d6000fd5b505050507f00000000000000000000000000000000000000000000000000000000000000006001600160a01b0316866001600160a01b031603610ef157348414610c615760405162461bcd60e51b81526020600482015260166024820152750829a9eaa9ca8929cbe9a82b0be8aaaa28298be8aa8960531b60448201526064016100bd565b7f00000000000000000000000000000000000000000000000000000000000000006001600160a01b031663d0e30db0346040518263ffffffff1660e01b81526004016000604051808303818588803b158015610cbc57600080fd5b505af1158015610cd0573d6000803e3d6000fd5b505060405163095ea7b360e01b81526001600160a01b037f000000000000000000000000000000000000000000000000000000000000000016935063095ea7b39250610d4391507f0000000000000000000000000000000000000000000000000000000000000000903490600401611b36565b6020604051808303816000875af1158015610d62573d6000803e3d6000fd5b505050506040513d601f19601f82011682018060405250810190610d869190611b64565b5060405163d2b6dac360e01b81526000906001600160a01b037f0000000000000000000000000000000000000000000000000000000000000000169063d2b6dac390610de0908a908a908a908a908a908a90600401611bc2565b6020604051808303816000875af1158015610dff573d6000803e3d6000fd5b505050506040513d601f19601f82011682018060405250810190610e239190611ba9565b90506000610e318287611bfd565b90508015610a0757604051632e1a7d4d60e01b8152600481018290527f00000000000000000000000000000000000000000000000000000000000000006001600160a01b031690632e1a7d4d90602401600060405180830381600087803b158015610e9b57600080fd5b505af1158015610eaf573d6000803e3d6000fd5b50506040516001600160a01b038716925083156108fc02915083906000818181858888f19350505050158015610ee9573d6000803e3d6000fd5b505050610b50565b7f00000000000000000000000000000000000000000000000000000000000000006001600160a01b0316856001600160a01b0316036111a657610f3f6001600160a01b038716833087611785565b60405163095ea7b360e01b81526001600160a01b0387169063095ea7b390610f8d907f0000000000000000000000000000000000000000000000000000000000000000908890600401611b36565b6020604051808303816000875af1158015610fac573d6000803e3d6000fd5b505050506040513d601f19601f82011682018060405250810190610fd09190611b64565b5060405163d2b6dac360e01b81526000906001600160a01b037f0000000000000000000000000000000000000000000000000000000000000000169063d2b6dac39061102a908a908a908a908a9030908a90600401611bc2565b6020604051808303816000875af1158015611049573d6000803e3d6000fd5b505050506040513d601f19601f8201168201806040525081019061106d9190611ba9565b604051632e1a7d4d60e01b8152600481018690529091507f00000000000000000000000000000000000000000000000000000000000000006001600160a01b031690632e1a7d4d90602401600060405180830381600087803b1580156110d257600080fd5b505af11580156110e6573d6000803e3d6000fd5b50506040516001600160a01b038616925086156108fc02915086906000818181858888f19350505050158015611120573d6000803e3d6000fd5b50600061112d8287611bfd565b90508015610a075760405163a9059cbb60e01b81526001600160a01b0389169063a9059cbb906111639087908590600401611b36565b6020604051808303816000875af1158015611182573d6000803e3d6000fd5b505050506040513d601f19601f82011682018060405250810190610ee99190611b64565b6111bb6001600160a01b038716833087611785565b60405163095ea7b360e01b81526001600160a01b0387169063095ea7b390611209907f0000000000000000000000000000000000000000000000000000000000000000908890600401611b36565b6020604051808303816000875af1158015611228573d6000803e3d6000fd5b505050506040513d601f19601f8201168201806040525081019061124c9190611b64565b5060405163d2b6dac360e01b81526000906001600160a01b037f0000000000000000000000000000000000000000000000000000000000000000169063d2b6dac3906112a6908a908a908a908a908a908a90600401611bc2565b6020604051808303816000875af11580156112c5573d6000803e3d6000fd5b505050506040513d601f19601f820116820180604052508101906112e99190611ba9565b905060006112f78287611bfd565b905080156113725760405163a9059cbb60e01b81526001600160a01b0389169063a9059cbb9061132d9087908590600401611b36565b6020604051808303816000875af115801561134c573d6000803e3d6000fd5b505050506040513d601f19601f820116820180604052508101906113709190611b64565b505b5050505050505050565b6000806001600160a01b03841633146113cf5760405162461bcd60e51b81526020600482015260156024820152742a37903732b2b21032b89036b9b39739b2b73232b960591b60448201526064016100bd565b60405162d7f52760e31b81526001600160a01b0387811660048301526000917f0000000000000000000000000000000000000000000000000000000000000000909116906306bfa93890602401608060405180830381865afa158015611439573d6000803e3d6000fd5b505050506040513d601f19601f8201168201806040525081019061145d9190611c24565b509192506114799150506001600160a01b038216863089611785565b60405163095ea7b360e01b81526001600160a01b0382169063095ea7b3906114c7907f0000000000000000000000000000000000000000000000000000000000000000908a90600401611b36565b6020604051808303816000875af11580156114e6573d6000803e3d6000fd5b505050506040513d601f19601f8201168201806040525081019061150a9190611b64565b507f00000000000000000000000000000000000000000000000000000000000000006001600160a01b0316876001600160a01b0316036116d7576000807f00000000000000000000000000000000000000000000000000000000000000006001600160a01b031663fb1da1d68a8a308a6040518563ffffffff1660e01b81526004016115999493929190611b7f565b60408051808303816000875af11580156115b7573d6000803e3d6000fd5b505050506040513d601f19601f820116820180604052508101906115db9190611c74565b604051632e1a7d4d60e01b81526004810183905291935091507f00000000000000000000000000000000000000000000000000000000000000006001600160a01b031690632e1a7d4d90602401600060405180830381600087803b15801561164257600080fd5b505af1158015611656573d6000803e3d6000fd5b50506040516001600160a01b038a16925084156108fc02915084906000818181858888f19350505050158015611690573d6000803e3d6000fd5b5080156116cb576116cb6001600160a01b037f00000000000000000000000000000000000000000000000000000000000000001688836117f6565b909350915061177c9050565b6000807f00000000000000000000000000000000000000000000000000000000000000006001600160a01b031663fb1da1d68a8a8a8a6040518563ffffffff1660e01b815260040161172c9493929190611b7f565b60408051808303816000875af115801561174a573d6000803e3d6000fd5b505050506040513d601f19601f8201168201806040525081019061176e9190611c74565b909550935061177c92505050565b94509492505050565b6040516001600160a01b03808516602483015283166044820152606481018290526117f09085906323b872dd60e01b906084015b60408051601f198184030181529190526020810180516001600160e01b03166001600160e01b03199093169290921790915261181a565b50505050565b6118158363a9059cbb60e01b84846040516024016117b9929190611b36565b505050565b600061186f826040518060400160405280602081526020017f5361666545524332303a206c6f772d6c6576656c2063616c6c206661696c6564815250856001600160a01b03166118ec9092919063ffffffff16565b805190915015611815578080602001905181019061188d9190611b64565b6118155760405162461bcd60e51b815260206004820152602a60248201527f5361666545524332303a204552433230206f7065726174696f6e20646964206e6044820152691bdd081cdd58d8d9595960b21b60648201526084016100bd565b60606118fb8484600085611905565b90505b9392505050565b6060824710156119665760405162461bcd60e51b815260206004820152602660248201527f416464726573733a20696e73756666696369656e742062616c616e636520666f6044820152651c8818d85b1b60d21b60648201526084016100bd565b6001600160a01b0385163b6119bd5760405162461bcd60e51b815260206004820152601d60248201527f416464726573733a2063616c6c20746f206e6f6e2d636f6e747261637400000060448201526064016100bd565b600080866001600160a01b031685876040516119d99190611cbc565b60006040518083038185875af1925050503d8060008114611a16576040519150601f19603f3d011682016040523d82523d6000602084013e611a1b565b606091505b5091509150611a2b828286611a36565b979650505050505050565b60608315611a455750816118fe565b825115611a555782518084602001fd5b8160405162461bcd60e51b81526004016100bd9190611cd8565b6001600160a01b0381168114611a8457600080fd5b50565b60008060008060808587031215611a9d57600080fd5b8435611aa881611a6f565b9350602085013592506040850135611abf81611a6f565b9396929550929360600135925050565b60008060008060008060c08789031215611ae857600080fd5b8635611af381611a6f565b95506020870135611b0381611a6f565b945060408701359350606087013592506080870135611b2181611a6f565b8092505060a087013590509295509295509295565b6001600160a01b03929092168252602082015260400190565b80518015158114611b5f57600080fd5b919050565b600060208284031215611b7657600080fd5b6118fe82611b4f565b6001600160a01b039485168152602081019390935292166040820152606081019190915260800190565b600060208284031215611bbb57600080fd5b5051919050565b6001600160a01b039687168152948616602086015260408501939093526060840191909152909216608082015260a081019190915260c00190565b81810381811115611c1e57634e487b7160e01b600052601160045260246000fd5b92915050565b60008060008060808587031215611c3a57600080fd5b8451611c4581611a6f565b60208601519094509250611c5b60408601611b4f565b9150611c6960608601611b4f565b905092959194509250565b60008060408385031215611c8757600080fd5b505080516020909101519092909150565b60005b83811015611cb3578181015183820152602001611c9b565b50506000910152565b60008251611cce818460208701611c98565b9190910192915050565b6020815260008251806020840152611cf7816040850160208701611c98565b601f01601f1916919091016040019291505056fea26469706673582212201ccc31ac728267ba3eaf42ea2e7619b207a1fc7b9663cb48e0d9e5857fe24b5364736f6c63430008110033",
  "linkReferences": {},
  "deployedLinkReferences": {}
}