{
  "_format": "hh-sol-artifact-1",
  "contractName": "FutureReader",
  "sourceName": "contracts/future/FutureReader.sol",
  "abi": [
    {
      "inputs": [
        {
          "internalType": "address",
          "name": "_future",
          "type": "address"
        }
      ],
      "stateMutability": "nonpayable",
      "type": "constructor"
    },
    {
      "anonymous": false,
      "inputs": [
        {
          "indexed": true,
          "internalType": "address",
          "name": "previousOwner",
          "type": "address"
        },
        {
          "indexed": true,
          "internalType": "address",
          "name": "newOwner",
          "type": "address"
        }
      ],
      "name": "OwnershipTransferred",
      "type": "event"
    },
    {
      "inputs": [
        {
          "internalType": "address[]",
          "name": "tokens",
          "type": "address[]"
        }
      ],
      "name": "bulkTokenInfo",
      "outputs": [
        {
          "internalType": "uint8[]",
          "name": "decimals",
          "type": "uint8[]"
        },
        {
          "internalType": "string[]",
          "name": "names",
          "type": "string[]"
        },
        {
          "internalType": "string[]",
          "name": "symbols",
          "type": "string[]"
        }
      ],
      "stateMutability": "view",
      "type": "function"
    },
    {
      "inputs": [
        {
          "internalType": "address[]",
          "name": "_collTokens",
          "type": "address[]"
        },
        {
          "internalType": "address[]",
          "name": "_indexTokens",
          "type": "address[]"
        },
        {
          "internalType": "address[]",
          "name": "_accounts",
          "type": "address[]"
        },
        {
          "internalType": "bool[]",
          "name": "_isLongs",
          "type": "bool[]"
        }
      ],
      "name": "bulkValidateLiquidate",
      "outputs": [
        {
          "internalType": "bool[]",
          "name": "shouldLiquidates",
          "type": "bool[]"
        }
      ],
      "stateMutability": "view",
      "type": "function"
    },
    {
      "inputs": [
        {
          "internalType": "uint256",
          "name": "",
          "type": "uint256"
        }
      ],
      "name": "collateralTokens",
      "outputs": [
        {
          "internalType": "address",
          "name": "",
          "type": "address"
        }
      ],
      "stateMutability": "view",
      "type": "function"
    },
    {
      "inputs": [],
      "name": "future",
      "outputs": [
        {
          "internalType": "address",
          "name": "",
          "type": "address"
        }
      ],
      "stateMutability": "view",
      "type": "function"
    },
    {
      "inputs": [],
      "name": "getPairs",
      "outputs": [
        {
          "internalType": "address[]",
          "name": "collTokens",
          "type": "address[]"
        },
        {
          "internalType": "address[]",
          "name": "idxTokens",
          "type": "address[]"
        },
        {
          "internalType": "uint256[]",
          "name": "tradingFeeRates",
          "type": "uint256[]"
        },
        {
          "internalType": "uint256[]",
          "name": "maxLeverages",
          "type": "uint256[]"
        },
        {
          "internalType": "int256[]",
          "name": "longFundingRates",
          "type": "int256[]"
        },
        {
          "internalType": "int256[]",
          "name": "shortFundingRates",
          "type": "int256[]"
        },
        {
          "internalType": "int256[]",
          "name": "cumulativeLongFundingRates",
          "type": "int256[]"
        },
        {
          "internalType": "int256[]",
          "name": "cumulativeShortFundingRates",
          "type": "int256[]"
        }
      ],
      "stateMutability": "view",
      "type": "function"
    },
    {
      "inputs": [],
      "name": "getPairs2",
      "outputs": [
        {
          "internalType": "address[]",
          "name": "collTokens",
          "type": "address[]"
        },
        {
          "internalType": "address[]",
          "name": "idxTokens",
          "type": "address[]"
        },
        {
          "internalType": "int256[]",
          "name": "dataList",
          "type": "int256[]"
        }
      ],
      "stateMutability": "view",
      "type": "function"
    },
    {
      "inputs": [
        {
          "internalType": "address",
          "name": "_account",
          "type": "address"
        }
      ],
      "name": "getPositionList",
      "outputs": [
        {
          "internalType": "address[]",
          "name": "collateralTokenList",
          "type": "address[]"
        },
        {
          "internalType": "address[]",
          "name": "indexTokenList",
          "type": "address[]"
        },
        {
          "internalType": "bool[]",
          "name": "isLongList",
          "type": "bool[]"
        },
        {
          "internalType": "uint256[]",
          "name": "marginList",
          "type": "uint256[]"
        },
        {
          "internalType": "uint256[]",
          "name": "openNotionalList",
          "type": "uint256[]"
        },
        {
          "internalType": "uint256[]",
          "name": "sizeList",
          "type": "uint256[]"
        },
        {
          "internalType": "int256[]",
          "name": "entryFundingRateList",
          "type": "int256[]"
        }
      ],
      "stateMutability": "view",
      "type": "function"
    },
    {
      "inputs": [
        {
          "internalType": "address",
          "name": "account",
          "type": "address"
        }
      ],
      "name": "getPositionList2",
      "outputs": [
        {
          "internalType": "address[]",
          "name": "collateralTokenList",
          "type": "address[]"
        },
        {
          "internalType": "address[]",
          "name": "indexTokenList",
          "type": "address[]"
        },
        {
          "internalType": "bool[]",
          "name": "isLongList",
          "type": "bool[]"
        },
        {
          "internalType": "int256[]",
          "name": "dataList",
          "type": "int256[]"
        }
      ],
      "stateMutability": "view",
      "type": "function"
    },
    {
      "inputs": [
        {
          "internalType": "uint256",
          "name": "",
          "type": "uint256"
        }
      ],
      "name": "indexTokens",
      "outputs": [
        {
          "internalType": "address",
          "name": "",
          "type": "address"
        }
      ],
      "stateMutability": "view",
      "type": "function"
    },
    {
      "inputs": [],
      "name": "owner",
      "outputs": [
        {
          "internalType": "address",
          "name": "",
          "type": "address"
        }
      ],
      "stateMutability": "view",
      "type": "function"
    },
    {
      "inputs": [],
      "name": "pairCount",
      "outputs": [
        {
          "internalType": "uint256",
          "name": "",
          "type": "uint256"
        }
      ],
      "stateMutability": "view",
      "type": "function"
    },
    {
      "inputs": [],
      "name": "renounceOwnership",
      "outputs": [],
      "stateMutability": "nonpayable",
      "type": "function"
    },
    {
      "inputs": [
        {
          "internalType": "address[]",
          "name": "_collateralTokens",
          "type": "address[]"
        },
        {
          "internalType": "address[]",
          "name": "_indexTokens",
          "type": "address[]"
        }
      ],
      "name": "setPairs",
      "outputs": [],
      "stateMutability": "nonpayable",
      "type": "function"
    },
    {
      "inputs": [],
      "name": "setVirtualTokens",
      "outputs": [],
      "stateMutability": "nonpayable",
      "type": "function"
    },
    {
      "inputs": [
        {
          "internalType": "address",
          "name": "newOwner",
          "type": "address"
        }
      ],
      "name": "transferOwnership",
      "outputs": [],
      "stateMutability": "nonpayable",
      "type": "function"
    },
    {
      "inputs": [
        {
          "internalType": "address",
          "name": "",
          "type": "address"
        }
      ],
      "name": "virtualTokenList",
      "outputs": [
        {
          "internalType": "uint8",
          "name": "decimal",
          "type": "uint8"
        },
        {
          "internalType": "string",
          "name": "name",
          "type": "string"
        },
        {
          "internalType": "string",
          "name": "symbol",
          "type": "string"
        }
      ],
      "stateMutability": "view",
      "type": "function"
    }
  ],
  "bytecode": "0x60806040523480156200001157600080fd5b5060405162003e3438038062003e34833981016040819052620000349162000189565b6200003f3362000139565b600480546001600160a01b0383166001600160a01b03199091161790557f05b8ccbb9d4d8fb16ea74ce3c29a41f1b461fbdaff4714a0d9a8eb05499746bc805460ff191660121790556040805180820190915260038152621554d160ea1b60208281019190915260008052600590527f05b8ccbb9d4d8fb16ea74ce3c29a41f1b461fbdaff4714a0d9a8eb05499746bd90620000dc908262000260565b506040805180820190915260038152621554d160ea1b60208083019190915260008052600590527f05b8ccbb9d4d8fb16ea74ce3c29a41f1b461fbdaff4714a0d9a8eb05499746be9062000131908262000260565b50506200032c565b600080546001600160a01b038381166001600160a01b0319831681178455604051919092169283917f8be0079c531659141344cd1fd0a4f28419497f9722a3daafe3b4186f6b6457e09190a35050565b6000602082840312156200019c57600080fd5b81516001600160a01b0381168114620001b457600080fd5b9392505050565b634e487b7160e01b600052604160045260246000fd5b600181811c90821680620001e657607f821691505b6020821081036200020757634e487b7160e01b600052602260045260246000fd5b50919050565b601f8211156200025b57600081815260208120601f850160051c81016020861015620002365750805b601f850160051c820191505b81811015620002575782815560010162000242565b5050505b505050565b81516001600160401b038111156200027c576200027c620001bb565b62000294816200028d8454620001d1565b846200020d565b602080601f831160018114620002cc5760008415620002b35750858301515b600019600386901b1c1916600185901b17855562000257565b600085815260208120601f198616915b82811015620002fd57888601518255948401946001909101908401620002dc565b50858210156200031c5787850151600019600388901b60f8161c191681555b5050505050600190811b01905550565b613af8806200033c6000396000f3fe608060405234801561001057600080fd5b50600436106101005760003560e01c80635b331a6111610097578063a2ec258f11610066578063a2ec258f14610233578063d8c8fe5414610246578063d8c970c61461026c578063f2fde38b1461028c57600080fd5b80635b331a61146101f6578063715018a6146101fe578063767eb5ef146102065780638da5cb5b1461022257600080fd5b8063173fd1db116100d3578063173fd1db146101935780632e7083ad146101aa5780634a437f88146101cc57806357f493dc146101df57600080fd5b8063104f5a55146101055780631375093e146101305780631694a74e14610145578063172c48c714610168575b600080fd5b6101186101133660046131b2565b61029f565b60405161012793929190613224565b60405180910390f35b61014361013e366004613337565b6103d6565b005b6101586101533660046131b2565b6105b5565b6040516101279493929190613440565b61017b610176366004613498565b610d11565b6040516001600160a01b039091168152602001610127565b61019c60035481565b604051908152602001610127565b6101bd6101b83660046134b1565b610d3b565b60405161012793929190613542565b61017b6101da366004613498565b6112b0565b6101e76112c0565b604051610127939291906135a7565b6101436120b7565b6101436120e3565b61020e612117565b6040516101279897969594939291906135e0565b6000546001600160a01b031661017b565b60045461017b906001600160a01b031681565b6102596102543660046131b2565b61282e565b604051610127979695949392919061368f565b61027f61027a366004613734565b612e36565b604051610127919061383c565b61014361029a3660046131b2565b613031565b6005602052600090815260409020805460018201805460ff90921692916102c59061384f565b80601f01602080910402602001604051908101604052809291908181526020018280546102f19061384f565b801561033e5780601f106103135761010080835404028352916020019161033e565b820191906000526020600020905b81548152906001019060200180831161032157829003601f168201915b5050505050908060020180546103539061384f565b80601f016020809104026020016040519081016040528092919081815260200182805461037f9061384f565b80156103cc5780601f106103a1576101008083540402835291602001916103cc565b820191906000526020600020905b8154815290600101906020018083116103af57829003601f168201915b5050505050905083565b6000546001600160a01b031633146104095760405162461bcd60e51b815260040161040090613889565b60405180910390fd5b805182511461042a5760405162461bcd60e51b8152600401610400906138be565b805160038190556001600160401b038111156104485761044861325c565b604051908082528060200260200182016040528015610471578160200160208202803683370190505b5080516104869160019160209091019061311c565b506003546001600160401b038111156104a1576104a161325c565b6040519080825280602002602001820160405280156104ca578160200160208202803683370190505b5080516104df9160029160209091019061311c565b5060005b6003548110156105b0578281815181106104ff576104ff6138e6565b60200260200101516001828154811061051a5761051a6138e6565b9060005260206000200160006101000a8154816001600160a01b0302191690836001600160a01b0316021790555081818151811061055a5761055a6138e6565b602002602001015160028281548110610575576105756138e6565b600091825260209091200180546001600160a01b0319166001600160a01b0392909216919091179055806105a881613912565b9150506104e3565b505050565b60608060608060035460026105ca919061392b565b6001600160401b038111156105e1576105e161325c565b60405190808252806020026020018201604052801561060a578160200160208202803683370190505b509350600354600261061c919061392b565b6001600160401b038111156106335761063361325c565b60405190808252806020026020018201604052801561065c578160200160208202803683370190505b509250600354600261066e919061392b565b6001600160401b038111156106855761068561325c565b6040519080825280602002602001820160405280156106ae578160200160208202803683370190505b50915060035460026106c0919061392b565b6106cb90600761392b565b6001600160401b038111156106e2576106e261325c565b60405190808252806020026020018201604052801561070b578160200160208202803683370190505b50905060005b600354811015610932576001818154811061072e5761072e6138e6565b6000918252602090912001546001600160a01b03168561074f83600261392b565b8151811061075f5761075f6138e6565b60200260200101906001600160a01b031690816001600160a01b03168152505060018181548110610792576107926138e6565b6000918252602090912001546001600160a01b0316856107b383600261392b565b6107be906001613948565b815181106107ce576107ce6138e6565b60200260200101906001600160a01b031690816001600160a01b03168152505060028181548110610801576108016138e6565b6000918252602090912001546001600160a01b03168461082283600261392b565b81518110610832576108326138e6565b60200260200101906001600160a01b031690816001600160a01b03168152505060028181548110610865576108656138e6565b6000918252602090912001546001600160a01b03168461088683600261392b565b610891906001613948565b815181106108a1576108a16138e6565b6001600160a01b03909216602092830291909101909101526001836108c783600261392b565b815181106108d7576108d76138e6565b911515602092830291909101909101526000836108f583600261392b565b610900906001613948565b81518110610910576109106138e6565b911515602092830291909101909101528061092a81613912565b915050610711565b5060005b60035461094490600261392b565b811015610d0957600061095882600761392b565b9050600080600080600460009054906101000a90046001600160a01b03166001600160a01b0316634a3f088d8b8881518110610996576109966138e6565b60200260200101518b89815181106109b0576109b06138e6565b60200260200101518e8c8b815181106109cb576109cb6138e6565b60200260200101516040518563ffffffff1660e01b81526004016109f2949392919061395b565b608060405180830381865afa158015610a0f573d6000803e3d6000fd5b505050506040513d601f19601f82011682018060405250810190610a339190613985565b93509350935093508387866000610a4a9190613948565b81518110610a5a57610a5a6138e6565b60209081029190910101528287610a72876001613948565b81518110610a8257610a826138e6565b60209081029190910101528187610a9a876002613948565b81518110610aaa57610aaa6138e6565b60209081029190910101528087610ac2876003613948565b81518110610ad257610ad26138e6565b602090810291909101015250506004548851600093508392506001600160a01b0390911690630bc37207908a9087908110610b0f57610b0f6138e6565b6020026020010151898781518110610b2957610b296138e6565b60200260200101518c8a8981518110610b4457610b446138e6565b60200260200101516040518563ffffffff1660e01b8152600401610b6b949392919061395b565b6040805180830381865afa158015610b87573d6000803e3d6000fd5b505050506040513d601f19601f82011682018060405250810190610bab91906139bb565b90925090508185610bbd856004613948565b81518110610bcd57610bcd6138e6565b60209081029190910101528085610be5856005613948565b81518110610bf557610bf56138e6565b6020908102919091010152505060045486516000916001600160a01b031690633688c26090899086908110610c2c57610c2c6138e6565b6020026020010151888681518110610c4657610c466138e6565b60200260200101518b898881518110610c6157610c616138e6565b60200260200101516040518563ffffffff1660e01b8152600401610c88949392919061395b565b602060405180830381865afa158015610ca5573d6000803e3d6000fd5b505050506040513d601f19601f82011682018060405250810190610cc991906139df565b90508084610cd8846006613948565b81518110610ce857610ce86138e6565b60200260200101818152505050508080610d0190613912565b915050610936565b509193509193565b60018181548110610d2157600080fd5b6000918252602090912001546001600160a01b0316905081565b606080606083516001600160401b03811115610d5957610d5961325c565b604051908082528060200260200182016040528015610d82578160200160208202803683370190505b50925083516001600160401b03811115610d9e57610d9e61325c565b604051908082528060200260200182016040528015610dd157816020015b6060815260200190600190039081610dbc5790505b50915083516001600160401b03811115610ded57610ded61325c565b604051908082528060200260200182016040528015610e2057816020015b6060815260200190600190039081610e0b5790505b50905060005b84518110156112a857600060056000878481518110610e4757610e476138e6565b6020908102919091018101516001600160a01b031682528101919091526040016000205460ff1611156110bc5760056000868381518110610e8a57610e8a6138e6565b60200260200101516001600160a01b03166001600160a01b0316815260200190815260200160002060000160009054906101000a900460ff16848281518110610ed557610ed56138e6565b602002602001019060ff16908160ff168152505060056000868381518110610eff57610eff6138e6565b60200260200101516001600160a01b03166001600160a01b031681526020019081526020016000206001018054610f359061384f565b80601f0160208091040260200160405190810160405280929190818152602001828054610f619061384f565b8015610fae5780601f10610f8357610100808354040283529160200191610fae565b820191906000526020600020905b815481529060010190602001808311610f9157829003601f168201915b5050505050838281518110610fc557610fc56138e6565b602002602001018190525060056000868381518110610fe657610fe66138e6565b60200260200101516001600160a01b03166001600160a01b03168152602001908152602001600020600201805461101c9061384f565b80601f01602080910402602001604051908101604052809291908181526020018280546110489061384f565b80156110955780601f1061106a57610100808354040283529160200191611095565b820191906000526020600020905b81548152906001019060200180831161107857829003601f168201915b50505050508282815181106110ac576110ac6138e6565b6020026020010181905250611296565b8481815181106110ce576110ce6138e6565b60200260200101516001600160a01b031663313ce5676040518163ffffffff1660e01b8152600401602060405180830381865afa158015611113573d6000803e3d6000fd5b505050506040513d601f19601f8201168201806040525081019061113791906139f8565b848281518110611149576111496138e6565b602002602001019060ff16908160ff168152505084818151811061116f5761116f6138e6565b60200260200101516001600160a01b03166306fdde036040518163ffffffff1660e01b8152600401600060405180830381865afa1580156111b4573d6000803e3d6000fd5b505050506040513d6000823e601f3d908101601f191682016040526111dc9190810190613a1b565b8382815181106111ee576111ee6138e6565b602002602001018190525084818151811061120b5761120b6138e6565b60200260200101516001600160a01b03166395d89b416040518163ffffffff1660e01b8152600401600060405180830381865afa158015611250573d6000803e3d6000fd5b505050506040513d6000823e601f3d908101601f191682016040526112789190810190613a1b565b82828151811061128a5761128a6138e6565b60200260200101819052505b806112a081613912565b915050610e26565b509193909250565b60028181548110610d2157600080fd5b60608060606003546001600160401b038111156112df576112df61325c565b604051908082528060200260200182016040528015611308578160200160208202803683370190505b5092506003546001600160401b038111156113255761132561325c565b60405190808252806020026020018201604052801561134e578160200160208202803683370190505b5091506003546012611360919061392b565b6001600160401b038111156113775761137761325c565b6040519080825280602002602001820160405280156113a0578160200160208202803683370190505b50905060005b6003548110156120b157600181815481106113c3576113c36138e6565b9060005260206000200160009054906101000a90046001600160a01b03168482815181106113f3576113f36138e6565b60200260200101906001600160a01b031690816001600160a01b03168152505060028181548110611426576114266138e6565b9060005260206000200160009054906101000a90046001600160a01b0316838281518110611456576114566138e6565b6001600160a01b0392831660209182029290920101526004546001805460009392909216916363a83060919085908110611492576114926138e6565b600091825260209091200154600280546001600160a01b0390921691869081106114be576114be6138e6565b60009182526020909120015460405160e084901b6001600160e01b03191681526001600160a01b03928316600482015291166024820152604401602060405180830381865afa158015611515573d6000803e3d6000fd5b505050506040513d601f19601f8201168201806040525081019061153991906139df565b9050600061154883601261392b565b60048054604051630812bac760e41b81529293506001600160a01b03169163812bac709161157c9186910190815260200190565b602060405180830381865afa158015611599573d6000803e3d6000fd5b505050506040513d601f19601f820116820180604052508101906115bd91906139df565b846115c9836000613948565b815181106115d9576115d96138e6565b602090810291909101015260048054604051630de4479d60e41b81529182018490526001600160a01b03169063de4479d090602401602060405180830381865afa15801561162b573d6000803e3d6000fd5b505050506040513d601f19601f8201168201806040525081019061164f91906139df565b8461165b836001613948565b8151811061166b5761166b6138e6565b602090810291909101015260048054604051639363157b60e01b81529182018490526001600160a01b031690639363157b90602401602060405180830381865afa1580156116bd573d6000803e3d6000fd5b505050506040513d601f19601f820116820180604052508101906116e191906139df565b846116ed836002613948565b815181106116fd576116fd6138e6565b60209081029190910101526004805460405163334ff89560e01b81529182018490526001600160a01b03169063334ff89590602401602060405180830381865afa15801561174f573d6000803e3d6000fd5b505050506040513d601f19601f8201168201806040525081019061177391906139df565b8461177f836003613948565b8151811061178f5761178f6138e6565b602090810291909101015260048054604051633da857bf60e21b81529182018490526001600160a01b03169063f6a15efc90602401602060405180830381865afa1580156117e1573d6000803e3d6000fd5b505050506040513d601f19601f8201168201806040525081019061180591906139df565b84611811836004613948565b81518110611821576118216138e6565b60209081029190910101526004805460405163f8e8f1af60e01b81529182018490526001600160a01b03169063f8e8f1af90602401602060405180830381865afa158015611873573d6000803e3d6000fd5b505050506040513d601f19601f8201168201806040525081019061189791906139df565b846118a3836005613948565b815181106118b3576118b36138e6565b602090810291909101015260048054604051630641969560e01b81529182018490526001600160a01b031690630641969590602401602060405180830381865afa158015611905573d6000803e3d6000fd5b505050506040513d601f19601f8201168201806040525081019061192991906139df565b84611935836006613948565b81518110611945576119456138e6565b60209081029190910101526004805460405163f0a231ff60e01b81529182018490526001600160a01b03169063f0a231ff90602401602060405180830381865afa158015611997573d6000803e3d6000fd5b505050506040513d601f19601f820116820180604052508101906119bb91906139df565b846119c7836007613948565b815181106119d7576119d76138e6565b60209081029190910101526004805460405163662dc66160e11b81529182018490526001600160a01b03169063cc5b8cc290602401602060405180830381865afa158015611a29573d6000803e3d6000fd5b505050506040513d601f19601f82011682018060405250810190611a4d91906139df565b84611a59836008613948565b81518110611a6957611a696138e6565b60209081029190910101526004805460405163042c3c3b60e01b81529182018490526001600160a01b03169063042c3c3b90602401602060405180830381865afa158015611abb573d6000803e3d6000fd5b505050506040513d601f19601f82011682018060405250810190611adf91906139df565b84611aeb836009613948565b81518110611afb57611afb6138e6565b6020908102919091010152600480546040516357f9a13160e01b81529182018490526001600160a01b0316906357f9a13190602401602060405180830381865afa158015611b4d573d6000803e3d6000fd5b505050506040513d601f19601f82011682018060405250810190611b7191906139df565b84611b7d83600a613948565b81518110611b8d57611b8d6138e6565b6020908102919091010152600454600180546001600160a01b0390921691635ac58a1f919086908110611bc257611bc26138e6565b60009182526020909120015460405160e083901b6001600160e01b03191681526001600160a01b039091166004820152602401602060405180830381865afa158015611c12573d6000803e3d6000fd5b505050506040513d601f19601f82011682018060405250810190611c3691906139df565b84611c4283600b613948565b81518110611c5257611c526138e6565b602090810291909101015260048054604051632c884b2960e21b81529182018490526001600160a01b03169063b2212ca490602401602060405180830381865afa158015611ca4573d6000803e3d6000fd5b505050506040513d601f19601f82011682018060405250810190611cc891906139df565b84611cd483600c613948565b81518110611ce457611ce46138e6565b602090810291909101015260048054604051638fba3fff60e01b81529182018490526001600160a01b031690638fba3fff90602401602060405180830381865afa158015611d36573d6000803e3d6000fd5b505050506040513d601f19601f82011682018060405250810190611d5a91906139df565b84611d6683600d613948565b81518110611d7657611d766138e6565b6020908102919091010152600454600180546001600160a01b0390921691638ee573ac919086908110611dab57611dab6138e6565b60009182526020909120015460405160e083901b6001600160e01b03191681526001600160a01b039091166004820152602401602060405180830381865afa158015611dfb573d6000803e3d6000fd5b505050506040513d601f19601f82011682018060405250810190611e1f91906139f8565b60ff1684611e2e83600e613948565b81518110611e3e57611e3e6138e6565b6020908102919091010152600454600280546001600160a01b0390921691638ee573ac919086908110611e7357611e736138e6565b60009182526020909120015460405160e083901b6001600160e01b03191681526001600160a01b039091166004820152602401602060405180830381865afa158015611ec3573d6000803e3d6000fd5b505050506040513d601f19601f82011682018060405250810190611ee791906139f8565b60ff1684611ef683600f613948565b81518110611f0657611f066138e6565b6020908102919091010152600454600180546001600160a01b03909216916341976e09919086908110611f3b57611f3b6138e6565b60009182526020909120015460405160e083901b6001600160e01b03191681526001600160a01b039091166004820152602401602060405180830381865afa158015611f8b573d6000803e3d6000fd5b505050506040513d601f19601f82011682018060405250810190611faf91906139df565b84611fbb836010613948565b81518110611fcb57611fcb6138e6565b6020908102919091010152600454600280546001600160a01b03909216916341976e09919086908110612000576120006138e6565b60009182526020909120015460405160e083901b6001600160e01b03191681526001600160a01b039091166004820152602401602060405180830381865afa158015612050573d6000803e3d6000fd5b505050506040513d601f19601f8201168201806040525081019061207491906139df565b84612080836011613948565b81518110612090576120906138e6565b602002602001018181525050505080806120a990613912565b9150506113a6565b50909192565b6000546001600160a01b031633146120e15760405162461bcd60e51b815260040161040090613889565b565b6000546001600160a01b0316331461210d5760405162461bcd60e51b815260040161040090613889565b6120e160006130cc565b6060806060806060806060806003546001600160401b0381111561213d5761213d61325c565b604051908082528060200260200182016040528015612166578160200160208202803683370190505b5097506003546001600160401b038111156121835761218361325c565b6040519080825280602002602001820160405280156121ac578160200160208202803683370190505b5096506003546001600160401b038111156121c9576121c961325c565b6040519080825280602002602001820160405280156121f2578160200160208202803683370190505b5095506003546001600160401b0381111561220f5761220f61325c565b604051908082528060200260200182016040528015612238578160200160208202803683370190505b5094506003546001600160401b038111156122555761225561325c565b60405190808252806020026020018201604052801561227e578160200160208202803683370190505b5093506003546001600160401b0381111561229b5761229b61325c565b6040519080825280602002602001820160405280156122c4578160200160208202803683370190505b5092506003546001600160401b038111156122e1576122e161325c565b60405190808252806020026020018201604052801561230a578160200160208202803683370190505b5091506003546001600160401b038111156123275761232761325c565b604051908082528060200260200182016040528015612350578160200160208202803683370190505b50905060005b6003548110156128235760018181548110612373576123736138e6565b9060005260206000200160009054906101000a90046001600160a01b03168982815181106123a3576123a36138e6565b60200260200101906001600160a01b031690816001600160a01b031681525050600281815481106123d6576123d66138e6565b9060005260206000200160009054906101000a90046001600160a01b0316888281518110612406576124066138e6565b6001600160a01b0392831660209182029290920101526004548a5160009291909116906363a83060908c9085908110612441576124416138e6565b60200260200101518b858151811061245b5761245b6138e6565b60200260200101516040518363ffffffff1660e01b81526004016124959291906001600160a01b0392831681529116602082015260400190565b602060405180830381865afa1580156124b2573d6000803e3d6000fd5b505050506040513d601f19601f820116820180604052508101906124d691906139df565b60048054604051630812bac760e41b81529293506001600160a01b03169163812bac709161250a9185910190815260200190565b602060405180830381865afa158015612527573d6000803e3d6000fd5b505050506040513d601f19601f8201168201806040525081019061254b91906139df565b88838151811061255d5761255d6138e6565b60209081029190910101526004805460405163334ff89560e01b81529182018390526001600160a01b03169063334ff89590602401602060405180830381865afa1580156125af573d6000803e3d6000fd5b505050506040513d601f19601f820116820180604052508101906125d391906139df565b8783815181106125e5576125e56138e6565b60209081029190910101526004805460405163662dc66160e11b81529182018390526001600160a01b03169063cc5b8cc290602401602060405180830381865afa158015612637573d6000803e3d6000fd5b505050506040513d601f19601f8201168201806040525081019061265b91906139df565b86838151811061266d5761266d6138e6565b60209081029190910101526004805460405163042c3c3b60e01b81529182018390526001600160a01b03169063042c3c3b90602401602060405180830381865afa1580156126bf573d6000803e3d6000fd5b505050506040513d601f19601f820116820180604052508101906126e391906139df565b8583815181106126f5576126f56138e6565b602090810291909101015260048054604051630641969560e01b81529182018390526001600160a01b031690630641969590602401602060405180830381865afa158015612747573d6000803e3d6000fd5b505050506040513d601f19601f8201168201806040525081019061276b91906139df565b84838151811061277d5761277d6138e6565b60209081029190910101526004805460405163f0a231ff60e01b81529182018390526001600160a01b03169063f0a231ff90602401602060405180830381865afa1580156127cf573d6000803e3d6000fd5b505050506040513d601f19601f820116820180604052508101906127f391906139df565b838381518110612805576128056138e6565b6020908102919091010152508061281b81613912565b915050612356565b509091929394959697565b60608060608060608060606003546002612848919061392b565b6001600160401b0381111561285f5761285f61325c565b604051908082528060200260200182016040528015612888578160200160208202803683370190505b509650600354600261289a919061392b565b6001600160401b038111156128b1576128b161325c565b6040519080825280602002602001820160405280156128da578160200160208202803683370190505b50955060035460026128ec919061392b565b6001600160401b038111156129035761290361325c565b60405190808252806020026020018201604052801561292c578160200160208202803683370190505b509450600354600261293e919061392b565b6001600160401b038111156129555761295561325c565b60405190808252806020026020018201604052801561297e578160200160208202803683370190505b5093506003546002612990919061392b565b6001600160401b038111156129a7576129a761325c565b6040519080825280602002602001820160405280156129d0578160200160208202803683370190505b50925060035460026129e2919061392b565b6001600160401b038111156129f9576129f961325c565b604051908082528060200260200182016040528015612a22578160200160208202803683370190505b5091506003546002612a34919061392b565b6001600160401b03811115612a4b57612a4b61325c565b604051908082528060200260200182016040528015612a74578160200160208202803683370190505b50905060005b600354811015612c9b5760018181548110612a9757612a976138e6565b6000918252602090912001546001600160a01b031688612ab883600261392b565b81518110612ac857612ac86138e6565b60200260200101906001600160a01b031690816001600160a01b03168152505060018181548110612afb57612afb6138e6565b6000918252602090912001546001600160a01b031688612b1c83600261392b565b612b27906001613948565b81518110612b3757612b376138e6565b60200260200101906001600160a01b031690816001600160a01b03168152505060028181548110612b6a57612b6a6138e6565b6000918252602090912001546001600160a01b031687612b8b83600261392b565b81518110612b9b57612b9b6138e6565b60200260200101906001600160a01b031690816001600160a01b03168152505060028181548110612bce57612bce6138e6565b6000918252602090912001546001600160a01b031687612bef83600261392b565b612bfa906001613948565b81518110612c0a57612c0a6138e6565b6001600160a01b0390921660209283029190910190910152600186612c3083600261392b565b81518110612c4057612c406138e6565b91151560209283029190910190910152600086612c5e83600261392b565b612c69906001613948565b81518110612c7957612c796138e6565b9115156020928302919091019091015280612c9381613912565b915050612a7a565b508760005b600354612cae90600261392b565b811015612e2957600080600080600460009054906101000a90046001600160a01b03166001600160a01b0316634a3f088d8e8781518110612cf157612cf16138e6565b60200260200101518e8881518110612d0b57612d0b6138e6565b6020026020010151898f8a81518110612d2657612d266138e6565b60200260200101516040518563ffffffff1660e01b8152600401612d4d949392919061395b565b608060405180830381865afa158015612d6a573d6000803e3d6000fd5b505050506040513d601f19601f82011682018060405250810190612d8e9190613985565b9350935093509350838a8681518110612da957612da96138e6565b60200260200101818152505082898681518110612dc857612dc86138e6565b60200260200101818152505081888681518110612de757612de76138e6565b60200260200101818152505080878681518110612e0657612e066138e6565b602002602001018181525050505050508080612e2190613912565b915050612ca0565b5050919395979092949650565b606084516001600160401b03811115612e5157612e5161325c565b604051908082528060200260200182016040528015612e7a578160200160208202803683370190505b5090508351855114612e9e5760405162461bcd60e51b8152600401610400906138be565b8251855114612ebf5760405162461bcd60e51b8152600401610400906138be565b8151855114612ee05760405162461bcd60e51b8152600401610400906138be565b60005b85518110156130285760045486516001600160a01b039091169063baa9657090889084908110612f1557612f156138e6565b6020026020010151878481518110612f2f57612f2f6138e6565b6020026020010151878581518110612f4957612f496138e6565b6020026020010151878681518110612f6357612f636138e6565b60209081029190910101516040516001600160e01b031960e087901b1681526001600160a01b03948516600482015292841660248401529216604482015290151560648201526000608482015260a401602060405180830381865afa158015612fd0573d6000803e3d6000fd5b505050506040513d601f19601f82011682018060405250810190612ff49190613aa5565b828281518110613006576130066138e6565b911515602092830291909101909101528061302081613912565b915050612ee3565b50949350505050565b6000546001600160a01b0316331461305b5760405162461bcd60e51b815260040161040090613889565b6001600160a01b0381166130c05760405162461bcd60e51b815260206004820152602660248201527f4f776e61626c653a206e6577206f776e657220697320746865207a65726f206160448201526564647265737360d01b6064820152608401610400565b6130c9816130cc565b50565b600080546001600160a01b038381166001600160a01b0319831681178455604051919092169283917f8be0079c531659141344cd1fd0a4f28419497f9722a3daafe3b4186f6b6457e09190a35050565b828054828255906000526020600020908101928215613171579160200282015b8281111561317157825182546001600160a01b0319166001600160a01b0390911617825560209092019160019091019061313c565b5061317d929150613181565b5090565b5b8082111561317d5760008155600101613182565b80356001600160a01b03811681146131ad57600080fd5b919050565b6000602082840312156131c457600080fd5b6131cd82613196565b9392505050565b60005b838110156131ef5781810151838201526020016131d7565b50506000910152565b600081518084526132108160208601602086016131d4565b601f01601f19169290920160200192915050565b60ff8416815260606020820152600061324060608301856131f8565b828103604084015261325281856131f8565b9695505050505050565b634e487b7160e01b600052604160045260246000fd5b604051601f8201601f191681016001600160401b038111828210171561329a5761329a61325c565b604052919050565b60006001600160401b038211156132bb576132bb61325c565b5060051b60200190565b600082601f8301126132d657600080fd5b813560206132eb6132e6836132a2565b613272565b82815260059290921b8401810191818101908684111561330a57600080fd5b8286015b8481101561332c5761331f81613196565b835291830191830161330e565b509695505050505050565b6000806040838503121561334a57600080fd5b82356001600160401b038082111561336157600080fd5b61336d868387016132c5565b9350602085013591508082111561338357600080fd5b50613390858286016132c5565b9150509250929050565b600081518084526020808501945080840160005b838110156133d35781516001600160a01b0316875295820195908201906001016133ae565b509495945050505050565b600081518084526020808501945080840160005b838110156133d35781511515875295820195908201906001016133f2565b600081518084526020808501945080840160005b838110156133d357815187529582019590820190600101613424565b608081526000613453608083018761339a565b8281036020840152613465818761339a565b9050828103604084015261347981866133de565b9050828103606084015261348d8185613410565b979650505050505050565b6000602082840312156134aa57600080fd5b5035919050565b6000602082840312156134c357600080fd5b81356001600160401b038111156134d957600080fd5b6134e5848285016132c5565b949350505050565b600081518084526020808501808196508360051b8101915082860160005b858110156135355782840389526135238483516131f8565b9885019893509084019060010161350b565b5091979650505050505050565b606080825284519082018190526000906020906080840190828801845b8281101561357e57815160ff168452928401929084019060010161355f565b5050508381038285015261359281876134ed565b915050828103604084015261325281856134ed565b6060815260006135ba606083018661339a565b82810360208401526135cc818661339a565b905082810360408401526132528185613410565b60006101008083526135f48184018c61339a565b90508281036020840152613608818b61339a565b9050828103604084015261361c818a613410565b905082810360608401526136308189613410565b905082810360808401526136448188613410565b905082810360a08401526136588187613410565b905082810360c084015261366c8186613410565b905082810360e08401526136808185613410565b9b9a5050505050505050505050565b60e0815260006136a260e083018a61339a565b82810360208401526136b4818a61339a565b905082810360408401526136c881896133de565b905082810360608401526136dc8188613410565b905082810360808401526136f08187613410565b905082810360a08401526137048186613410565b905082810360c08401526137188185613410565b9a9950505050505050505050565b80151581146130c957600080fd5b6000806000806080858703121561374a57600080fd5b84356001600160401b038082111561376157600080fd5b61376d888389016132c5565b955060209150818701358181111561378457600080fd5b61379089828a016132c5565b9550506040870135818111156137a557600080fd5b6137b189828a016132c5565b9450506060870135818111156137c657600080fd5b87019050601f810188136137d957600080fd5b80356137e76132e6826132a2565b81815260059190911b8201830190838101908a83111561380657600080fd5b928401925b8284101561382d57833561381e81613726565b8252928401929084019061380b565b979a9699509497505050505050565b6020815260006131cd60208301846133de565b600181811c9082168061386357607f821691505b60208210810361388357634e487b7160e01b600052602260045260246000fd5b50919050565b6020808252818101527f4f776e61626c653a2063616c6c6572206973206e6f7420746865206f776e6572604082015260600190565b6020808252600e908201526d0d2dcecc2d8d2c8bed8cadccee8d60931b604082015260600190565b634e487b7160e01b600052603260045260246000fd5b634e487b7160e01b600052601160045260246000fd5b600060018201613924576139246138fc565b5060010190565b8082028115828204841417613942576139426138fc565b92915050565b80820180821115613942576139426138fc565b6001600160a01b039485168152928416602084015292166040820152901515606082015260800190565b6000806000806080858703121561399b57600080fd5b505082516020840151604085015160609095015191969095509092509050565b600080604083850312156139ce57600080fd5b505080516020909101519092909150565b6000602082840312156139f157600080fd5b5051919050565b600060208284031215613a0a57600080fd5b815160ff811681146131cd57600080fd5b600060208284031215613a2d57600080fd5b81516001600160401b0380821115613a4457600080fd5b818401915084601f830112613a5857600080fd5b815181811115613a6a57613a6a61325c565b613a7d601f8201601f1916602001613272565b9150808252856020828501011115613a9457600080fd5b6130288160208401602086016131d4565b600060208284031215613ab757600080fd5b81516131cd8161372656fea2646970667358221220ac36f0735b323f9e1e3d37b86cf8a8251d542e96919e38cf079df1982927d81064736f6c63430008110033",
  "linkReferences": {},
  "deployedLinkReferences": {}
}