{
  "_format": "hh-sol-artifact-1",
  "contractName": "Liquidity",
  "sourceName": "contracts/swap/Liquidity.sol",
  "abi": [
    {
      "inputs": [
        {
          "internalType": "address",
          "name": "_token",
          "type": "address"
        }
      ],
      "stateMutability": "nonpayable",
      "type": "constructor"
    },
    {
      "anonymous": false,
      "inputs": [
        {
          "indexed": true,
          "internalType": "address",
          "name": "owner",
          "type": "address"
        },
        {
          "indexed": true,
          "internalType": "address",
          "name": "spender",
          "type": "address"
        },
        {
          "indexed": false,
          "internalType": "uint256",
          "name": "value",
          "type": "uint256"
        }
      ],
      "name": "Approval",
      "type": "event"
    },
    {
      "anonymous": false,
      "inputs": [
        {
          "indexed": true,
          "internalType": "address",
          "name": "previousOwner",
          "type": "address"
        },
        {
          "indexed": true,
          "internalType": "address",
          "name": "newOwner",
          "type": "address"
        }
      ],
      "name": "OwnershipTransferred",
      "type": "event"
    },
    {
      "anonymous": false,
      "inputs": [
        {
          "indexed": true,
          "internalType": "address",
          "name": "from",
          "type": "address"
        },
        {
          "indexed": true,
          "internalType": "address",
          "name": "to",
          "type": "address"
        },
        {
          "indexed": false,
          "internalType": "uint256",
          "name": "value",
          "type": "uint256"
        }
      ],
      "name": "Transfer",
      "type": "event"
    },
    {
      "inputs": [
        {
          "internalType": "address",
          "name": "owner",
          "type": "address"
        },
        {
          "internalType": "address",
          "name": "spender",
          "type": "address"
        }
      ],
      "name": "allowance",
      "outputs": [
        {
          "internalType": "uint256",
          "name": "",
          "type": "uint256"
        }
      ],
      "stateMutability": "view",
      "type": "function"
    },
    {
      "inputs": [
        {
          "internalType": "address",
          "name": "spender",
          "type": "address"
        },
        {
          "internalType": "uint256",
          "name": "amount",
          "type": "uint256"
        }
      ],
      "name": "approve",
      "outputs": [
        {
          "internalType": "bool",
          "name": "",
          "type": "bool"
        }
      ],
      "stateMutability": "nonpayable",
      "type": "function"
    },
    {
      "inputs": [
        {
          "internalType": "address",
          "name": "account",
          "type": "address"
        }
      ],
      "name": "balanceOf",
      "outputs": [
        {
          "internalType": "uint256",
          "name": "",
          "type": "uint256"
        }
      ],
      "stateMutability": "view",
      "type": "function"
    },
    {
      "inputs": [
        {
          "internalType": "address",
          "name": "to",
          "type": "address"
        },
        {
          "internalType": "uint256",
          "name": "amount",
          "type": "uint256"
        }
      ],
      "name": "burn",
      "outputs": [],
      "stateMutability": "nonpayable",
      "type": "function"
    },
    {
      "inputs": [],
      "name": "decimals",
      "outputs": [
        {
          "internalType": "uint8",
          "name": "",
          "type": "uint8"
        }
      ],
      "stateMutability": "view",
      "type": "function"
    },
    {
      "inputs": [
        {
          "internalType": "address",
          "name": "spender",
          "type": "address"
        },
        {
          "internalType": "uint256",
          "name": "subtractedValue",
          "type": "uint256"
        }
      ],
      "name": "decreaseAllowance",
      "outputs": [
        {
          "internalType": "bool",
          "name": "",
          "type": "bool"
        }
      ],
      "stateMutability": "nonpayable",
      "type": "function"
    },
    {
      "inputs": [
        {
          "internalType": "address",
          "name": "spender",
          "type": "address"
        },
        {
          "internalType": "uint256",
          "name": "addedValue",
          "type": "uint256"
        }
      ],
      "name": "increaseAllowance",
      "outputs": [
        {
          "internalType": "bool",
          "name": "",
          "type": "bool"
        }
      ],
      "stateMutability": "nonpayable",
      "type": "function"
    },
    {
      "inputs": [
        {
          "internalType": "address",
          "name": "to",
          "type": "address"
        },
        {
          "internalType": "uint256",
          "name": "amount",
          "type": "uint256"
        }
      ],
      "name": "mint",
      "outputs": [],
      "stateMutability": "nonpayable",
      "type": "function"
    },
    {
      "inputs": [],
      "name": "name",
      "outputs": [
        {
          "internalType": "string",
          "name": "",
          "type": "string"
        }
      ],
      "stateMutability": "view",
      "type": "function"
    },
    {
      "inputs": [],
      "name": "owner",
      "outputs": [
        {
          "internalType": "address",
          "name": "",
          "type": "address"
        }
      ],
      "stateMutability": "view",
      "type": "function"
    },
    {
      "inputs": [],
      "name": "renounceOwnership",
      "outputs": [],
      "stateMutability": "nonpayable",
      "type": "function"
    },
    {
      "inputs": [],
      "name": "symbol",
      "outputs": [
        {
          "internalType": "string",
          "name": "",
          "type": "string"
        }
      ],
      "stateMutability": "view",
      "type": "function"
    },
    {
      "inputs": [],
      "name": "token",
      "outputs": [
        {
          "internalType": "address",
          "name": "",
          "type": "address"
        }
      ],
      "stateMutability": "view",
      "type": "function"
    },
    {
      "inputs": [],
      "name": "totalSupply",
      "outputs": [
        {
          "internalType": "uint256",
          "name": "",
          "type": "uint256"
        }
      ],
      "stateMutability": "view",
      "type": "function"
    },
    {
      "inputs": [
        {
          "internalType": "address",
          "name": "to",
          "type": "address"
        },
        {
          "internalType": "uint256",
          "name": "amount",
          "type": "uint256"
        }
      ],
      "name": "transfer",
      "outputs": [
        {
          "internalType": "bool",
          "name": "",
          "type": "bool"
        }
      ],
      "stateMutability": "nonpayable",
      "type": "function"
    },
    {
      "inputs": [
        {
          "internalType": "address",
          "name": "from",
          "type": "address"
        },
        {
          "internalType": "address",
          "name": "to",
          "type": "address"
        },
        {
          "internalType": "uint256",
          "name": "amount",
          "type": "uint256"
        }
      ],
      "name": "transferFrom",
      "outputs": [
        {
          "internalType": "bool",
          "name": "",
          "type": "bool"
        }
      ],
      "stateMutability": "nonpayable",
      "type": "function"
    },
    {
      "inputs": [
        {
          "internalType": "address",
          "name": "newOwner",
          "type": "address"
        }
      ],
      "name": "transferOwnership",
      "outputs": [],
      "stateMutability": "nonpayable",
      "type": "function"
    }
  ],
  "bytecode": "0x60806040523480156200001157600080fd5b50604051620013163803806200131683398101604081905262000034916200028b565b620000a7816001600160a01b03166395d89b416040518163ffffffff1660e01b8152600401600060405180830381865afa15801562000077573d6000803e3d6000fd5b505050506040513d6000823e601f3d908101601f19168201604052620000a19190810190620002f9565b620001f5565b6200011a826001600160a01b03166395d89b416040518163ffffffff1660e01b8152600401600060405180830381865afa158015620000ea573d6000803e3d6000fd5b505050506040513d6000823e601f3d908101601f19168201604052620001149190810190620002f9565b62000220565b600362000128838262000440565b50600462000137828262000440565b505050620001546200014e6200023560201b60201c565b62000239565b600680546001600160a01b0319166001600160a01b0383169081179091556040805163313ce56760e01b8152905163313ce567916004808201926020929091908290030181865afa158015620001ae573d6000803e3d6000fd5b505050506040513d601f19601f82011682018060405250810190620001d491906200050c565b600660146101000a81548160ff021916908360ff1602179055505062000594565b6060816040516020016200020a919062000531565b6040516020818303038152906040529050919050565b6060816040516020016200020a91906200056b565b3390565b600580546001600160a01b038381166001600160a01b0319831681179093556040519116919082907f8be0079c531659141344cd1fd0a4f28419497f9722a3daafe3b4186f6b6457e090600090a35050565b6000602082840312156200029e57600080fd5b81516001600160a01b0381168114620002b657600080fd5b9392505050565b634e487b7160e01b600052604160045260246000fd5b60005b83811015620002f0578181015183820152602001620002d6565b50506000910152565b6000602082840312156200030c57600080fd5b81516001600160401b03808211156200032457600080fd5b818401915084601f8301126200033957600080fd5b8151818111156200034e576200034e620002bd565b604051601f8201601f19908116603f01168101908382118183101715620003795762000379620002bd565b816040528281528760208487010111156200039357600080fd5b620003a6836020830160208801620002d3565b979650505050505050565b600181811c90821680620003c657607f821691505b602082108103620003e757634e487b7160e01b600052602260045260246000fd5b50919050565b601f8211156200043b57600081815260208120601f850160051c81016020861015620004165750805b601f850160051c820191505b81811015620004375782815560010162000422565b5050505b505050565b81516001600160401b038111156200045c576200045c620002bd565b62000474816200046d8454620003b1565b84620003ed565b602080601f831160018114620004ac5760008415620004935750858301515b600019600386901b1c1916600185901b17855562000437565b600085815260208120601f198616915b82811015620004dd57888601518255948401946001909101908401620004bc565b5085821015620004fc5787850151600019600388901b60f8161c191681555b5050505050600190811b01905550565b6000602082840312156200051f57600080fd5b815160ff81168114620002b657600080fd5b62027aa160ed1b81526000825162000551816003850160208701620002d3565b620204c560ec1b6003939091019283015250600601919050565b600082516200057f818460208701620002d3565b620204c560ec1b920191825250600301919050565b610d7280620005a46000396000f3fe608060405234801561001057600080fd5b506004361061010b5760003560e01c8063715018a6116100a2578063a457c2d711610071578063a457c2d71461022e578063a9059cbb14610241578063dd62ed3e14610254578063f2fde38b14610267578063fc0c546a1461027a57600080fd5b8063715018a6146101e65780638da5cb5b146101ee57806395d89b41146102135780639dc29fac1461021b57600080fd5b8063313ce567116100de578063313ce56714610176578063395093511461019557806340c10f19146101a857806370a08231146101bd57600080fd5b806306fdde0314610110578063095ea7b31461012e57806318160ddd1461015157806323b872dd14610163575b600080fd5b61011861028d565b6040516101259190610b6c565b60405180910390f35b61014161013c366004610bd6565b61031f565b6040519015158152602001610125565b6002545b604051908152602001610125565b610141610171366004610c00565b610339565b600654600160a01b900460ff1660405160ff9091168152602001610125565b6101416101a3366004610bd6565b61035d565b6101bb6101b6366004610bd6565b61037f565b005b6101556101cb366004610c3c565b6001600160a01b031660009081526020819052604090205490565b6101bb6103c0565b6005546001600160a01b03165b6040516001600160a01b039091168152602001610125565b6101186103f6565b6101bb610229366004610bd6565b610405565b61014161023c366004610bd6565b610439565b61014161024f366004610bd6565b6104b4565b610155610262366004610c5e565b6104c2565b6101bb610275366004610c3c565b6104ed565b6006546101fb906001600160a01b031681565b60606003805461029c90610c91565b80601f01602080910402602001604051908101604052809291908181526020018280546102c890610c91565b80156103155780601f106102ea57610100808354040283529160200191610315565b820191906000526020600020905b8154815290600101906020018083116102f857829003601f168201915b5050505050905090565b60003361032d818585610588565b60019150505b92915050565b6000336103478582856106ad565b610352858585610727565b506001949350505050565b60003361032d81858561037083836104c2565b61037a9190610ce1565b610588565b6005546001600160a01b031633146103b25760405162461bcd60e51b81526004016103a990610cf4565b60405180910390fd5b6103bc82826108f5565b5050565b6005546001600160a01b031633146103ea5760405162461bcd60e51b81526004016103a990610cf4565b6103f460006109d4565b565b60606004805461029c90610c91565b6005546001600160a01b0316331461042f5760405162461bcd60e51b81526004016103a990610cf4565b6103bc8282610a26565b6000338161044782866104c2565b9050838110156104a75760405162461bcd60e51b815260206004820152602560248201527f45524332303a2064656372656173656420616c6c6f77616e63652062656c6f77604482015264207a65726f60d81b60648201526084016103a9565b6103528286868403610588565b60003361032d818585610727565b6001600160a01b03918216600090815260016020908152604080832093909416825291909152205490565b6005546001600160a01b031633146105175760405162461bcd60e51b81526004016103a990610cf4565b6001600160a01b03811661057c5760405162461bcd60e51b815260206004820152602660248201527f4f776e61626c653a206e6577206f776e657220697320746865207a65726f206160448201526564647265737360d01b60648201526084016103a9565b610585816109d4565b50565b6001600160a01b0383166105ea5760405162461bcd60e51b8152602060048201526024808201527f45524332303a20617070726f76652066726f6d20746865207a65726f206164646044820152637265737360e01b60648201526084016103a9565b6001600160a01b03821661064b5760405162461bcd60e51b815260206004820152602260248201527f45524332303a20617070726f766520746f20746865207a65726f206164647265604482015261737360f01b60648201526084016103a9565b6001600160a01b0383811660008181526001602090815260408083209487168084529482529182902085905590518481527f8c5be1e5ebec7d5bd14f71427d1e84f3dd0314c0f7b2291e5b200ac8c7c3b92591015b60405180910390a3505050565b60006106b984846104c2565b9050600019811461072157818110156107145760405162461bcd60e51b815260206004820152601d60248201527f45524332303a20696e73756666696369656e7420616c6c6f77616e636500000060448201526064016103a9565b6107218484848403610588565b50505050565b6001600160a01b03831661078b5760405162461bcd60e51b815260206004820152602560248201527f45524332303a207472616e736665722066726f6d20746865207a65726f206164604482015264647265737360d81b60648201526084016103a9565b6001600160a01b0382166107ed5760405162461bcd60e51b815260206004820152602360248201527f45524332303a207472616e7366657220746f20746865207a65726f206164647260448201526265737360e81b60648201526084016103a9565b6001600160a01b038316600090815260208190526040902054818110156108655760405162461bcd60e51b815260206004820152602660248201527f45524332303a207472616e7366657220616d6f756e7420657863656564732062604482015265616c616e636560d01b60648201526084016103a9565b6001600160a01b0380851660009081526020819052604080822085850390559185168152908120805484929061089c908490610ce1565b92505081905550826001600160a01b0316846001600160a01b03167fddf252ad1be2c89b69c2b068fc378daa952ba7f163c4a11628f55a4df523b3ef846040516108e891815260200190565b60405180910390a3610721565b6001600160a01b03821661094b5760405162461bcd60e51b815260206004820152601f60248201527f45524332303a206d696e7420746f20746865207a65726f20616464726573730060448201526064016103a9565b806002600082825461095d9190610ce1565b90915550506001600160a01b0382166000908152602081905260408120805483929061098a908490610ce1565b90915550506040518181526001600160a01b038316906000907fddf252ad1be2c89b69c2b068fc378daa952ba7f163c4a11628f55a4df523b3ef9060200160405180910390a35050565b600580546001600160a01b038381166001600160a01b0319831681179093556040519116919082907f8be0079c531659141344cd1fd0a4f28419497f9722a3daafe3b4186f6b6457e090600090a35050565b6001600160a01b038216610a865760405162461bcd60e51b815260206004820152602160248201527f45524332303a206275726e2066726f6d20746865207a65726f206164647265736044820152607360f81b60648201526084016103a9565b6001600160a01b03821660009081526020819052604090205481811015610afa5760405162461bcd60e51b815260206004820152602260248201527f45524332303a206275726e20616d6f756e7420657863656564732062616c616e604482015261636560f01b60648201526084016103a9565b6001600160a01b0383166000908152602081905260408120838303905560028054849290610b29908490610d29565b90915550506040518281526000906001600160a01b038516907fddf252ad1be2c89b69c2b068fc378daa952ba7f163c4a11628f55a4df523b3ef906020016106a0565b600060208083528351808285015260005b81811015610b9957858101830151858201604001528201610b7d565b506000604082860101526040601f19601f8301168501019250505092915050565b80356001600160a01b0381168114610bd157600080fd5b919050565b60008060408385031215610be957600080fd5b610bf283610bba565b946020939093013593505050565b600080600060608486031215610c1557600080fd5b610c1e84610bba565b9250610c2c60208501610bba565b9150604084013590509250925092565b600060208284031215610c4e57600080fd5b610c5782610bba565b9392505050565b60008060408385031215610c7157600080fd5b610c7a83610bba565b9150610c8860208401610bba565b90509250929050565b600181811c90821680610ca557607f821691505b602082108103610cc557634e487b7160e01b600052602260045260246000fd5b50919050565b634e487b7160e01b600052601160045260246000fd5b8082018082111561033357610333610ccb565b6020808252818101527f4f776e61626c653a2063616c6c6572206973206e6f7420746865206f776e6572604082015260600190565b8181038181111561033357610333610ccb56fea2646970667358221220d096a7f87027258c6b6162e489132b619a2d91c22964cfc93d9232aae0727d3c64736f6c63430008110033",
  "linkReferences": {},
  "deployedLinkReferences": {}
}