{
  "_format": "hh-sol-artifact-1",
  "contractName": "FutureLimit",
  "sourceName": "contracts/future/FutureLimit.sol",
  "abi": [
    {
      "inputs": [
        {
          "internalType": "address",
          "name": "_future",
          "type": "address"
        },
        {
          "internalType": "uint256",
          "name": "_minExecFee",
          "type": "uint256"
        }
      ],
      "stateMutability": "nonpayable",
      "type": "constructor"
    },
    {
      "anonymous": false,
      "inputs": [
        {
          "indexed": false,
          "internalType": "address",
          "name": "account",
          "type": "address"
        },
        {
          "indexed": false,
          "internalType": "uint256",
          "name": "orderIndex",
          "type": "uint256"
        }
      ],
      "name": "CancelDecreaseOrder",
      "type": "event"
    },
    {
      "anonymous": false,
      "inputs": [
        {
          "indexed": false,
          "internalType": "address",
          "name": "account",
          "type": "address"
        },
        {
          "indexed": false,
          "internalType": "uint256",
          "name": "orderIndex",
          "type": "uint256"
        }
      ],
      "name": "CancelIncreaseOrder",
      "type": "event"
    },
    {
      "anonymous": false,
      "inputs": [
        {
          "indexed": false,
          "internalType": "address",
          "name": "account",
          "type": "address"
        },
        {
          "indexed": false,
          "internalType": "uint256",
          "name": "orderIndex",
          "type": "uint256"
        }
      ],
      "name": "CreateDecreaseOrder",
      "type": "event"
    },
    {
      "anonymous": false,
      "inputs": [
        {
          "indexed": false,
          "internalType": "address",
          "name": "account",
          "type": "address"
        },
        {
          "indexed": false,
          "internalType": "uint256",
          "name": "orderIndex",
          "type": "uint256"
        }
      ],
      "name": "CreateIncreaseOrder",
      "type": "event"
    },
    {
      "anonymous": false,
      "inputs": [
        {
          "indexed": false,
          "internalType": "address",
          "name": "account",
          "type": "address"
        },
        {
          "indexed": false,
          "internalType": "uint256",
          "name": "orderIndex",
          "type": "uint256"
        }
      ],
      "name": "EditDecreaseOrder",
      "type": "event"
    },
    {
      "anonymous": false,
      "inputs": [
        {
          "indexed": false,
          "internalType": "address",
          "name": "account",
          "type": "address"
        },
        {
          "indexed": false,
          "internalType": "uint256",
          "name": "orderIndex",
          "type": "uint256"
        }
      ],
      "name": "EditIncreaseOrder",
      "type": "event"
    },
    {
      "anonymous": false,
      "inputs": [
        {
          "indexed": false,
          "internalType": "address",
          "name": "account",
          "type": "address"
        },
        {
          "indexed": false,
          "internalType": "uint256",
          "name": "orderIndex",
          "type": "uint256"
        }
      ],
      "name": "ExecDecreaseOrder",
      "type": "event"
    },
    {
      "anonymous": false,
      "inputs": [
        {
          "indexed": false,
          "internalType": "address",
          "name": "account",
          "type": "address"
        },
        {
          "indexed": false,
          "internalType": "uint256",
          "name": "orderIndex",
          "type": "uint256"
        }
      ],
      "name": "ExecIncreaseOrder",
      "type": "event"
    },
    {
      "anonymous": false,
      "inputs": [
        {
          "indexed": true,
          "internalType": "address",
          "name": "previousOwner",
          "type": "address"
        },
        {
          "indexed": true,
          "internalType": "address",
          "name": "newOwner",
          "type": "address"
        }
      ],
      "name": "OwnershipTransferred",
      "type": "event"
    },
    {
      "anonymous": false,
      "inputs": [
        {
          "indexed": false,
          "internalType": "uint256",
          "name": "_minExecFee",
          "type": "uint256"
        }
      ],
      "name": "SetMinExecFee",
      "type": "event"
    },
    {
      "anonymous": false,
      "inputs": [
        {
          "indexed": false,
          "internalType": "address",
          "name": "router",
          "type": "address"
        },
        {
          "indexed": false,
          "internalType": "bool",
          "name": "enable",
          "type": "bool"
        }
      ],
      "name": "SetSystemRouter",
      "type": "event"
    },
    {
      "anonymous": false,
      "inputs": [
        {
          "indexed": false,
          "internalType": "address",
          "name": "collateralToken",
          "type": "address"
        },
        {
          "indexed": false,
          "internalType": "address",
          "name": "indexToken",
          "type": "address"
        },
        {
          "indexed": true,
          "internalType": "address",
          "name": "account",
          "type": "address"
        },
        {
          "indexed": false,
          "internalType": "bool",
          "name": "isLong",
          "type": "bool"
        },
        {
          "indexed": false,
          "internalType": "uint256",
          "name": "notionalDelta",
          "type": "uint256"
        },
        {
          "indexed": false,
          "internalType": "uint256",
          "name": "minSizeDelta",
          "type": "uint256"
        },
        {
          "indexed": false,
          "internalType": "uint256",
          "name": "maxSizeDelta",
          "type": "uint256"
        },
        {
          "indexed": false,
          "internalType": "uint256",
          "name": "execFee",
          "type": "uint256"
        },
        {
          "indexed": false,
          "internalType": "uint256",
          "name": "orderIndex",
          "type": "uint256"
        },
        {
          "indexed": false,
          "internalType": "enum FutureLimit.Operation",
          "name": "operation",
          "type": "uint8"
        },
        {
          "indexed": false,
          "internalType": "enum FutureLimit.ExecStatus",
          "name": "execStatus",
          "type": "uint8"
        },
        {
          "indexed": false,
          "internalType": "enum FutureLimit.DecreaseExecType",
          "name": "execType",
          "type": "uint8"
        }
      ],
      "name": "UpdateDecreaseOrder",
      "type": "event"
    },
    {
      "anonymous": false,
      "inputs": [
        {
          "indexed": false,
          "internalType": "address",
          "name": "collateralToken",
          "type": "address"
        },
        {
          "indexed": false,
          "internalType": "address",
          "name": "indexToken",
          "type": "address"
        },
        {
          "indexed": true,
          "internalType": "address",
          "name": "account",
          "type": "address"
        },
        {
          "indexed": false,
          "internalType": "bool",
          "name": "isLong",
          "type": "bool"
        },
        {
          "indexed": false,
          "internalType": "uint256",
          "name": "marginDelta",
          "type": "uint256"
        },
        {
          "indexed": false,
          "internalType": "uint256",
          "name": "notionalDelta",
          "type": "uint256"
        },
        {
          "indexed": false,
          "internalType": "uint256",
          "name": "sizeDelta",
          "type": "uint256"
        },
        {
          "indexed": false,
          "internalType": "uint256",
          "name": "execFee",
          "type": "uint256"
        },
        {
          "indexed": false,
          "internalType": "uint256",
          "name": "orderIndex",
          "type": "uint256"
        },
        {
          "indexed": false,
          "internalType": "enum FutureLimit.Operation",
          "name": "operation",
          "type": "uint8"
        },
        {
          "indexed": false,
          "internalType": "enum FutureLimit.ExecStatus",
          "name": "execStatus",
          "type": "uint8"
        }
      ],
      "name": "UpdateIncreaseOrder",
      "type": "event"
    },
    {
      "inputs": [
        {
          "internalType": "address",
          "name": "_account",
          "type": "address"
        },
        {
          "internalType": "uint256",
          "name": "_orderIndex",
          "type": "uint256"
        },
        {
          "internalType": "address payable",
          "name": "_execFeeTo",
          "type": "address"
        }
      ],
      "name": "cancelDecreaseOrder",
      "outputs": [],
      "stateMutability": "nonpayable",
      "type": "function"
    },
    {
      "inputs": [
        {
          "internalType": "address",
          "name": "_account",
          "type": "address"
        },
        {
          "internalType": "uint256",
          "name": "_orderIndex",
          "type": "uint256"
        },
        {
          "internalType": "address",
          "name": "_to",
          "type": "address"
        },
        {
          "internalType": "address payable",
          "name": "_execFeeTo",
          "type": "address"
        }
      ],
      "name": "cancelIncreaseOrder",
      "outputs": [],
      "stateMutability": "nonpayable",
      "type": "function"
    },
    {
      "inputs": [
        {
          "internalType": "address",
          "name": "_collateralToken",
          "type": "address"
        },
        {
          "internalType": "address",
          "name": "_indexToken",
          "type": "address"
        },
        {
          "internalType": "address",
          "name": "_account",
          "type": "address"
        },
        {
          "internalType": "bool",
          "name": "_isLong",
          "type": "bool"
        },
        {
          "internalType": "uint256",
          "name": "_notionalDelta",
          "type": "uint256"
        },
        {
          "internalType": "uint256",
          "name": "_minSizeDelta",
          "type": "uint256"
        },
        {
          "internalType": "uint256",
          "name": "_maxSizeDelta",
          "type": "uint256"
        },
        {
          "internalType": "uint256",
          "name": "_execFee",
          "type": "uint256"
        }
      ],
      "name": "createDecreaseOrder",
      "outputs": [
        {
          "internalType": "uint256",
          "name": "",
          "type": "uint256"
        }
      ],
      "stateMutability": "payable",
      "type": "function"
    },
    {
      "inputs": [
        {
          "internalType": "address",
          "name": "_collateralToken",
          "type": "address"
        },
        {
          "internalType": "address",
          "name": "_indexToken",
          "type": "address"
        },
        {
          "internalType": "address",
          "name": "_account",
          "type": "address"
        },
        {
          "internalType": "bool",
          "name": "_isLong",
          "type": "bool"
        },
        {
          "internalType": "uint256",
          "name": "_notionalDelta",
          "type": "uint256"
        },
        {
          "internalType": "uint256",
          "name": "_sizeDelta",
          "type": "uint256"
        },
        {
          "internalType": "uint256",
          "name": "_execFee",
          "type": "uint256"
        }
      ],
      "name": "createIncreaseOrder",
      "outputs": [
        {
          "internalType": "uint256",
          "name": "",
          "type": "uint256"
        }
      ],
      "stateMutability": "payable",
      "type": "function"
    },
    {
      "inputs": [
        {
          "internalType": "address",
          "name": "account",
          "type": "address"
        },
        {
          "internalType": "uint256",
          "name": "orderIndex",
          "type": "uint256"
        }
      ],
      "name": "decreaseOrderExecable",
      "outputs": [
        {
          "internalType": "bool",
          "name": "",
          "type": "bool"
        }
      ],
      "stateMutability": "view",
      "type": "function"
    },
    {
      "inputs": [
        {
          "internalType": "address",
          "name": "account",
          "type": "address"
        },
        {
          "internalType": "uint256",
          "name": "orderIndex",
          "type": "uint256"
        }
      ],
      "name": "decreaseOrderExists",
      "outputs": [
        {
          "internalType": "bool",
          "name": "",
          "type": "bool"
        }
      ],
      "stateMutability": "view",
      "type": "function"
    },
    {
      "inputs": [
        {
          "internalType": "address",
          "name": "",
          "type": "address"
        }
      ],
      "name": "decreaseOrderIndexes",
      "outputs": [
        {
          "internalType": "uint256",
          "name": "",
          "type": "uint256"
        }
      ],
      "stateMutability": "view",
      "type": "function"
    },
    {
      "inputs": [
        {
          "internalType": "address",
          "name": "",
          "type": "address"
        },
        {
          "internalType": "uint256",
          "name": "",
          "type": "uint256"
        }
      ],
      "name": "decreaseOrders",
      "outputs": [
        {
          "internalType": "address",
          "name": "collateralToken",
          "type": "address"
        },
        {
          "internalType": "address",
          "name": "indexToken",
          "type": "address"
        },
        {
          "internalType": "address",
          "name": "account",
          "type": "address"
        },
        {
          "internalType": "bool",
          "name": "isLong",
          "type": "bool"
        },
        {
          "internalType": "uint256",
          "name": "notionalDelta",
          "type": "uint256"
        },
        {
          "internalType": "uint256",
          "name": "minSizeDelta",
          "type": "uint256"
        },
        {
          "internalType": "uint256",
          "name": "maxSizeDelta",
          "type": "uint256"
        },
        {
          "internalType": "uint256",
          "name": "execFee",
          "type": "uint256"
        }
      ],
      "stateMutability": "view",
      "type": "function"
    },
    {
      "inputs": [
        {
          "internalType": "address",
          "name": "_account",
          "type": "address"
        },
        {
          "internalType": "uint256",
          "name": "_orderIndex",
          "type": "uint256"
        },
        {
          "internalType": "address",
          "name": "_marginTo",
          "type": "address"
        },
        {
          "internalType": "address payable",
          "name": "_execFeeTo",
          "type": "address"
        }
      ],
      "name": "execDecreaseOrder",
      "outputs": [
        {
          "internalType": "uint256",
          "name": "",
          "type": "uint256"
        }
      ],
      "stateMutability": "nonpayable",
      "type": "function"
    },
    {
      "inputs": [
        {
          "internalType": "address",
          "name": "_account",
          "type": "address"
        },
        {
          "internalType": "uint256",
          "name": "_orderIndex",
          "type": "uint256"
        },
        {
          "internalType": "address payable",
          "name": "_execFeeTo",
          "type": "address"
        }
      ],
      "name": "execIncreaseOrder",
      "outputs": [],
      "stateMutability": "nonpayable",
      "type": "function"
    },
    {
      "inputs": [],
      "name": "future",
      "outputs": [
        {
          "internalType": "address",
          "name": "",
          "type": "address"
        }
      ],
      "stateMutability": "view",
      "type": "function"
    },
    {
      "inputs": [
        {
          "internalType": "address",
          "name": "_account",
          "type": "address"
        },
        {
          "internalType": "uint256",
          "name": "_orderIndex",
          "type": "uint256"
        }
      ],
      "name": "getDecreaseOrder",
      "outputs": [
        {
          "internalType": "address",
          "name": "collateralToken",
          "type": "address"
        },
        {
          "internalType": "address",
          "name": "indexToken",
          "type": "address"
        },
        {
          "internalType": "address",
          "name": "account",
          "type": "address"
        },
        {
          "internalType": "bool",
          "name": "isLong",
          "type": "bool"
        },
        {
          "internalType": "uint256",
          "name": "notionalDelta",
          "type": "uint256"
        },
        {
          "internalType": "uint256",
          "name": "minSizeDelta",
          "type": "uint256"
        },
        {
          "internalType": "uint256",
          "name": "maxSizeDelta",
          "type": "uint256"
        },
        {
          "internalType": "uint256",
          "name": "execFee",
          "type": "uint256"
        }
      ],
      "stateMutability": "view",
      "type": "function"
    },
    {
      "inputs": [
        {
          "internalType": "address",
          "name": "_account",
          "type": "address"
        },
        {
          "internalType": "uint256",
          "name": "_orderIndex",
          "type": "uint256"
        }
      ],
      "name": "getDecreaseOrderCollateralToken",
      "outputs": [
        {
          "internalType": "address",
          "name": "collateralToken",
          "type": "address"
        }
      ],
      "stateMutability": "view",
      "type": "function"
    },
    {
      "inputs": [
        {
          "internalType": "address",
          "name": "_account",
          "type": "address"
        },
        {
          "internalType": "uint256",
          "name": "_orderIndex",
          "type": "uint256"
        }
      ],
      "name": "getIncreaseOrder",
      "outputs": [
        {
          "internalType": "address",
          "name": "collateralToken",
          "type": "address"
        },
        {
          "internalType": "address",
          "name": "indexToken",
          "type": "address"
        },
        {
          "internalType": "address",
          "name": "account",
          "type": "address"
        },
        {
          "internalType": "bool",
          "name": "isLong",
          "type": "bool"
        },
        {
          "internalType": "uint256",
          "name": "marginDelta",
          "type": "uint256"
        },
        {
          "internalType": "uint256",
          "name": "notionalDelta",
          "type": "uint256"
        },
        {
          "internalType": "uint256",
          "name": "sizeDelta",
          "type": "uint256"
        },
        {
          "internalType": "uint256",
          "name": "execFee",
          "type": "uint256"
        }
      ],
      "stateMutability": "view",
      "type": "function"
    },
    {
      "inputs": [
        {
          "internalType": "address",
          "name": "_account",
          "type": "address"
        },
        {
          "internalType": "uint256",
          "name": "_orderIndex",
          "type": "uint256"
        }
      ],
      "name": "getIncreaseOrderCollateralToken",
      "outputs": [
        {
          "internalType": "address",
          "name": "collateralToken",
          "type": "address"
        }
      ],
      "stateMutability": "view",
      "type": "function"
    },
    {
      "inputs": [
        {
          "internalType": "address",
          "name": "account",
          "type": "address"
        },
        {
          "internalType": "uint256",
          "name": "orderIndex",
          "type": "uint256"
        }
      ],
      "name": "increaseOrderExecable",
      "outputs": [
        {
          "internalType": "bool",
          "name": "",
          "type": "bool"
        }
      ],
      "stateMutability": "view",
      "type": "function"
    },
    {
      "inputs": [
        {
          "internalType": "address",
          "name": "account",
          "type": "address"
        },
        {
          "internalType": "uint256",
          "name": "orderIndex",
          "type": "uint256"
        }
      ],
      "name": "increaseOrderExists",
      "outputs": [
        {
          "internalType": "bool",
          "name": "",
          "type": "bool"
        }
      ],
      "stateMutability": "view",
      "type": "function"
    },
    {
      "inputs": [
        {
          "internalType": "address",
          "name": "",
          "type": "address"
        }
      ],
      "name": "increaseOrderIndexes",
      "outputs": [
        {
          "internalType": "uint256",
          "name": "",
          "type": "uint256"
        }
      ],
      "stateMutability": "view",
      "type": "function"
    },
    {
      "inputs": [
        {
          "internalType": "address",
          "name": "",
          "type": "address"
        },
        {
          "internalType": "uint256",
          "name": "",
          "type": "uint256"
        }
      ],
      "name": "increaseOrders",
      "outputs": [
        {
          "internalType": "address",
          "name": "collateralToken",
          "type": "address"
        },
        {
          "internalType": "address",
          "name": "indexToken",
          "type": "address"
        },
        {
          "internalType": "address",
          "name": "account",
          "type": "address"
        },
        {
          "internalType": "bool",
          "name": "isLong",
          "type": "bool"
        },
        {
          "internalType": "uint256",
          "name": "marginDelta",
          "type": "uint256"
        },
        {
          "internalType": "uint256",
          "name": "notionalDelta",
          "type": "uint256"
        },
        {
          "internalType": "uint256",
          "name": "sizeDelta",
          "type": "uint256"
        },
        {
          "internalType": "uint256",
          "name": "execFee",
          "type": "uint256"
        }
      ],
      "stateMutability": "view",
      "type": "function"
    },
    {
      "inputs": [],
      "name": "minExecFee",
      "outputs": [
        {
          "internalType": "uint256",
          "name": "",
          "type": "uint256"
        }
      ],
      "stateMutability": "view",
      "type": "function"
    },
    {
      "inputs": [],
      "name": "owner",
      "outputs": [
        {
          "internalType": "address",
          "name": "",
          "type": "address"
        }
      ],
      "stateMutability": "view",
      "type": "function"
    },
    {
      "inputs": [],
      "name": "renounceOwnership",
      "outputs": [],
      "stateMutability": "nonpayable",
      "type": "function"
    },
    {
      "inputs": [
        {
          "internalType": "uint256",
          "name": "_minExecFee",
          "type": "uint256"
        }
      ],
      "name": "setMinExecFee",
      "outputs": [],
      "stateMutability": "nonpayable",
      "type": "function"
    },
    {
      "inputs": [
        {
          "internalType": "address",
          "name": "router",
          "type": "address"
        },
        {
          "internalType": "bool",
          "name": "enable",
          "type": "bool"
        }
      ],
      "name": "setSystemRouter",
      "outputs": [],
      "stateMutability": "nonpayable",
      "type": "function"
    },
    {
      "inputs": [
        {
          "internalType": "address",
          "name": "",
          "type": "address"
        }
      ],
      "name": "systemRouters",
      "outputs": [
        {
          "internalType": "bool",
          "name": "",
          "type": "bool"
        }
      ],
      "stateMutability": "view",
      "type": "function"
    },
    {
      "inputs": [
        {
          "internalType": "address",
          "name": "",
          "type": "address"
        }
      ],
      "name": "tokenBalances",
      "outputs": [
        {
          "internalType": "uint256",
          "name": "",
          "type": "uint256"
        }
      ],
      "stateMutability": "view",
      "type": "function"
    },
    {
      "inputs": [
        {
          "internalType": "address",
          "name": "newOwner",
          "type": "address"
        }
      ],
      "name": "transferOwnership",
      "outputs": [],
      "stateMutability": "nonpayable",
      "type": "function"
    },
    {
      "inputs": [
        {
          "internalType": "address",
          "name": "_account",
          "type": "address"
        },
        {
          "internalType": "uint256",
          "name": "_orderIndex",
          "type": "uint256"
        },
        {
          "internalType": "uint256",
          "name": "_notionalDelta",
          "type": "uint256"
        },
        {
          "internalType": "uint256",
          "name": "_minSizeDelta",
          "type": "uint256"
        },
        {
          "internalType": "uint256",
          "name": "_maxSizeDelta",
          "type": "uint256"
        }
      ],
      "name": "updateDecreaseOrder",
      "outputs": [],
      "stateMutability": "nonpayable",
      "type": "function"
    },
    {
      "inputs": [
        {
          "internalType": "address",
          "name": "_account",
          "type": "address"
        },
        {
          "internalType": "uint256",
          "name": "_orderIndex",
          "type": "uint256"
        },
        {
          "internalType": "uint256",
          "name": "_notionalDelta",
          "type": "uint256"
        },
        {
          "internalType": "uint256",
          "name": "_sizeDelta",
          "type": "uint256"
        }
      ],
      "name": "updateIncreaseOrder",
      "outputs": [],
      "stateMutability": "nonpayable",
      "type": "function"
    },
    {
      "inputs": [
        {
          "internalType": "address",
          "name": "_collateralToken",
          "type": "address"
        },
        {
          "internalType": "address",
          "name": "_indexToken",
          "type": "address"
        },
        {
          "internalType": "address",
          "name": "_account",
          "type": "address"
        },
        {
          "internalType": "bool",
          "name": "_isLong",
          "type": "bool"
        },
        {
          "internalType": "uint256",
          "name": "_notionalDelta",
          "type": "uint256"
        },
        {
          "internalType": "bool",
          "name": "_raise",
          "type": "bool"
        }
      ],
      "name": "validDecreaseOrderNotional",
      "outputs": [
        {
          "internalType": "bool",
          "name": "",
          "type": "bool"
        }
      ],
      "stateMutability": "view",
      "type": "function"
    },
    {
      "inputs": [
        {
          "internalType": "address",
          "name": "_account",
          "type": "address"
        },
        {
          "internalType": "uint256",
          "name": "_orderIndex",
          "type": "uint256"
        },
        {
          "internalType": "bool",
          "name": "_raise",
          "type": "bool"
        }
      ],
      "name": "validateDecreaseOrderPrice",
      "outputs": [
        {
          "internalType": "bool",
          "name": "takeProfitValid",
          "type": "bool"
        },
        {
          "internalType": "bool",
          "name": "stopLossValid",
          "type": "bool"
        }
      ],
      "stateMutability": "view",
      "type": "function"
    },
    {
      "inputs": [
        {
          "internalType": "address",
          "name": "_account",
          "type": "address"
        },
        {
          "internalType": "uint256",
          "name": "_orderIndex",
          "type": "uint256"
        },
        {
          "internalType": "bool",
          "name": "_raise",
          "type": "bool"
        }
      ],
      "name": "validateIncreaseOrderPrice",
      "outputs": [
        {
          "internalType": "bool",
          "name": "",
          "type": "bool"
        }
      ],
      "stateMutability": "view",
      "type": "function"
    }
  ],
  "bytecode": "0x60806040523480156200001157600080fd5b50604051620031b3380380620031b38339810160408190526200003491620000ee565b6200003f336200009e565b60018055600880546001600160a01b0319166001600160a01b03841617905560098190556040518181527ff22c728b8ff46b1f25c6e92361403684ef3a4a41c58f7c9ea6c38b4748ef5c6f9060200160405180910390a150506200012a565b600080546001600160a01b038381166001600160a01b0319831681178455604051919092169283917f8be0079c531659141344cd1fd0a4f28419497f9722a3daafe3b4186f6b6457e09190a35050565b600080604083850312156200010257600080fd5b82516001600160a01b03811681146200011a57600080fd5b6020939093015192949293505050565b613079806200013a6000396000f3fe6080604052600436106101e35760003560e01c80638ca7e7b811610102578063d13bf42511610095578063ed04d93111610064578063ed04d9311461076d578063f2d2e01b1461078d578063f2fde38b14610805578063f60f05a61461082557600080fd5b8063d13bf42514610677578063d3bab1d114610697578063d910f71d14610714578063e54194171461075757600080fd5b8063a2ec258f116100d1578063a2ec258f146105c7578063afbb70b6146105e7578063bf19c63114610614578063c669a8a91461065757600080fd5b80638ca7e7b81461050e5780638da5cb5b1461054557806395036cde14610577578063a0d640b61461059757600080fd5b8063593ba9a31161017a57806373c899c81161014957806373c899c81461049b5780637628674c146104bb57806382fb3027146104ce57806383dcb5c3146104ee57600080fd5b8063593ba9a3146104195780635d82f9261461044657806370b4d67614610466578063715018a61461048657600080fd5b80632b7d6290116101b65780632b7d629014610327578063362037d11461039e5780633fa2b738146103be578063523fba7f146103de57600080fd5b8063026032ee146101e85780630601b874146102b557806313a44517146102d757806319b7de9114610307575b600080fd5b3480156101f457600080fd5b5061026461020336600461294c565b6001600160a01b03918216600090815260036020818152604080842094845293905291902080546001820154600283015493830154600484015460058501546006909501549387169792871696861695600160a01b900460ff169491939092565b604080516001600160a01b03998a168152978916602089015295909716948601949094529115156060850152608084015260a083015260c082015260e0810191909152610100015b60405180910390f35b3480156102c157600080fd5b506102d56102d0366004612978565b610838565b005b3480156102e357600080fd5b506102f76102f236600461294c565b610a2d565b60405190151581526020016102ac565b34801561031357600080fd5b506102d5610322366004612978565b610ae3565b34801561033357600080fd5b5061026461034236600461294c565b6002602081815260009384526040808520909152918352912080546001820154928201546003830154600484015460058501546006909501546001600160a01b039485169685169594841694600160a01b90940460ff16939088565b3480156103aa57600080fd5b506102d56103b93660046129ba565b610d62565b3480156103ca57600080fd5b506102f76103d9366004612a1b565b610f5b565b3480156103ea57600080fd5b5061040b6103f9366004612a94565b60076020526000908152604090205481565b6040519081526020016102ac565b34801561042557600080fd5b5061040b610434366004612a94565b60056020526000908152604090205481565b34801561045257600080fd5b506102d5610461366004612ab1565b611046565b34801561047257600080fd5b5061040b6104813660046129ba565b6111da565b34801561049257600080fd5b506102d56114b5565b3480156104a757600080fd5b506102f76104b6366004612af5565b6114eb565b61040b6104c9366004612b2c565b611630565b3480156104da57600080fd5b506102d56104e9366004612ba3565b611861565b3480156104fa57600080fd5b506102d5610509366004612bde565b6119e6565b34801561051a57600080fd5b5061052e610529366004612af5565b611a4b565b6040805192151583529015156020830152016102ac565b34801561055157600080fd5b506000546001600160a01b03165b6040516001600160a01b0390911681526020016102ac565b34801561058357600080fd5b506102f761059236600461294c565b611bdc565b3480156105a357600080fd5b506102f76105b2366004612a94565b60066020526000908152604090205460ff1681565b3480156105d357600080fd5b5060085461055f906001600160a01b031681565b3480156105f357600080fd5b5061040b610602366004612a94565b60046020526000908152604090205481565b34801561062057600080fd5b5061055f61062f36600461294c565b6001600160a01b03918216600090815260026020908152604080832093835292905220541690565b34801561066357600080fd5b506102f761067236600461294c565b611c15565b34801561068357600080fd5b506102d5610692366004612bf7565b611c4a565b3480156106a357600080fd5b506102646106b236600461294c565b6001600160a01b03918216600090815260026020818152604080842094845293905291902080546001820154928201546003830154600484015460058501546006909501549387169795871696831695600160a01b90930460ff169491939092565b34801561072057600080fd5b5061055f61072f36600461294c565b6001600160a01b03918216600090815260036020908152604080832093835292905220541690565b34801561076357600080fd5b5061040b60095481565b34801561077957600080fd5b506102f761078836600461294c565b611cd7565b34801561079957600080fd5b506102646107a836600461294c565b6003602081815260009384526040808520909152918352912080546001820154600283015493830154600484015460058501546006909501546001600160a01b03948516969385169594841694600160a01b90940460ff16939088565b34801561081157600080fd5b506102d5610820366004612a94565b611d0b565b61040b610833366004612c30565b611da6565b6002600154036108635760405162461bcd60e51b815260040161085a90612cb0565b60405180910390fd5b600260015561087183611fb6565b6001600160a01b03838116600090815260036020818152604080842087855282529283902083516101008101855281548616815260018201548616928101929092526002810154948516938201849052600160a01b90940460ff1615156060820152908301546080820152600483015460a0820152600583015460c082015260069092015460e08301526109049061201d565b6001600160a01b0384166000908152600360208181526040808420878552909152822080546001600160a01b0319908116825560018201805490911690556002810180546001600160a81b031916905590810182905560048101829055600581018290556006015560e081015161097b9083612065565b604080516001600160a01b0386168152602081018590527fecbfe57cb36abd6462ba723f1264a4bfde101ade8ac72aa546b81706a76293d5910160405180910390a180604001516001600160a01b031660008051602061302483398151915282600001518360200151846060015185608001518660a001518760c001518860e001518b600260046000604051610a1b9b9a99989796959493929190612d21565b60405180910390a25050600180555050565b600080610a3a8484611bdc565b905080610a4b576000915050610add565b6001600160a01b0384811660009081526003602081815260408084208885529091528220805460018201546002830154938301549295610aa394928116939181169290811691600160a01b90910460ff169086610f5b565b905080610ab65760009350505050610add565b600080610ac588886000611a4b565b9150915060008280610ad45750815b96505050505050505b92915050565b600260015403610b055760405162461bcd60e51b815260040161085a90612cb0565b600260018181556001600160a01b038581166000908152602084815260408083208884528252918290208251610100810184528154851681529481015484169185019190915293840154918216908301819052600160a01b90910460ff161515606083015260038301546080830152600483015460a0830152600583015460c083015260069092015460e082015290610b9d9061201d565b610ba9848460016114eb565b506001600160a01b038085166000908152600260208181526040808420888552909152822080546001600160a01b03199081168255600182018054909116905590810180546001600160a81b03191690556003810182905560048101829055600581018290556006015581516080830151600854610c27931661207c565b60085481516020830151604080850151606086015160a087015192516336ae299560e21b81526001600160a01b0395861660048201529385166024850152908416604484015215156064830152608482015291169063dab8a6549060a401600060405180830381600087803b158015610c9f57600080fd5b505af1158015610cb3573d6000803e3d6000fd5b50505050610cc58160e0015183612065565b604080516001600160a01b0386168152602081018590527f6dd3b01bc4a4a95cbf24261a085ffa2b5bdbbc95b5b4e78b81c91d1ff89b519e910160405180910390a180604001516001600160a01b031660008051602061300483398151915282600001518360200151846060015185608001518660a001518760c001518860e001518b60036000604051610a1b9a99989796959493929190612da8565b600260015403610d845760405162461bcd60e51b815260040161085a90612cb0565b6002600155610d9284611fb6565b6001600160a01b038481166000908152600260208181526040808420888552825292839020835161010081018552815486168152600182015486169281019290925291820154938416928101839052600160a01b90930460ff161515606084015260038101546080840152600481015460a0840152600581015460c08401526006015460e0830152610e239061201d565b6001600160a01b0385166000908152600260208181526040808420888552909152822080546001600160a01b03199081168255600182018054909116905590810180546001600160a81b03191690556003810182905560048101829055600581018290556006015580516080820151610e9d91908561207c565b610eab8160e0015183612065565b604080516001600160a01b0387168152602081018690527f93a00a0980901e221135628ce2622baac14b4e4bb1de8d558f93ed9aaeb81672910160405180910390a180604001516001600160a01b031660008051602061300483398151915282600001518360200151846060015185608001518660a001518760c001518860e001518c60026004604051610f489a99989796959493929190612da8565b60405180910390a2505060018055505050565b600854604051634a3f088d60e01b81526001600160a01b0388811660048301528781166024830152868116604483015285151560648301526000928392911690634a3f088d90608401608060405180830381865afa158015610fc1573d6000803e3d6000fd5b505050506040513d601f19601f82011682018060405250810190610fe59190612e17565b50909250505083811015831561103a578061103a5760405162461bcd60e51b81526020600482015260156024820152741b9bdd1a5bdb985b17d9195b1d1857d95e18d95959605a1b604482015260640161085a565b98975050505050505050565b6002600154036110685760405162461bcd60e51b815260040161085a90612cb0565b600260015561107685611fb6565b6001600160a01b0380861660009081526003602090815260408083208884529091529020600281015490916110ab911661201d565b805460018201546110cb916001600160a01b039081169116868686612119565b600381018490556004810183905560058101829055604080516001600160a01b0388168152602081018790527fad03e99c98605c954099f3b3063cec145be86e86293c4d7a591c5e8554e15326910160405180910390a18060020160009054906101000a90046001600160a01b03166001600160a01b03166000805160206130248339815191528260000160009054906101000a90046001600160a01b03168360010160009054906101000a90046001600160a01b03168460020160149054906101000a900460ff1685600301548660040154876005015488600601548d6001600360006040516111c69b9a99989796959493929190612d21565b60405180910390a250506001805550505050565b60006002600154036111fe5760405162461bcd60e51b815260040161085a90612cb0565b600260015561120c85611fb6565b6001600160a01b03858116600090815260036020818152604080842089855282529283902083516101008101855281548616815260018201548616928101929092526002810154948516938201849052600160a01b90940460ff1615156060820152908301546080820152600483015460a0820152600583015460c082015260069092015460e083015261129f9061201d565b6112c2816000015182602001518360400151846060015185608001516001610f5b565b506112d18160e0015184612065565b6000806112e088886001611a4b565b91505080156112ee57600191505b506001600160a01b03871660008181526003602081815260408084208b8552825280842080546001600160a01b0319908116825560018201805490911690556002810180546001600160a81b0319169055928301849055600483018490556005830184905560069092019290925580519283529082018890527f902442a5fc1bb400aa2842109231ef4c68a61cb2c79463064ecb0ab2d09f568e910160405180910390a181604001516001600160a01b031660008051602061302483398151915283600001518460200151856060015186608001518760a001518860c001518960e001518e600360008c6040516113ef9b9a99989796959493929190612d21565b60405180910390a26008548251602084015160408086015160608701516080880151925163748b0e1f60e11b81526001600160a01b0395861660048201529385166024850152908416604484015215156064830152608482015287821660a4820152600092919091169063e9161c3e9060c4016020604051808303816000875af1158015611481573d6000803e3d6000fd5b505050506040513d601f19601f820116820180604052508101906114a59190612e4d565b6001805598975050505050505050565b6000546001600160a01b031633146114df5760405162461bcd60e51b815260040161085a90612e66565b6114e9600061227f565b565b6001600160a01b03808416600090815260026020818152604080842087855290915282209081015491929091611521911661201d565b6008548154600480840154600185015460405163846a5cbd60e01b81526000956001600160a01b039081169563846a5cbd9561156895918316949193919092169101612e9b565b602060405180830381865afa158015611585573d6000803e3d6000fd5b505050506040513d601f19601f820116820180604052508101906115a99190612e4d565b6002830154909150600090600160a01b900460ff16156115d1575060058201548110156115db565b5060058201548111155b841561162457806116245760405162461bcd60e51b81526020600482015260136024820152721c1c9a58d957db9bdd17dd1c9a59d9d95c9959606a1b604482015260640161085a565b925050505b9392505050565b60006002600154036116545760405162461bcd60e51b815260040161085a90612cb0565b600260015561166286611fb6565b61166e888860016122cf565b50611678826123a5565b60006116838961242a565b905061169289898888886124ce565b6001600160a01b03808816600081815260046020908152604091829020548251610100810184528e86168152948d16918501919091529083019190915287151560608301526080820183905260a0820187905260c0820186905260e08201859052906116ff826001612ed4565b6001600160a01b038a81166000818152600460208181526040808420969096556002808252868420898552825292869020875181549087166001600160a01b0319918216178255888301516001830180549189169190921617905587870151938101805460608a01511515600160a01b026001600160a81b03199091169590971694909417959095179092556080860151600385015560a08601519084015560c0850151600584015560e085015160069093019290925582519081529081018490527f4c78e9b9f5fd2a94cbf00bd21bdb6f4e19db7e61701ccc207d800805de12d8d9910160405180910390a180604001516001600160a01b031660008051602061300483398151915282600001518360200151846060015185608001518660a001518760c001518860e001518a600060036040516118479a99989796959493929190612da8565b60405180910390a250600180559998505050505050505050565b6002600154036118835760405162461bcd60e51b815260040161085a90612cb0565b600260015561189184611fb6565b6001600160a01b0380851660009081526002602081815260408084208885529091529091209081015490916118c6911661201d565b6004810183905560058101829055805460018201546002830154611903926001600160a01b03908116921690600160a01b900460ff1686866124ce565b604080516001600160a01b0387168152602081018690527f7c41b7a8a88c66e397222f92991ee5fc1f01405b173ccacea8741ec6f08c9057910160405180910390a18060020160009054906101000a90046001600160a01b03166001600160a01b03166000805160206130048339815191528260000160009054906101000a90046001600160a01b03168360010160009054906101000a90046001600160a01b03168460020160149054906101000a900460ff1685600301548660040154876005015488600601548c60016003604051610f489a99989796959493929190612da8565b6000546001600160a01b03163314611a105760405162461bcd60e51b815260040161085a90612e66565b60098190556040518181527ff22c728b8ff46b1f25c6e92361403684ef3a4a41c58f7c9ea6c38b4748ef5c6f9060200160405180910390a150565b6001600160a01b0380841660009081526003602090815260408083208684529091528120600281015491928392611a82911661201d565b60085481546003830154600184015460405163846a5cbd60e01b81526000946001600160a01b039081169463846a5cbd94611ac99491831693909290911690600401612e9b565b602060405180830381865afa158015611ae6573d6000803e3d6000fd5b505050506040513d601f19601f82011682018060405250810190611b0a9190612e4d565b6002830154909150600160a01b900460ff1615611b5057600482015415611b3657816004015481111593505b600582015415611b4b57816005015481101592505b611b7a565b600482015415611b6557816004015481111592505b600582015415611b7a57816005015481101593505b848015611b85575083155b8015611b8f575082155b15611bd25760405162461bcd60e51b81526020600482015260136024820152721c1c9a58d957db9bdd17dd1c9a59d9d95c9959606a1b604482015260640161085a565b5050935093915050565b6001600160a01b03828116600090815260036020908152604080832085845290915281206002810154919290911615155b949350505050565b600080611c228484611cd7565b905080611c33576000915050610add565b6000611c41858560006114eb565b95945050505050565b6000546001600160a01b03163314611c745760405162461bcd60e51b815260040161085a90612e66565b6001600160a01b038216600081815260066020908152604091829020805460ff19168515159081179091558251938452908301527f84abaec3900761151997262cf893a28228a0d8e8ecb7fe255e0dac6d0106b4f6910160405180910390a15050565b6001600160a01b03828116600090815260026020818152604080842086855290915282209081015491929091161515611c0d565b6000546001600160a01b03163314611d355760405162461bcd60e51b815260040161085a90612e66565b6001600160a01b038116611d9a5760405162461bcd60e51b815260206004820152602660248201527f4f776e61626c653a206e6577206f776e657220697320746865207a65726f206160448201526564647265737360d01b606482015260840161085a565b611da38161227f565b50565b6000600260015403611dca5760405162461bcd60e51b815260040161085a90612cb0565b6002600155611dd887611fb6565b611de4898960016122cf565b50611dee826123a5565b611dfb8989878787612119565b6001600160a01b03808816600081815260056020908152604091829020548251610100810184528e86168152948d16918501919091529083019190915287151560608301526080820187905260a0820186905260c0820185905260e0820184905290611e68826001612ed4565b6001600160a01b038a81166000818152600560208181526040808420969096556003808252868420898552825292869020875181549087166001600160a01b031991821617825588830151600183018054918916919092161790558787015160028201805460608b01511515600160a01b026001600160a81b031990911692909816919091179690961790955560808701519285019290925560a0860151600485015560c08601519084015560e085015160069093019290925582519081529081018490527fc8cbc2ce6f0510dd41d90c21318960f764c8c58bed5d994a53ba43dcc8bc8c8c910160405180910390a180604001516001600160a01b031660008051602061302483398151915282600001518360200151846060015185608001518660a001518760c001518860e001518a6000600360006040516118479b9a99989796959493929190612d21565b6001600160a01b0381163303611fc95750565b3360009081526006602052604090205460ff1615611fe45750565b60405162461bcd60e51b815260206004820152600e60248201526d34b73b30b634b22fb937baba32b960911b604482015260640161085a565b6001600160a01b038116611da35760405162461bcd60e51b815260206004820152600f60248201526e3737b72fb2bc34b9ba2fb7b93232b960891b604482015260640161085a565b6120786001600160a01b038216836125f8565b5050565b6120906001600160a01b0384168284612716565b6040516370a0823160e01b81523060048201526001600160a01b038416906370a0823190602401602060405180830381865afa1580156120d4573d6000803e3d6000fd5b505050506040513d601f19601f820116820180604052508101906120f89190612e4d565b6001600160a01b039093166000908152600760205260409020929092555050565b600083116121625760405162461bcd60e51b8152602060048201526016602482015275696e76616c69645f6e6f74696f6e616c5f64656c746160501b604482015260640161085a565b60085460405163846a5cbd60e01b81526000916001600160a01b03169063846a5cbd9061219790899088908a90600401612e9b565b602060405180830381865afa1580156121b4573d6000803e3d6000fd5b505050506040513d601f19601f820116820180604052508101906121d89190612e4d565b905060008311806121e95750600082115b6122055760405162461bcd60e51b815260040161085a90612ee7565b6000831180156122155750600082115b15612239578183106122395760405162461bcd60e51b815260040161085a90612ee7565b8083106122585760405162461bcd60e51b815260040161085a90612f13565b8082116122775760405162461bcd60e51b815260040161085a90612f13565b505050505050565b600080546001600160a01b038381166001600160a01b0319831681178455604051919092169283917f8be0079c531659141344cd1fd0a4f28419497f9722a3daafe3b4186f6b6457e09190a35050565b600854604051630bceb54f60e31b81526001600160a01b03858116600483015284811660248301526000928392911690635e75aa7890604401602060405180830381865afa158015612325573d6000803e3d6000fd5b505050506040513d601f19601f820116820180604052508101906123499190612f3f565b90506000600182600381111561236157612361612ce7565b1490508315611c415780611c415760405162461bcd60e51b815260206004820152600b60248201526a1c185a5c97dd5b9b1a5cdd60aa1b604482015260640161085a565b8034146123e95760405162461bcd60e51b8152602060048201526012602482015271696e636f72726563745f657865635f66656560701b604482015260640161085a565b600954811015611da35760405162461bcd60e51b815260206004820152600c60248201526b6c6f775f657865635f66656560a01b604482015260640161085a565b6001600160a01b0381166000818152600760205260408082205490516370a0823160e01b8152306004820152919290918391906370a0823190602401602060405180830381865afa158015612483573d6000803e3d6000fd5b505050506040513d601f19601f820116820180604052508101906124a79190612e4d565b6001600160a01b03851660009081526007602052604090208190559050611c0d8282612f60565b600082116125175760405162461bcd60e51b8152602060048201526016602482015275696e76616c69645f6e6f74696f6e616c5f64656c746160501b604482015260640161085a565b600081116125375760405162461bcd60e51b815260040161085a90612ee7565b60085460405163846a5cbd60e01b81526000916001600160a01b03169063846a5cbd9061256c90899087908a90600401612e9b565b602060405180830381865afa158015612589573d6000803e3d6000fd5b505050506040513d601f19601f820116820180604052508101906125ad9190612e4d565b905083156125d9578082116125d45760405162461bcd60e51b815260040161085a90612f13565b612277565b8082106122775760405162461bcd60e51b815260040161085a90612f13565b804710156126485760405162461bcd60e51b815260206004820152601d60248201527f416464726573733a20696e73756666696369656e742062616c616e6365000000604482015260640161085a565b6000826001600160a01b03168260405160006040518083038185875af1925050503d8060008114612695576040519150601f19603f3d011682016040523d82523d6000602084013e61269a565b606091505b50509050806127115760405162461bcd60e51b815260206004820152603a60248201527f416464726573733a20756e61626c6520746f2073656e642076616c75652c207260448201527f6563697069656e74206d61792068617665207265766572746564000000000000606482015260840161085a565b505050565b604080516001600160a01b03848116602483015260448083018590528351808403909101815260649092018352602080830180516001600160e01b031663a9059cbb60e01b17905283518085019094528084527f5361666545524332303a206c6f772d6c6576656c2063616c6c206661696c656490840152612711928692916000916127a6918516908490612823565b80519091501561271157808060200190518101906127c49190612f73565b6127115760405162461bcd60e51b815260206004820152602a60248201527f5361666545524332303a204552433230206f7065726174696f6e20646964206e6044820152691bdd081cdd58d8d9595960b21b606482015260840161085a565b6060611c0d8484600085856001600160a01b0385163b6128855760405162461bcd60e51b815260206004820152601d60248201527f416464726573733a2063616c6c20746f206e6f6e2d636f6e7472616374000000604482015260640161085a565b600080866001600160a01b031685876040516128a19190612fb4565b60006040518083038185875af1925050503d80600081146128de576040519150601f19603f3d011682016040523d82523d6000602084013e6128e3565b606091505b50915091506128f38282866128fe565b979650505050505050565b6060831561290d575081611629565b82511561291d5782518084602001fd5b8160405162461bcd60e51b815260040161085a9190612fd0565b6001600160a01b0381168114611da357600080fd5b6000806040838503121561295f57600080fd5b823561296a81612937565b946020939093013593505050565b60008060006060848603121561298d57600080fd5b833561299881612937565b92506020840135915060408401356129af81612937565b809150509250925092565b600080600080608085870312156129d057600080fd5b84356129db81612937565b93506020850135925060408501356129f281612937565b91506060850135612a0281612937565b939692955090935050565b8015158114611da357600080fd5b60008060008060008060c08789031215612a3457600080fd5b8635612a3f81612937565b95506020870135612a4f81612937565b94506040870135612a5f81612937565b93506060870135612a6f81612a0d565b92506080870135915060a0870135612a8681612a0d565b809150509295509295509295565b600060208284031215612aa657600080fd5b813561162981612937565b600080600080600060a08688031215612ac957600080fd5b8535612ad481612937565b97602087013597506040870135966060810135965060800135945092505050565b600080600060608486031215612b0a57600080fd5b8335612b1581612937565b92506020840135915060408401356129af81612a0d565b600080600080600080600060e0888a031215612b4757600080fd5b8735612b5281612937565b96506020880135612b6281612937565b95506040880135612b7281612937565b94506060880135612b8281612a0d565b9699959850939660808101359560a0820135955060c0909101359350915050565b60008060008060808587031215612bb957600080fd5b8435612bc481612937565b966020860135965060408601359560600135945092505050565b600060208284031215612bf057600080fd5b5035919050565b60008060408385031215612c0a57600080fd5b8235612c1581612937565b91506020830135612c2581612a0d565b809150509250929050565b600080600080600080600080610100898b031215612c4d57600080fd5b8835612c5881612937565b97506020890135612c6881612937565b96506040890135612c7881612937565b95506060890135612c8881612a0d565b979a969950949760808101359660a0820135965060c0820135955060e0909101359350915050565b6020808252601f908201527f5265656e7472616e637947756172643a207265656e7472616e742063616c6c00604082015260600190565b634e487b7160e01b600052602160045260246000fd5b60048110612d0d57612d0d612ce7565b9052565b60058110612d0d57612d0d612ce7565b6001600160a01b038c811682528b1660208201528915156040820152606081018990526080810188905260a0810187905260c0810186905260e081018590526101608101612d73610100830186612cfd565b612d81610120830185612d11565b60028310612d9157612d91612ce7565b826101408301529c9b505050505050505050505050565b6001600160a01b038b811682528a1660208201528815156040820152606081018890526080810187905260a0810186905260c0810185905260e081018490526101408101612dfa610100830185612cfd565b612e08610120830184612d11565b9b9a5050505050505050505050565b60008060008060808587031215612e2d57600080fd5b505082516020840151604085015160609095015191969095509092509050565b600060208284031215612e5f57600080fd5b5051919050565b6020808252818101527f4f776e61626c653a2063616c6c6572206973206e6f7420746865206f776e6572604082015260600190565b6001600160a01b0393841681526020810192909252909116604082015260600190565b634e487b7160e01b600052601160045260246000fd5b80820180821115610add57610add612ebe565b602080825260129082015271696e76616c69645f73697a655f64656c746160701b604082015260600190565b602080825260129082015271696e76616c69645f6f70656e5f707269636560701b604082015260600190565b600060208284031215612f5157600080fd5b81516004811061162957600080fd5b81810381811115610add57610add612ebe565b600060208284031215612f8557600080fd5b815161162981612a0d565b60005b83811015612fab578181015183820152602001612f93565b50506000910152565b60008251612fc6818460208701612f90565b9190910192915050565b6020815260008251806020840152612fef816040850160208701612f90565b601f01601f1916919091016040019291505056fe4db0d8e3cdfaa4c7a22ff207a6925dbce1bb3ba9462ff99bd743ba03845f2332f28860304534f31292988a912d512a63c8dc9bf0b887d4dfcc9711f4f423ae4ea264697066735822122076852cd08e4960912221bfc68d34b6149d69eac5cd955b77f3aa840d02ab885c64736f6c63430008110033",
  "linkReferences": {},
  "deployedLinkReferences": {}
}