{
  "_format": "hh-sol-artifact-1",
  "contractName": "Stake",
  "sourceName": "contracts/stake/Stake.sol",
  "abi": [
    {
      "anonymous": false,
      "inputs": [
        {
          "indexed": true,
          "internalType": "address",
          "name": "user",
          "type": "address"
        },
        {
          "indexed": true,
          "internalType": "address",
          "name": "lpToken",
          "type": "address"
        },
        {
          "indexed": false,
          "internalType": "uint256",
          "name": "amount",
          "type": "uint256"
        }
      ],
      "name": "Deposit",
      "type": "event"
    },
    {
      "anonymous": false,
      "inputs": [
        {
          "indexed": true,
          "internalType": "address",
          "name": "user",
          "type": "address"
        },
        {
          "indexed": true,
          "internalType": "address",
          "name": "lpToken",
          "type": "address"
        },
        {
          "indexed": false,
          "internalType": "uint256",
          "name": "amount",
          "type": "uint256"
        }
      ],
      "name": "EmergencyWithdraw",
      "type": "event"
    },
    {
      "anonymous": false,
      "inputs": [
        {
          "indexed": true,
          "internalType": "address",
          "name": "previousOwner",
          "type": "address"
        },
        {
          "indexed": true,
          "internalType": "address",
          "name": "newOwner",
          "type": "address"
        }
      ],
      "name": "OwnershipTransferred",
      "type": "event"
    },
    {
      "anonymous": false,
      "inputs": [
        {
          "indexed": true,
          "internalType": "address",
          "name": "user",
          "type": "address"
        },
        {
          "indexed": true,
          "internalType": "address",
          "name": "lpToken",
          "type": "address"
        },
        {
          "indexed": false,
          "internalType": "uint256",
          "name": "amount",
          "type": "uint256"
        }
      ],
      "name": "Withdraw",
      "type": "event"
    },
    {
      "inputs": [
        {
          "internalType": "address",
          "name": "_lpToken",
          "type": "address"
        },
        {
          "internalType": "address[]",
          "name": "tokenList",
          "type": "address[]"
        },
        {
          "internalType": "uint256[]",
          "name": "amountList",
          "type": "uint256[]"
        }
      ],
      "name": "addRevenue",
      "outputs": [],
      "stateMutability": "nonpayable",
      "type": "function"
    },
    {
      "inputs": [
        {
          "internalType": "address",
          "name": "_lpToken",
          "type": "address"
        },
        {
          "internalType": "address",
          "name": "_token",
          "type": "address"
        }
      ],
      "name": "addRevenueToken",
      "outputs": [],
      "stateMutability": "nonpayable",
      "type": "function"
    },
    {
      "inputs": [
        {
          "internalType": "address",
          "name": "_rewardToken",
          "type": "address"
        },
        {
          "internalType": "address",
          "name": "_lpToken",
          "type": "address"
        },
        {
          "internalType": "uint256",
          "name": "_rewardPerSecond",
          "type": "uint256"
        },
        {
          "internalType": "uint256",
          "name": "_startTime",
          "type": "uint256"
        },
        {
          "internalType": "uint256",
          "name": "_deltaTime",
          "type": "uint256"
        }
      ],
      "name": "addToken",
      "outputs": [],
      "stateMutability": "nonpayable",
      "type": "function"
    },
    {
      "inputs": [
        {
          "internalType": "address",
          "name": "_lpToken",
          "type": "address"
        },
        {
          "internalType": "uint256",
          "name": "_amount",
          "type": "uint256"
        }
      ],
      "name": "deposit",
      "outputs": [],
      "stateMutability": "nonpayable",
      "type": "function"
    },
    {
      "inputs": [
        {
          "internalType": "address",
          "name": "account",
          "type": "address"
        },
        {
          "internalType": "address",
          "name": "_lpToken",
          "type": "address"
        }
      ],
      "name": "getAccountRevenueInfo",
      "outputs": [
        {
          "internalType": "uint256",
          "name": "",
          "type": "uint256"
        },
        {
          "internalType": "uint256",
          "name": "",
          "type": "uint256"
        },
        {
          "internalType": "uint256",
          "name": "",
          "type": "uint256"
        },
        {
          "internalType": "uint256",
          "name": "",
          "type": "uint256"
        },
        {
          "internalType": "uint8[]",
          "name": "",
          "type": "uint8[]"
        },
        {
          "internalType": "address[]",
          "name": "",
          "type": "address[]"
        },
        {
          "internalType": "uint256[]",
          "name": "",
          "type": "uint256[]"
        }
      ],
      "stateMutability": "view",
      "type": "function"
    },
    {
      "inputs": [],
      "name": "getPoolsKeyList",
      "outputs": [
        {
          "internalType": "address[]",
          "name": "",
          "type": "address[]"
        }
      ],
      "stateMutability": "view",
      "type": "function"
    },
    {
      "inputs": [
        {
          "internalType": "address",
          "name": "_lpToken",
          "type": "address"
        }
      ],
      "name": "getTotalReward",
      "outputs": [
        {
          "internalType": "uint256",
          "name": "",
          "type": "uint256"
        }
      ],
      "stateMutability": "view",
      "type": "function"
    },
    {
      "inputs": [],
      "name": "owner",
      "outputs": [
        {
          "internalType": "address",
          "name": "",
          "type": "address"
        }
      ],
      "stateMutability": "view",
      "type": "function"
    },
    {
      "inputs": [
        {
          "internalType": "address",
          "name": "_lpToken",
          "type": "address"
        },
        {
          "internalType": "address",
          "name": "_user",
          "type": "address"
        }
      ],
      "name": "pending",
      "outputs": [
        {
          "internalType": "uint256",
          "name": "",
          "type": "uint256"
        },
        {
          "internalType": "uint256",
          "name": "",
          "type": "uint256"
        },
        {
          "internalType": "uint256",
          "name": "",
          "type": "uint256"
        },
        {
          "internalType": "uint256",
          "name": "",
          "type": "uint256"
        },
        {
          "internalType": "address",
          "name": "",
          "type": "address"
        }
      ],
      "stateMutability": "view",
      "type": "function"
    },
    {
      "inputs": [
        {
          "internalType": "address",
          "name": "",
          "type": "address"
        }
      ],
      "name": "pools",
      "outputs": [
        {
          "internalType": "contract IERC20",
          "name": "rewardToken",
          "type": "address"
        },
        {
          "internalType": "contract IERC20",
          "name": "lpToken",
          "type": "address"
        },
        {
          "internalType": "uint256",
          "name": "lastRewardTime",
          "type": "uint256"
        },
        {
          "internalType": "uint256",
          "name": "accERC20PerShare",
          "type": "uint256"
        },
        {
          "internalType": "uint256",
          "name": "paidOut",
          "type": "uint256"
        },
        {
          "internalType": "uint256",
          "name": "rewardPerSecond",
          "type": "uint256"
        },
        {
          "internalType": "uint256",
          "name": "totalReward",
          "type": "uint256"
        },
        {
          "internalType": "uint256",
          "name": "startTime",
          "type": "uint256"
        },
        {
          "internalType": "uint256",
          "name": "endTime",
          "type": "uint256"
        }
      ],
      "stateMutability": "view",
      "type": "function"
    },
    {
      "inputs": [
        {
          "internalType": "uint256",
          "name": "",
          "type": "uint256"
        }
      ],
      "name": "poolsKeyList",
      "outputs": [
        {
          "internalType": "address",
          "name": "",
          "type": "address"
        }
      ],
      "stateMutability": "view",
      "type": "function"
    },
    {
      "inputs": [],
      "name": "renounceOwnership",
      "outputs": [],
      "stateMutability": "nonpayable",
      "type": "function"
    },
    {
      "inputs": [
        {
          "internalType": "address",
          "name": "",
          "type": "address"
        },
        {
          "internalType": "uint256",
          "name": "",
          "type": "uint256"
        }
      ],
      "name": "revenueInfoList",
      "outputs": [
        {
          "internalType": "address",
          "name": "",
          "type": "address"
        }
      ],
      "stateMutability": "view",
      "type": "function"
    },
    {
      "inputs": [
        {
          "internalType": "address",
          "name": "",
          "type": "address"
        },
        {
          "internalType": "address",
          "name": "",
          "type": "address"
        }
      ],
      "name": "revenueInfoMap",
      "outputs": [
        {
          "internalType": "contract IERC20",
          "name": "rewardToken",
          "type": "address"
        },
        {
          "internalType": "uint256",
          "name": "paidOut",
          "type": "uint256"
        },
        {
          "internalType": "uint256",
          "name": "totalReward",
          "type": "uint256"
        }
      ],
      "stateMutability": "view",
      "type": "function"
    },
    {
      "inputs": [
        {
          "internalType": "address",
          "name": "",
          "type": "address"
        },
        {
          "internalType": "uint256",
          "name": "",
          "type": "uint256"
        },
        {
          "internalType": "address",
          "name": "",
          "type": "address"
        }
      ],
      "name": "revenueTimeline",
      "outputs": [
        {
          "internalType": "uint256",
          "name": "reward",
          "type": "uint256"
        },
        {
          "internalType": "uint256",
          "name": "supply",
          "type": "uint256"
        }
      ],
      "stateMutability": "view",
      "type": "function"
    },
    {
      "inputs": [
        {
          "internalType": "address",
          "name": "",
          "type": "address"
        },
        {
          "internalType": "uint256",
          "name": "",
          "type": "uint256"
        }
      ],
      "name": "revenueTimelineIndexList",
      "outputs": [
        {
          "internalType": "uint256",
          "name": "",
          "type": "uint256"
        }
      ],
      "stateMutability": "view",
      "type": "function"
    },
    {
      "inputs": [
        {
          "internalType": "address",
          "name": "_lpToken",
          "type": "address"
        },
        {
          "internalType": "uint256",
          "name": "_rewardPerSecond",
          "type": "uint256"
        },
        {
          "internalType": "uint256",
          "name": "_endTime",
          "type": "uint256"
        }
      ],
      "name": "setPoolInfo",
      "outputs": [],
      "stateMutability": "nonpayable",
      "type": "function"
    },
    {
      "inputs": [
        {
          "internalType": "address",
          "name": "",
          "type": "address"
        }
      ],
      "name": "stakeBpAmount",
      "outputs": [
        {
          "internalType": "uint256",
          "name": "",
          "type": "uint256"
        }
      ],
      "stateMutability": "view",
      "type": "function"
    },
    {
      "inputs": [
        {
          "internalType": "address",
          "name": "",
          "type": "address"
        }
      ],
      "name": "stakeLastBpTime",
      "outputs": [
        {
          "internalType": "uint256",
          "name": "",
          "type": "uint256"
        }
      ],
      "stateMutability": "view",
      "type": "function"
    },
    {
      "inputs": [
        {
          "internalType": "address",
          "name": "",
          "type": "address"
        }
      ],
      "name": "stakeTokenAmount",
      "outputs": [
        {
          "internalType": "uint256",
          "name": "",
          "type": "uint256"
        }
      ],
      "stateMutability": "view",
      "type": "function"
    },
    {
      "inputs": [
        {
          "internalType": "address",
          "name": "",
          "type": "address"
        }
      ],
      "name": "stakeTokenDecimal",
      "outputs": [
        {
          "internalType": "uint8",
          "name": "",
          "type": "uint8"
        }
      ],
      "stateMutability": "view",
      "type": "function"
    },
    {
      "inputs": [
        {
          "internalType": "address",
          "name": "newOwner",
          "type": "address"
        }
      ],
      "name": "transferOwnership",
      "outputs": [],
      "stateMutability": "nonpayable",
      "type": "function"
    },
    {
      "inputs": [
        {
          "internalType": "address",
          "name": "_lpToken",
          "type": "address"
        }
      ],
      "name": "updatePool",
      "outputs": [],
      "stateMutability": "nonpayable",
      "type": "function"
    },
    {
      "inputs": [
        {
          "internalType": "address",
          "name": "",
          "type": "address"
        },
        {
          "internalType": "address",
          "name": "",
          "type": "address"
        }
      ],
      "name": "userInfo",
      "outputs": [
        {
          "internalType": "uint256",
          "name": "amount",
          "type": "uint256"
        },
        {
          "internalType": "uint256",
          "name": "rewardDebt",
          "type": "uint256"
        },
        {
          "internalType": "address",
          "name": "user",
          "type": "address"
        },
        {
          "internalType": "uint256",
          "name": "bp",
          "type": "uint256"
        },
        {
          "internalType": "uint256",
          "name": "tempAmount",
          "type": "uint256"
        },
        {
          "internalType": "uint256",
          "name": "lastIndex",
          "type": "uint256"
        }
      ],
      "stateMutability": "view",
      "type": "function"
    },
    {
      "inputs": [
        {
          "internalType": "address",
          "name": "",
          "type": "address"
        },
        {
          "internalType": "address",
          "name": "",
          "type": "address"
        },
        {
          "internalType": "uint256",
          "name": "",
          "type": "uint256"
        }
      ],
      "name": "userOpTimeline",
      "outputs": [
        {
          "internalType": "enum Stake.EnumUserOp",
          "name": "op",
          "type": "uint8"
        },
        {
          "internalType": "uint256",
          "name": "amount",
          "type": "uint256"
        },
        {
          "internalType": "uint256",
          "name": "timestamp",
          "type": "uint256"
        }
      ],
      "stateMutability": "view",
      "type": "function"
    },
    {
      "inputs": [
        {
          "internalType": "address",
          "name": "_lpToken",
          "type": "address"
        },
        {
          "internalType": "uint256",
          "name": "_amount",
          "type": "uint256"
        }
      ],
      "name": "withdraw",
      "outputs": [],
      "stateMutability": "nonpayable",
      "type": "function"
    },
    {
      "inputs": [
        {
          "internalType": "address",
          "name": "_lpToken",
          "type": "address"
        }
      ],
      "name": "withdrawAccountRevenue",
      "outputs": [],
      "stateMutability": "nonpayable",
      "type": "function"
    },
    {
      "inputs": [
        {
          "internalType": "address",
          "name": "_lpToken",
          "type": "address"
        }
      ],
      "name": "withdrawReward",
      "outputs": [],
      "stateMutability": "nonpayable",
      "type": "function"
    }
  ],
  "bytecode": "0x60806040523480156200001157600080fd5b506200001d3362000023565b62000073565b600080546001600160a01b038381166001600160a01b0319831681178455604051919092169283917f8be0079c531659141344cd1fd0a4f28419497f9722a3daafe3b4186f6b6457e09190a35050565b613e1380620000836000396000f3fe608060405234801561001057600080fd5b50600436106101c45760003560e01c806389d9ae70116100f9578063e4bd940c11610097578063f2fde38b11610071578063f2fde38b146105a5578063f3fef3a3146105b8578063f71f8c1a146105cb578063fcbf179e1461061857600080fd5b8063e4bd940c1461055b578063ed357dcd1461057d578063f19d4a891461059257600080fd5b8063a4063dbc116100d3578063a4063dbc1461046d578063a9e6a54c14610522578063b86e321c14610535578063c901b7151461054857600080fd5b806389d9ae70146104295780638da5cb5b1461043c5780639984e04d1461044d57600080fd5b806347e7ef2411610166578063715018a611610140578063715018a6146103d55780637367da5a146103dd5780637b46c54f14610403578063876ca9851461041657600080fd5b806347e7ef24146103775780636edee0751461038a57806370e46bf5146103aa57600080fd5b806319bc9ae8116101a257806319bc9ae8146102a457806334381749146102e857806334a913f0146102fb57806340b0542d1461036457600080fd5b806306b7116a146101c95780630ba3d03c146101fc5780630f208beb14610211575b600080fd5b6101e96101d73660046136e0565b600c6020526000908152604090205481565b6040519081526020015b60405180910390f35b61020f61020a3660046137d1565b61064d565b005b61026961021f3660046138a3565b60036020818152600093845260408085209091529183529120805460018201546002830154938301546004840154600590940154929491936001600160a01b039092169290919086565b6040805196875260208701959095526001600160a01b03909316938501939093526060840152608083019190915260a082015260c0016101f3565b6102b76102b23660046138a3565b610a28565b6040805195865260208601949094529284019190915260608301526001600160a01b0316608082015260a0016101f3565b6101e96102f63660046136e0565b610cb7565b61033f6103093660046138a3565b60046020908152600092835260408084209091529082529020805460018201546002909201546001600160a01b03909116919083565b604080516001600160a01b0390941684526020840192909252908201526060016101f3565b61020f6103723660046138a3565b610e31565b61020f6103853660046138d6565b611131565b6101e96103983660046136e0565b600a6020526000908152604090205481565b6103bd6103b83660046138d6565b6114d9565b6040516001600160a01b0390911681526020016101f3565b61020f611511565b6103f06103eb3660046138a3565b611547565b6040516101f39796959493929190613974565b61020f6104113660046136e0565b6122e3565b61020f610424366004613a03565b612434565b6103bd610437366004613a50565b612576565b6000546001600160a01b03166103bd565b6101e961045b3660046136e0565b600b6020526000908152604090205481565b6104d361047b3660046136e0565b60016020819052600091825260409091208054918101546002820154600383015460048401546005850154600686015460078701546008909701546001600160a01b0398891698909616969495939492939192909189565b604080516001600160a01b039a8b1681529990981660208a0152968801959095526060870193909352608086019190915260a085015260c084015260e0830152610100820152610120016101f3565b6101e96105303660046138d6565b6125a0565b61020f6105433660046136e0565b6125d1565b61020f610556366004613a69565b6126e2565b61056e610569366004613a9c565b6127a0565b6040516101f393929190613aee565b6105856127f4565b6040516101f39190613b24565b61020f6105a03660046136e0565b6128c0565b61020f6105b33660046136e0565b612f2d565b61020f6105c63660046138d6565b612fc8565b6106036105d9366004613b37565b60066020908152600093845260408085208252928452828420905282529020805460019091015482565b604080519283526020830191909152016101f3565b61063b6106263660046136e0565b60096020526000908152604090205460ff1681565b60405160ff90911681526020016101f3565b6001600160a01b03831660008181526003602090815260408083203384528252808320938352600c909152902054849190429015610746576001600160a01b0383166000908152600c60205260408120546106a89083613b89565b6001600160a01b0385166000908152600a60205260408120549192509064e8d4a5100090617bdd906106db908590613b9c565b6106e59190613b9c565b6106ef9190613bb3565b6001600160a01b0386166000908152600b602052604081208054929350839290919061071c908490613bd5565b90915550508015610743576001600160a01b0385166000908152600c602052604090208390555b50505b6000546001600160a01b031633146107795760405162461bcd60e51b815260040161077090613be8565b60405180910390fd5b6001600160a01b03808716600081815260016020819052604090912090810154909216146107b95760405162461bcd60e51b815260040161077090613c1d565b845186511461080a5760405162461bcd60e51b815260206004820152601760248201527f746f6b656e4c69737420657120616d6f756e744c6973740000000000000000006044820152606401610770565b4260005b87518110156109f257600088828151811061082b5761082b613c49565b60200260200101519050600088838151811061084957610849613c49565b60200260200101519050600081116108955760405162461bcd60e51b815260206004820152600f60248201526e0616464526576656e7565206774203608c1b6044820152606401610770565b6001600160a01b03808c16600090815260046020908152604080832086851680855292529091208054909216146109075760405162461bcd60e51b8152602060048201526016602482015275726576656e7565496e666f206e6f742065786973747360501b6044820152606401610770565b6001600160a01b038c166000908152600b6020908152604080832054600a9092528220546109359190613bd5565b9050600081116109785760405162461bcd60e51b815260206004820152600e60248201526d37379039ba30b5b2903a37b5b2b760911b6044820152606401610770565b6001600160a01b03808e1660009081526006602090815260408083208a8452825280832093881680845293909152902084815560018101839055906109bf90333087613346565b838360020160008282546109d39190613bd5565b92505081905550505050505080806109ea90613c5f565b91505061080e565b506001600160a01b0390971660009081526007602090815260408220805460018101825590835291200196909655505050505050565b6001600160a01b0380831660009081526001602081815260408084208151610120810183528154871680825294820154909616928601929092526002820154908501526003810154606085015260048101546080850152600581015460a0850152600681015460c0850152600781015460e0850152600801546101008401529091829182918291829190610ace5760008060008060009550955095509550955050610cad565b6001600160a01b0388811660009081526003602081815260408084208c861685528252808420815160c08101835281548152600182015481850152600282015487168184015293810154606080860191909152600480830154608087015260059092015460a08601528701519287015191516370a0823160e01b8152309181019190915292949193929116906370a0823190602401602060405180830381865afa158015610b80573d6000803e3d6000fd5b505050506040513d601f19601f82011682018060405250810190610ba49190613c78565b905060008461010001514210610bbf57846101000151610bc1565b425b90506000856040015182118015610bdb5750856040015142115b8015610be657508215155b15610c46576000610c048760400151846133b190919063ffffffff16565b9050610c1d8760a00151826133c690919063ffffffff16565b9150610c42610c3b85610c358564e8d4a510006133c6565b906133d2565b86906133de565b9450505b610c748560200151610c6e64e8d4a51000610c35888a600001516133c690919063ffffffff16565b906133b1565b818760c00151610c849190613bd5565b60a0880151610c969062015180613b9c565b96519751919c509a50949850949650929450505050505b9295509295909350565b6001600160a01b03818116600090815260016020818152604080842081516101208101835281548716815293810154909516918301829052600285015483820152600385015460608401526004808601546080850152600586015460a0850152600686015460c0850152600786015460e0850152600890950154610100840152516370a0823160e01b815230948101949094529192909183916370a0823190602401602060405180830381865afa158015610d76573d6000803e3d6000fd5b505050506040513d601f19601f82011682018060405250810190610d9a9190613c78565b905060008261010001514210610db557826101000151610db7565b425b90506000836040015182118015610dd15750836040015142115b8015610ddc57508215155b15610e17576000610dfa8560400151846133b190919063ffffffff16565b9050610e138560a00151826133c690919063ffffffff16565b9150505b808460c00151610e279190613bd5565b9695505050505050565b6001600160a01b0380831660008181526001602081905260409091209081015490921614610e715760405162461bcd60e51b815260040161077090613c1d565b6040516370a0823160e01b81523060048201526000906001600160a01b038416906370a0823190602401602060405180830381865afa158015610eb8573d6000803e3d6000fd5b505050506040513d601f19601f82011682018060405250810190610edc9190613c78565b1015610f1b5760405162461bcd60e51b815260206004820152600e60248201526d3732b2b2103130b630b731b2a7b360911b6044820152606401610770565b6000826001600160a01b031663313ce5676040518163ffffffff1660e01b8152600401602060405180830381865afa158015610f5b573d6000803e3d6000fd5b505050506040513d601f19601f82011682018060405250810190610f7f9190613c91565b60ff161015610fc05760405162461bcd60e51b815260206004820152600d60248201526c6e65656420646563696d616c7360981b6044820152606401610770565b6000826001600160a01b03166306fdde036040518163ffffffff1660e01b8152600401600060405180830381865afa158015611000573d6000803e3d6000fd5b505050506040513d6000823e601f3d908101601f191682016040526110289190810190613cd8565b5110156110635760405162461bcd60e51b81526020600482015260096024820152686e656564206e616d6560b81b6044820152606401610770565b6001600160a01b038084166000908152600460209081526040808320868516845290915290208054909116156110d45760405162461bcd60e51b8152602060048201526016602482015275726576656e7565496e666f206e65656420656d70747960501b6044820152606401610770565b80546001600160a01b039384166001600160a01b031991821681179092559390921660008181526005602090815260408083208054600181018255908452828420018054909716909517909555908152600c909352509020429055565b6001600160a01b03821660008181526003602090815260408083203384528252808320938352600c90915290205483919042901561122a576001600160a01b0383166000908152600c602052604081205461118c9083613b89565b6001600160a01b0385166000908152600a60205260408120549192509064e8d4a5100090617bdd906111bf908590613b9c565b6111c99190613b9c565b6111d39190613bb3565b6001600160a01b0386166000908152600b6020526040812080549293508392909190611200908490613bd5565b90915550508015611227576001600160a01b0385166000908152600c602052604090208390555b50505b6001600160a01b0385166000908152600160209081526040808320600a909252822080549192879261125d908490613bd5565b909155505060018101546001600160a01b038781169116146112915760405162461bcd60e51b815260040161077090613c1d565b600085116112d05760405162461bcd60e51b815260206004820152600c60248201526b04445504f53495420475420360a41b6044820152606401610770565b6001600160a01b038616600090815260036020908152604080832033845290915290206112fc876122e3565b8054156113a95760006113318260010154610c6e64e8d4a51000610c35876003015487600001546133c690919063ffffffff16565b835460405163a9059cbb60e01b8152336004820152602481018390529192506001600160a01b03169063a9059cbb906044016020604051808303816000875af1158015611382573d6000803e3d6000fd5b505050506040513d601f19601f820116820180604052508101906113a69190613d6c565b50505b60018201546113c3906001600160a01b0316333089613346565b80546113cf90876133de565b80825560038301546113ec9164e8d4a5100091610c3591906133c6565b60018201556001600160a01b0387166000908152600860209081526040808320338452825280832081516060810183529384529183018990529091908101429052815460018181018455600093845260209093208251600390920201805492939092839160ff1990911690838181111561146857611468613ad8565b021790555060208201518160010155604082015181600201555050866001600160a01b0316336001600160a01b03167f5548c837ab068cf56a2c2479df0882a4922fd203edb7517321831d95078c5f62886040516114c891815260200190565b60405180910390a350505050505050565b600560205281600052604060002081815481106114f557600080fd5b6000918252602090912001546001600160a01b03169150829050565b6000546001600160a01b0316331461153b5760405162461bcd60e51b815260040161077090613be8565b61154560006133ea565b565b6001600160a01b038082166000818152600160208190526040822090810154919384938493849360609384938493909116146115955760405162461bcd60e51b815260040161077090613c1d565b6000600360008b6001600160a01b03166001600160a01b0316815260200190815260200160002060008c6001600160a01b03166001600160a01b031681526020019081526020016000206040518060c001604052908160008201548152602001600182015481526020016002820160009054906101000a90046001600160a01b03166001600160a01b03166001600160a01b03168152602001600382015481526020016004820154815260200160058201548152505090508a81604001906001600160a01b031690816001600160a01b0316815250506000600560008c6001600160a01b03166001600160a01b031681526020019081526020016000208054905060016116a29190613bd5565b67ffffffffffffffff8111156116ba576116ba6136fb565b6040519080825280602002602001820160405280156116e3578160200160208202803683370190505b506001600160a01b038c166000908152600560205260408120549192509061170c906001613bd5565b67ffffffffffffffff811115611724576117246136fb565b60405190808252806020026020018201604052801561174d578160200160208202803683370190505b506001600160a01b038d1660009081526005602052604081205491925090611776906001613bd5565b67ffffffffffffffff81111561178e5761178e6136fb565b6040519080825280602002602001820160405280156117b7578160200160208202803683370190505b5090508c836000815181106117ce576117ce613c49565b60200260200101906001600160a01b031690816001600160a01b0316815250508260008151811061180157611801613c49565b60200260200101516001600160a01b031663313ce5676040518163ffffffff1660e01b8152600401602060405180830381865afa158015611846573d6000803e3d6000fd5b505050506040513d601f19601f8201168201806040525081019061186a9190613c91565b8260008151811061187d5761187d613c49565b602002602001019060ff16908160ff168152505060005b60056000856000815181106118ab576118ab613c49565b60200260200101516001600160a01b03166001600160a01b0316815260200190815260200160002080549050811015611a815760056000856000815181106118f5576118f5613c49565b60200260200101516001600160a01b03166001600160a01b03168152602001908152602001600020818154811061192e5761192e613c49565b6000918252602090912001546001600160a01b03168461194f836001613bd5565b8151811061195f5761195f613c49565b60200260200101906001600160a01b031690816001600160a01b031681525050600560008560008151811061199657611996613c49565b60200260200101516001600160a01b03166001600160a01b0316815260200190815260200160002081815481106119cf576119cf613c49565b600091825260209182902001546040805163313ce56760e01b815290516001600160a01b039092169263313ce567926004808401938290030181865afa158015611a1d573d6000803e3d6000fd5b505050506040513d601f19601f82011682018060405250810190611a419190613c91565b83611a4d836001613bd5565b81518110611a5d57611a5d613c49565b60ff9092166020928302919091019091015280611a7981613c5f565b915050611894565b5060005b6008600085600081518110611a9c57611a9c613c49565b60200260200101516001600160a01b03166001600160a01b03168152602001908152602001600020600086604001516001600160a01b03166001600160a01b0316815260200190815260200160002080549050811015611cc55760006008600086600081518110611b0f57611b0f613c49565b60200260200101516001600160a01b03166001600160a01b03168152602001908152602001600020600087604001516001600160a01b03166001600160a01b031681526020019081526020016000208281548110611b6f57611b6f613c49565b6000918252602090912060408051606081019091526003909202018054829060ff166001811115611ba257611ba2613ad8565b6001811115611bb357611bb3613ad8565b815260018201546020820152600290910154604090910152905042816040015111611cb257600081516001811115611bed57611bed613ad8565b03611c665764e8d4a51000617bdd8260400151611c074290565b611c119190613b89565b8360200151611c209190613b9c565b611c2a9190613b9c565b611c349190613bb3565b86606001818151611c459190613bd5565b9052506020810151608087018051611c5e908390613bd5565b905250611cb2565b60808601516020820151611c7a9082613b89565b8760600151611c899190613b9c565b611c939190613bb3565b60608701526020810151608087018051611cae908390613b89565b9052505b5080611cbd81613c5f565b915050611a85565b5060a08401515b6007600085600081518110611ce357611ce3613c49565b60200260200101516001600160a01b03166001600160a01b031681526020019081526020016000208054905081101561217a5760006007600086600081518110611d2f57611d2f613c49565b60200260200101516001600160a01b03166001600160a01b031681526020019081526020016000208281548110611d6857611d68613c49565b9060005260206000200154905060008060005b6008600089600081518110611d9257611d92613c49565b60200260200101516001600160a01b03166001600160a01b0316815260200190815260200160002060008a604001516001600160a01b03166001600160a01b0316815260200190815260200160002080549050811015611f95576000600860008a600081518110611e0557611e05613c49565b60200260200101516001600160a01b03166001600160a01b0316815260200190815260200160002060008b604001516001600160a01b03166001600160a01b031681526020019081526020016000208281548110611e6557611e65613c49565b6000918252602090912060408051606081019091526003909202018054829060ff166001811115611e9857611e98613ad8565b6001811115611ea957611ea9613ad8565b81526020016001820154815260200160028201548152505090508481604001511015611f8257600081516001811115611ee457611ee4613ad8565b03611f485764e8d4a51000617bdd826040015187611f029190613b89565b8360200151611f119190613b9c565b611f1b9190613b9c565b611f259190613bb3565b611f2f9084613bd5565b9250806020015184611f419190613bd5565b9350611f82565b83816020015185611f599190613b89565b611f639085613b9c565b611f6d9190613bb3565b9250806020015184611f7f9190613b89565b93505b5080611f8d81613c5f565b915050611d7b565b508088606001818151611fa89190613bd5565b90525060005b6005600089600081518110611fc557611fc5613c49565b60200260200101516001600160a01b03166001600160a01b0316815260200190815260200160002080549050811015612163576000600660008a60008151811061201157612011613c49565b60200260200101516001600160a01b03166001600160a01b0316815260200190815260200160002060008681526020019081526020016000206000600560008c60008151811061206357612063613c49565b60200260200101516001600160a01b03166001600160a01b03168152602001908152602001600020848154811061209c5761209c613c49565b60009182526020808320909101546001600160a01b0316835282810193909352604091820190208151808301909252805480835260019190910154928201929092529150158015906120f2575060008160200151115b156121505760208101516121068486613bd5565b82516121129190613b9c565b61211c9190613bb3565b87612128846001613bd5565b8151811061213857612138613c49565b6020026020010181815161214c9190613bd5565b9052505b508061215b81613c5f565b915050611fae565b50505050808061217290613c5f565b915050611ccc565b50600a60008460008151811061219257612192613c49565b60200260200101516001600160a01b03166001600160a01b031681526020019081526020016000205464e8d4a51000617bdd600c6000876000815181106121db576121db613c49565b60200260200101516001600160a01b03166001600160a01b031681526020019081526020016000205461220b4290565b6122159190613b89565b600a60008860008151811061222c5761222c613c49565b60200260200101516001600160a01b03166001600160a01b031681526020019081526020016000205461225f9190613b9c565b6122699190613b9c565b6122739190613bb3565b600b60008660008151811061228a5761228a613c49565b60200260200101516001600160a01b03166001600160a01b03168152602001908152602001600020546122bd9190613bd5565b8551606090960151919d509b509399509297509550935091505092959891949750929550565b6001600160a01b038116600090815260016020526040812060088101549091904210612313578160080154612315565b425b90508160020154811161232757505050565b60018201546040516370a0823160e01b81523060048201526000916001600160a01b0316906370a0823190602401602060405180830381865afa158015612372573d6000803e3d6000fd5b505050506040513d601f19601f820116820180604052508101906123969190613c78565b9050806000036123ac5750504260029091015550565b60006123c58460020154846133b190919063ffffffff16565b905060006123e08560050154836133c690919063ffffffff16565b90506124036123f884610c358464e8d4a510006133c6565b6003870154906133de565b85600301819055508085600601600082825461241f9190613bd5565b90915550505050600283018290555b50505050565b6000546001600160a01b0316331461245e5760405162461bcd60e51b815260040161077090613be8565b6001600160a01b03808516600090815260016020819052604090912090810154909116156124bf5760405162461bcd60e51b815260206004820152600e60248201526d1314081d1bdad95b88195e1a5cdd60921b6044820152606401610770565b80546001600160a01b038088166001600160a01b03199283161783556001830180549188169190921617905560028101839055600060038201819055600482015560058101849055600781018390556125188284613bd5565b6008909101555050600280546001810182556000919091527f405787fa12a823e0f2b7631cc41b3ba8828b3321ca811111fa75cd3aa3bb5ace0180546001600160a01b039093166001600160a01b0319909316929092179091555050565b6002818154811061258657600080fd5b6000918252602090912001546001600160a01b0316905081565b600760205281600052604060002081815481106125bc57600080fd5b90600052602060002001600091509150505481565b6001600160a01b038116600090815260016020908152604080832060038352818420338552909252909120612605836122e3565b60006126338260010154610c6e64e8d4a51000610c35876003015487600001546133c690919063ffffffff16565b835460405163a9059cbb60e01b8152336004820152602481018390529192506001600160a01b03169063a9059cbb906044016020604051808303816000875af1158015612684573d6000803e3d6000fd5b505050506040513d601f19601f820116820180604052508101906126a89190613d6c565b5060048301546126b890826133de565b50600383015482546126d49164e8d4a5100091610c35916133c6565b826001018190555050505050565b6000546001600160a01b0316331461270c5760405162461bcd60e51b815260040161077090613be8565b6001600160a01b038084166000908152600160208190526040909120908101549091166127715760405162461bcd60e51b81526020600482015260136024820152724c5020746f6b656e206e6f742065786973747360681b6044820152606401610770565b61277a846122e3565b60058101541561278c57600581018390555b806002015482111561242e57600801555050565b600860205282600052604060002060205281600052604060002081815481106127c857600080fd5b600091825260209091206003909102018054600182015460029092015460ff9091169450909250905083565b60025460609060008167ffffffffffffffff811115612815576128156136fb565b60405190808252806020026020018201604052801561283e578160200160208202803683370190505b50905060005b828110156128b9576002818154811061285f5761285f613c49565b9060005260206000200160009054906101000a90046001600160a01b031682828151811061288f5761288f613c49565b6001600160a01b0390921660209283029190910190910152806128b181613c5f565b915050612844565b5092915050565b6001600160a01b03808216600081815260016020819052604090912090810154909216146129005760405162461bcd60e51b815260040161077090613c1d565b6001600160a01b03821660008181526003602090815260408083203384528252808320938352600590915281205467ffffffffffffffff811115612946576129466136fb565b60405190808252806020026020018201604052801561296f578160200160208202803683370190505b506001600160a01b0385166000908152600560205260408120549192509067ffffffffffffffff8111156129a5576129a56136fb565b6040519080825280602002602001820160405280156129ce578160200160208202803683370190505b50905060005b6001600160a01b038616600090815260056020526040902054811015612a78576001600160a01b0386166000908152600560205260409020805482908110612a1e57612a1e613c49565b9060005260206000200160009054906101000a90046001600160a01b0316838281518110612a4e57612a4e613c49565b6001600160a01b039092166020928302919091019091015280612a7081613c5f565b9150506129d4565b5060058301545b6001600160a01b038616600090815260076020526040902054811015612dba576001600160a01b0386166000908152600760205260408120805483908110612ac957612ac9613c49565b9060005260206000200154905060008060005b6001600160a01b038a166000908152600860209081526040808320338452909152902054811015612c6c576001600160a01b038a1660009081526008602090815260408083203384529091528120805483908110612b3c57612b3c613c49565b6000918252602090912060408051606081019091526003909202018054829060ff166001811115612b6f57612b6f613ad8565b6001811115612b8057612b80613ad8565b81526020016001820154815260200160028201548152505090508481604001511015612c5957600081516001811115612bbb57612bbb613ad8565b03612c1f5764e8d4a51000617bdd826040015187612bd99190613b89565b8360200151612be89190613b9c565b612bf29190613b9c565b612bfc9190613bb3565b612c069084613bd5565b9250806020015184612c189190613bd5565b9350612c59565b83816020015185612c309190613b89565b612c3a9085613b9c565b612c449190613bb3565b9250806020015184612c569190613b89565b93505b5080612c6481613c5f565b915050612adc565b5060005b6001600160a01b038a16600090815260056020526040902054811015612d92576001600160a01b038a166000818152600660209081526040808320888452825280832093835260059091528120805491929183919085908110612cd557612cd5613c49565b60009182526020808320909101546001600160a01b031683528281019390935260409182019020815180830190925280548083526001919091015492820192909252915015801590612d2b575060008160200151115b15612d7f576020810151612d3f8486613bd5565b8251612d4b9190613b9c565b612d559190613bb3565b878381518110612d6757612d67613c49565b60200260200101818151612d7b9190613bd5565b9052505b5080612d8a81613c5f565b915050612c70565b50612d9e846001613bd5565b600588015550829150612db2905081613c5f565b915050612a7f565b5060005b8251811015612f2557818181518110612dd957612dd9613c49565b602002602001015160046000886001600160a01b03166001600160a01b031681526020019081526020016000206000858481518110612e1a57612e1a613c49565b60200260200101516001600160a01b03166001600160a01b031681526020019081526020016000206001016000828254612e549190613bd5565b92505081905550828181518110612e6d57612e6d613c49565b60200260200101516001600160a01b031663a9059cbb33848481518110612e9657612e96613c49565b60200260200101516040518363ffffffff1660e01b8152600401612ecf9291906001600160a01b03929092168252602082015260400190565b6020604051808303816000875af1158015612eee573d6000803e3d6000fd5b505050506040513d601f19601f82011682018060405250810190612f129190613d6c565b5080612f1d81613c5f565b915050612dbe565b505050505050565b6000546001600160a01b03163314612f575760405162461bcd60e51b815260040161077090613be8565b6001600160a01b038116612fbc5760405162461bcd60e51b815260206004820152602660248201527f4f776e61626c653a206e6577206f776e657220697320746865207a65726f206160448201526564647265737360d01b6064820152608401610770565b612fc5816133ea565b50565b6001600160a01b03821660008181526003602090815260408083203384528252808320938352600c9091529020548391904290156130c1576001600160a01b0383166000908152600c60205260408120546130239083613b89565b6001600160a01b0385166000908152600a60205260408120549192509064e8d4a5100090617bdd90613056908590613b9c565b6130609190613b9c565b61306a9190613bb3565b6001600160a01b0386166000908152600b6020526040812080549293508392909190613097908490613bd5565b909155505080156130be576001600160a01b0385166000908152600c602052604090208390555b50505b6001600160a01b0385166000818152600160209081526040808320600383528184203385528352818420948452600a909252822080549193928892613107908490613b89565b9091555050805486111561315d5760405162461bcd60e51b815260206004820152601a60248201527f7769746864726177206d6f7265207468616e206465706f7369740000000000006044820152606401610770565b613166876122e3565b60006131948260010154610c6e64e8d4a51000610c35876003015487600001546133c690919063ffffffff16565b9050801561322257825460405163a9059cbb60e01b8152336004820152602481018390526001600160a01b039091169063a9059cbb906044016020604051808303816000875af11580156131ec573d6000803e3d6000fd5b505050506040513d601f19601f820116820180604052508101906132109190613d6c565b50600483015461322090826133de565b505b815461322e90886133b1565b808355600384015461324b9164e8d4a5100091610c3591906133c6565b6001838101919091556001600160a01b0389166000908152600860209081526040808320338452825280832081516060810183528581528084018d9052429281019290925280548086018255908452919092208251600390920201805492939092839160ff199091169083818111156132c6576132c6613ad8565b021790555060208201516001808301919091556040909201516002909101558301546132fc906001600160a01b0316338961343a565b6040518781526001600160a01b0389169033907f9b1bfa7fa9ee420a16e124f794c35ac9f90472acc99140eb2f6447c714cad8eb9060200160405180910390a35050505050505050565b6040516001600160a01b038085166024830152831660448201526064810182905261242e9085906323b872dd60e01b906084015b60408051601f198184030181529190526020810180516001600160e01b03166001600160e01b03199093169290921790915261346f565b60006133bd8284613b89565b90505b92915050565b60006133bd8284613b9c565b60006133bd8284613bb3565b60006133bd8284613bd5565b600080546001600160a01b038381166001600160a01b0319831681178455604051919092169283917f8be0079c531659141344cd1fd0a4f28419497f9722a3daafe3b4186f6b6457e09190a35050565b6040516001600160a01b03831660248201526044810182905261346a90849063a9059cbb60e01b9060640161337a565b505050565b60006134c4826040518060400160405280602081526020017f5361666545524332303a206c6f772d6c6576656c2063616c6c206661696c6564815250856001600160a01b03166135419092919063ffffffff16565b80519091501561346a57808060200190518101906134e29190613d6c565b61346a5760405162461bcd60e51b815260206004820152602a60248201527f5361666545524332303a204552433230206f7065726174696f6e20646964206e6044820152691bdd081cdd58d8d9595960b21b6064820152608401610770565b6060613550848460008561355a565b90505b9392505050565b6060824710156135bb5760405162461bcd60e51b815260206004820152602660248201527f416464726573733a20696e73756666696369656e742062616c616e636520666f6044820152651c8818d85b1b60d21b6064820152608401610770565b6001600160a01b0385163b6136125760405162461bcd60e51b815260206004820152601d60248201527f416464726573733a2063616c6c20746f206e6f6e2d636f6e74726163740000006044820152606401610770565b600080866001600160a01b0316858760405161362e9190613d8e565b60006040518083038185875af1925050503d806000811461366b576040519150601f19603f3d011682016040523d82523d6000602084013e613670565b606091505b509150915061368082828661368b565b979650505050505050565b6060831561369a575081613553565b8251156136aa5782518084602001fd5b8160405162461bcd60e51b81526004016107709190613daa565b80356001600160a01b03811681146136db57600080fd5b919050565b6000602082840312156136f257600080fd5b6133bd826136c4565b634e487b7160e01b600052604160045260246000fd5b604051601f8201601f1916810167ffffffffffffffff8111828210171561373a5761373a6136fb565b604052919050565b600067ffffffffffffffff82111561375c5761375c6136fb565b5060051b60200190565b600082601f83011261377757600080fd5b8135602061378c61378783613742565b613711565b82815260059290921b840181019181810190868411156137ab57600080fd5b8286015b848110156137c657803583529183019183016137af565b509695505050505050565b6000806000606084860312156137e657600080fd5b6137ef846136c4565b925060208085013567ffffffffffffffff8082111561380d57600080fd5b818701915087601f83011261382157600080fd5b813561382f61378782613742565b81815260059190911b8301840190848101908a83111561384e57600080fd5b938501935b8285101561387357613864856136c4565b82529385019390850190613853565b96505050604087013592508083111561388b57600080fd5b505061389986828701613766565b9150509250925092565b600080604083850312156138b657600080fd5b6138bf836136c4565b91506138cd602084016136c4565b90509250929050565b600080604083850312156138e957600080fd5b6138f2836136c4565b946020939093013593505050565b600081518084526020808501945080840160005b838110156139395781516001600160a01b031687529582019590820190600101613914565b509495945050505050565b600081518084526020808501945080840160005b8381101561393957815187529582019590820190600101613958565b600060e082018983526020898185015288604085015287606085015260e0608085015281875180845261010086019150828901935060005b818110156139cb57845160ff16835293830193918301916001016139ac565b505084810360a08601526139df8188613900565b9250505082810360c08401526139f58185613944565b9a9950505050505050505050565b600080600080600060a08688031215613a1b57600080fd5b613a24866136c4565b9450613a32602087016136c4565b94979496505050506040830135926060810135926080909101359150565b600060208284031215613a6257600080fd5b5035919050565b600080600060608486031215613a7e57600080fd5b613a87846136c4565b95602085013595506040909401359392505050565b600080600060608486031215613ab157600080fd5b613aba846136c4565b9250613ac8602085016136c4565b9150604084013590509250925092565b634e487b7160e01b600052602160045260246000fd5b6060810160028510613b1057634e487b7160e01b600052602160045260246000fd5b938152602081019290925260409091015290565b6020815260006133bd6020830184613900565b600080600060608486031215613b4c57600080fd5b613b55846136c4565b925060208401359150613b6a604085016136c4565b90509250925092565b634e487b7160e01b600052601160045260246000fd5b818103818111156133c0576133c0613b73565b80820281158282048414176133c0576133c0613b73565b600082613bd057634e487b7160e01b600052601260045260246000fd5b500490565b808201808211156133c0576133c0613b73565b6020808252818101527f4f776e61626c653a2063616c6c6572206973206e6f7420746865206f776e6572604082015260600190565b6020808252601290820152711314081d1bdad95b881b9bdd08195e1a5cdd60721b604082015260600190565b634e487b7160e01b600052603260045260246000fd5b600060018201613c7157613c71613b73565b5060010190565b600060208284031215613c8a57600080fd5b5051919050565b600060208284031215613ca357600080fd5b815160ff8116811461355357600080fd5b60005b83811015613ccf578181015183820152602001613cb7565b50506000910152565b600060208284031215613cea57600080fd5b815167ffffffffffffffff80821115613d0257600080fd5b818401915084601f830112613d1657600080fd5b815181811115613d2857613d286136fb565b613d3b601f8201601f1916602001613711565b9150808252856020828501011115613d5257600080fd5b613d63816020840160208601613cb4565b50949350505050565b600060208284031215613d7e57600080fd5b8151801515811461355357600080fd5b60008251613da0818460208701613cb4565b9190910192915050565b6020815260008251806020840152613dc9816040850160208701613cb4565b601f01601f1916919091016040019291505056fea2646970667358221220a2776ab233fe80fe3e7229261e57601bb1b152413aa33f9a257ff4b1ed62c31464736f6c63430008110033",
  "linkReferences": {},
  "deployedLinkReferences": {}
}