{
  "_format": "hh-sol-artifact-1",
  "contractName": "Swap",
  "sourceName": "contracts/swap/Swap.sol",
  "abi": [
    {
      "inputs": [
        {
          "internalType": "address",
          "name": "_osd",
          "type": "address"
        }
      ],
      "stateMutability": "nonpayable",
      "type": "constructor"
    },
    {
      "anonymous": false,
      "inputs": [
        {
          "indexed": true,
          "internalType": "address",
          "name": "token",
          "type": "address"
        },
        {
          "indexed": false,
          "internalType": "uint256",
          "name": "tokenAmount",
          "type": "uint256"
        },
        {
          "indexed": false,
          "internalType": "uint256",
          "name": "lpTokenAmount",
          "type": "uint256"
        },
        {
          "indexed": true,
          "internalType": "address",
          "name": "to",
          "type": "address"
        }
      ],
      "name": "AddLiquidity",
      "type": "event"
    },
    {
      "anonymous": false,
      "inputs": [
        {
          "indexed": true,
          "internalType": "address",
          "name": "token",
          "type": "address"
        },
        {
          "indexed": false,
          "internalType": "uint256",
          "name": "protocolFee",
          "type": "uint256"
        },
        {
          "indexed": false,
          "internalType": "uint256",
          "name": "liquidityFee",
          "type": "uint256"
        }
      ],
      "name": "CaptureSwapFee",
      "type": "event"
    },
    {
      "anonymous": false,
      "inputs": [
        {
          "indexed": true,
          "internalType": "address",
          "name": "previousOwner",
          "type": "address"
        },
        {
          "indexed": true,
          "internalType": "address",
          "name": "newOwner",
          "type": "address"
        }
      ],
      "name": "OwnershipTransferred",
      "type": "event"
    },
    {
      "anonymous": false,
      "inputs": [
        {
          "indexed": true,
          "internalType": "address",
          "name": "token",
          "type": "address"
        },
        {
          "indexed": false,
          "internalType": "uint256",
          "name": "reserve",
          "type": "uint256"
        },
        {
          "indexed": false,
          "internalType": "uint256",
          "name": "osd",
          "type": "uint256"
        },
        {
          "indexed": false,
          "internalType": "uint256",
          "name": "ratioToken",
          "type": "uint256"
        },
        {
          "indexed": false,
          "internalType": "uint256",
          "name": "ratioOsd",
          "type": "uint256"
        }
      ],
      "name": "PoolAmountUpdated",
      "type": "event"
    },
    {
      "anonymous": false,
      "inputs": [
        {
          "indexed": true,
          "internalType": "address",
          "name": "token",
          "type": "address"
        },
        {
          "indexed": false,
          "internalType": "uint256",
          "name": "osdAmount",
          "type": "uint256"
        },
        {
          "indexed": false,
          "internalType": "uint256",
          "name": "lpAmount",
          "type": "uint256"
        }
      ],
      "name": "Rebalance",
      "type": "event"
    },
    {
      "anonymous": false,
      "inputs": [
        {
          "indexed": true,
          "internalType": "address",
          "name": "token",
          "type": "address"
        },
        {
          "indexed": false,
          "internalType": "uint256",
          "name": "tokenAmount",
          "type": "uint256"
        },
        {
          "indexed": false,
          "internalType": "uint256",
          "name": "osdAmount",
          "type": "uint256"
        },
        {
          "indexed": true,
          "internalType": "address",
          "name": "to",
          "type": "address"
        }
      ],
      "name": "RemoveLiquidity",
      "type": "event"
    },
    {
      "anonymous": false,
      "inputs": [
        {
          "indexed": true,
          "internalType": "address",
          "name": "sender",
          "type": "address"
        },
        {
          "indexed": false,
          "internalType": "address",
          "name": "tokenIn",
          "type": "address"
        },
        {
          "indexed": false,
          "internalType": "address",
          "name": "tokenOut",
          "type": "address"
        },
        {
          "indexed": false,
          "internalType": "uint256",
          "name": "amountIn",
          "type": "uint256"
        },
        {
          "indexed": false,
          "internalType": "uint256",
          "name": "amountOut",
          "type": "uint256"
        },
        {
          "indexed": true,
          "internalType": "address",
          "name": "to",
          "type": "address"
        }
      ],
      "name": "Swapped",
      "type": "event"
    },
    {
      "anonymous": false,
      "inputs": [
        {
          "indexed": true,
          "internalType": "address",
          "name": "sender",
          "type": "address"
        },
        {
          "indexed": false,
          "internalType": "address",
          "name": "token",
          "type": "address"
        },
        {
          "indexed": false,
          "internalType": "uint256",
          "name": "amountIn",
          "type": "uint256"
        },
        {
          "indexed": false,
          "internalType": "uint256",
          "name": "amountOut",
          "type": "uint256"
        },
        {
          "indexed": false,
          "internalType": "enum Swap.OrderType",
          "name": "orderType",
          "type": "uint8"
        }
      ],
      "name": "SwappedSingle",
      "type": "event"
    },
    {
      "anonymous": false,
      "inputs": [
        {
          "indexed": true,
          "internalType": "address",
          "name": "token",
          "type": "address"
        },
        {
          "indexed": false,
          "internalType": "address",
          "name": "liquidity",
          "type": "address"
        }
      ],
      "name": "TokenListed",
      "type": "event"
    },
    {
      "anonymous": false,
      "inputs": [
        {
          "indexed": true,
          "internalType": "address",
          "name": "token",
          "type": "address"
        },
        {
          "indexed": false,
          "internalType": "uint256",
          "name": "amount",
          "type": "uint256"
        },
        {
          "indexed": true,
          "internalType": "address",
          "name": "to",
          "type": "address"
        }
      ],
      "name": "WitdhrawRevenueOsd",
      "type": "event"
    },
    {
      "inputs": [],
      "name": "$borrow",
      "outputs": [
        {
          "internalType": "contract IBorrowForSwap",
          "name": "",
          "type": "address"
        }
      ],
      "stateMutability": "view",
      "type": "function"
    },
    {
      "inputs": [],
      "name": "OSD_PRICE",
      "outputs": [
        {
          "internalType": "uint256",
          "name": "",
          "type": "uint256"
        }
      ],
      "stateMutability": "view",
      "type": "function"
    },
    {
      "inputs": [
        {
          "internalType": "address",
          "name": "token",
          "type": "address"
        },
        {
          "internalType": "uint256",
          "name": "amount",
          "type": "uint256"
        },
        {
          "internalType": "address",
          "name": "to",
          "type": "address"
        },
        {
          "internalType": "uint256",
          "name": "deadline",
          "type": "uint256"
        }
      ],
      "name": "addLiquidity",
      "outputs": [
        {
          "internalType": "uint256",
          "name": "",
          "type": "uint256"
        }
      ],
      "stateMutability": "nonpayable",
      "type": "function"
    },
    {
      "inputs": [
        {
          "internalType": "address",
          "name": "token",
          "type": "address"
        },
        {
          "internalType": "uint256",
          "name": "amount",
          "type": "uint256"
        },
        {
          "internalType": "address",
          "name": "to",
          "type": "address"
        }
      ],
      "name": "borrow",
      "outputs": [
        {
          "internalType": "uint256",
          "name": "",
          "type": "uint256"
        }
      ],
      "stateMutability": "nonpayable",
      "type": "function"
    },
    {
      "inputs": [
        {
          "internalType": "address",
          "name": "tokenIn",
          "type": "address"
        },
        {
          "internalType": "address",
          "name": "tokenOut",
          "type": "address"
        },
        {
          "internalType": "uint256",
          "name": "amountOut",
          "type": "uint256"
        }
      ],
      "name": "getAmountIn",
      "outputs": [
        {
          "internalType": "uint256",
          "name": "amountIn",
          "type": "uint256"
        }
      ],
      "stateMutability": "view",
      "type": "function"
    },
    {
      "inputs": [
        {
          "internalType": "address",
          "name": "tokenIn",
          "type": "address"
        },
        {
          "internalType": "address",
          "name": "tokenOut",
          "type": "address"
        },
        {
          "internalType": "uint256",
          "name": "amountIn",
          "type": "uint256"
        }
      ],
      "name": "getAmountOut",
      "outputs": [
        {
          "internalType": "uint256",
          "name": "amountOut",
          "type": "uint256"
        }
      ],
      "stateMutability": "view",
      "type": "function"
    },
    {
      "inputs": [
        {
          "internalType": "address",
          "name": "token",
          "type": "address"
        }
      ],
      "name": "getAvailability",
      "outputs": [
        {
          "internalType": "uint256",
          "name": "",
          "type": "uint256"
        }
      ],
      "stateMutability": "view",
      "type": "function"
    },
    {
      "inputs": [
        {
          "internalType": "address",
          "name": "token",
          "type": "address"
        }
      ],
      "name": "getFeeRates",
      "outputs": [
        {
          "internalType": "uint16[3]",
          "name": "",
          "type": "uint16[3]"
        }
      ],
      "stateMutability": "view",
      "type": "function"
    },
    {
      "inputs": [
        {
          "internalType": "address",
          "name": "token",
          "type": "address"
        },
        {
          "internalType": "uint256",
          "name": "liquidity",
          "type": "uint256"
        }
      ],
      "name": "getLiquidityIn",
      "outputs": [
        {
          "internalType": "uint256",
          "name": "",
          "type": "uint256"
        },
        {
          "internalType": "uint256",
          "name": "",
          "type": "uint256"
        }
      ],
      "stateMutability": "view",
      "type": "function"
    },
    {
      "inputs": [
        {
          "internalType": "address",
          "name": "token",
          "type": "address"
        },
        {
          "internalType": "uint256",
          "name": "amount",
          "type": "uint256"
        }
      ],
      "name": "getLiquidityOut",
      "outputs": [
        {
          "internalType": "uint256",
          "name": "",
          "type": "uint256"
        }
      ],
      "stateMutability": "view",
      "type": "function"
    },
    {
      "inputs": [
        {
          "internalType": "address",
          "name": "token",
          "type": "address"
        }
      ],
      "name": "getPoolFeePolicy",
      "outputs": [
        {
          "internalType": "uint8",
          "name": "feeType",
          "type": "uint8"
        },
        {
          "internalType": "uint16",
          "name": "feeRate0",
          "type": "uint16"
        },
        {
          "internalType": "uint16",
          "name": "feeRate1",
          "type": "uint16"
        },
        {
          "internalType": "uint16",
          "name": "feeRate2",
          "type": "uint16"
        },
        {
          "internalType": "uint8",
          "name": "revenueRate",
          "type": "uint8"
        },
        {
          "internalType": "uint256",
          "name": "revenueOsd",
          "type": "uint256"
        }
      ],
      "stateMutability": "view",
      "type": "function"
    },
    {
      "inputs": [
        {
          "internalType": "address",
          "name": "token",
          "type": "address"
        }
      ],
      "name": "getPoolInfo",
      "outputs": [
        {
          "internalType": "address",
          "name": "liquidity",
          "type": "address"
        },
        {
          "internalType": "uint256",
          "name": "createdAt",
          "type": "uint256"
        },
        {
          "internalType": "bool",
          "name": "rebalancible",
          "type": "bool"
        },
        {
          "internalType": "bool",
          "name": "usePriceFeed",
          "type": "bool"
        }
      ],
      "stateMutability": "view",
      "type": "function"
    },
    {
      "inputs": [
        {
          "internalType": "address",
          "name": "token",
          "type": "address"
        }
      ],
      "name": "getPoolReserve",
      "outputs": [
        {
          "internalType": "uint256",
          "name": "reserveToken",
          "type": "uint256"
        },
        {
          "internalType": "uint256",
          "name": "reserveOsd",
          "type": "uint256"
        },
        {
          "internalType": "uint256",
          "name": "availableToken",
          "type": "uint256"
        },
        {
          "internalType": "uint256",
          "name": "availableOsd",
          "type": "uint256"
        }
      ],
      "stateMutability": "view",
      "type": "function"
    },
    {
      "inputs": [
        {
          "internalType": "address",
          "name": "token",
          "type": "address"
        }
      ],
      "name": "getPoolState",
      "outputs": [
        {
          "internalType": "uint256",
          "name": "reserve",
          "type": "uint256"
        },
        {
          "internalType": "uint256",
          "name": "lastRatioToken",
          "type": "uint256"
        },
        {
          "internalType": "uint256",
          "name": "lastRatioOsd",
          "type": "uint256"
        },
        {
          "internalType": "uint256",
          "name": "osd_",
          "type": "uint256"
        }
      ],
      "stateMutability": "view",
      "type": "function"
    },
    {
      "inputs": [],
      "name": "getPoolTokenList",
      "outputs": [
        {
          "internalType": "address[]",
          "name": "",
          "type": "address[]"
        }
      ],
      "stateMutability": "view",
      "type": "function"
    },
    {
      "inputs": [
        {
          "internalType": "address",
          "name": "token",
          "type": "address"
        }
      ],
      "name": "getPriceRatio",
      "outputs": [
        {
          "internalType": "uint256",
          "name": "tokenRatio",
          "type": "uint256"
        },
        {
          "internalType": "uint256",
          "name": "osdRatio",
          "type": "uint256"
        }
      ],
      "stateMutability": "view",
      "type": "function"
    },
    {
      "inputs": [
        {
          "internalType": "address",
          "name": "token",
          "type": "address"
        }
      ],
      "name": "getRevenueOsd",
      "outputs": [
        {
          "internalType": "uint256",
          "name": "",
          "type": "uint256"
        }
      ],
      "stateMutability": "view",
      "type": "function"
    },
    {
      "inputs": [
        {
          "internalType": "address",
          "name": "token",
          "type": "address"
        },
        {
          "internalType": "uint256",
          "name": "amount",
          "type": "uint256"
        },
        {
          "internalType": "uint256",
          "name": "amountOsd",
          "type": "uint256"
        },
        {
          "internalType": "address",
          "name": "to",
          "type": "address"
        }
      ],
      "name": "listToken",
      "outputs": [
        {
          "internalType": "uint256",
          "name": "",
          "type": "uint256"
        }
      ],
      "stateMutability": "nonpayable",
      "type": "function"
    },
    {
      "inputs": [],
      "name": "osd",
      "outputs": [
        {
          "internalType": "contract Osd",
          "name": "",
          "type": "address"
        }
      ],
      "stateMutability": "view",
      "type": "function"
    },
    {
      "inputs": [],
      "name": "owner",
      "outputs": [
        {
          "internalType": "address",
          "name": "",
          "type": "address"
        }
      ],
      "stateMutability": "view",
      "type": "function"
    },
    {
      "inputs": [
        {
          "internalType": "uint256",
          "name": "",
          "type": "uint256"
        }
      ],
      "name": "poolTokenList",
      "outputs": [
        {
          "internalType": "address",
          "name": "",
          "type": "address"
        }
      ],
      "stateMutability": "view",
      "type": "function"
    },
    {
      "inputs": [
        {
          "internalType": "address",
          "name": "",
          "type": "address"
        }
      ],
      "name": "pools",
      "outputs": [
        {
          "internalType": "contract IERC20",
          "name": "token",
          "type": "address"
        },
        {
          "internalType": "contract Liquidity",
          "name": "liquidity",
          "type": "address"
        },
        {
          "internalType": "uint256",
          "name": "reserve",
          "type": "uint256"
        },
        {
          "internalType": "uint256",
          "name": "lastRatioToken",
          "type": "uint256"
        },
        {
          "internalType": "uint256",
          "name": "lastRatioOsd",
          "type": "uint256"
        },
        {
          "internalType": "uint256",
          "name": "osd",
          "type": "uint256"
        },
        {
          "internalType": "uint256",
          "name": "createdAt",
          "type": "uint256"
        },
        {
          "internalType": "bool",
          "name": "rebalancible",
          "type": "bool"
        },
        {
          "internalType": "bool",
          "name": "usePriceFeed",
          "type": "bool"
        },
        {
          "internalType": "uint8",
          "name": "feeType",
          "type": "uint8"
        },
        {
          "internalType": "uint8",
          "name": "revenueRate",
          "type": "uint8"
        },
        {
          "internalType": "uint256",
          "name": "revenueOsd",
          "type": "uint256"
        },
        {
          "internalType": "uint8",
          "name": "tokenDecimal",
          "type": "uint8"
        }
      ],
      "stateMutability": "view",
      "type": "function"
    },
    {
      "inputs": [],
      "name": "priceFeed",
      "outputs": [
        {
          "internalType": "address",
          "name": "",
          "type": "address"
        }
      ],
      "stateMutability": "view",
      "type": "function"
    },
    {
      "inputs": [
        {
          "internalType": "address",
          "name": "token",
          "type": "address"
        },
        {
          "internalType": "uint256",
          "name": "amount",
          "type": "uint256"
        },
        {
          "internalType": "address",
          "name": "to",
          "type": "address"
        }
      ],
      "name": "protocolRevenueExtract",
      "outputs": [
        {
          "internalType": "bool",
          "name": "",
          "type": "bool"
        }
      ],
      "stateMutability": "nonpayable",
      "type": "function"
    },
    {
      "inputs": [
        {
          "internalType": "address",
          "name": "token",
          "type": "address"
        },
        {
          "internalType": "uint256",
          "name": "liquidity",
          "type": "uint256"
        },
        {
          "internalType": "address",
          "name": "to",
          "type": "address"
        },
        {
          "internalType": "uint256",
          "name": "deadline",
          "type": "uint256"
        }
      ],
      "name": "removeLiquidity",
      "outputs": [
        {
          "internalType": "uint256",
          "name": "",
          "type": "uint256"
        },
        {
          "internalType": "uint256",
          "name": "",
          "type": "uint256"
        }
      ],
      "stateMutability": "nonpayable",
      "type": "function"
    },
    {
      "inputs": [],
      "name": "renounceOwnership",
      "outputs": [],
      "stateMutability": "nonpayable",
      "type": "function"
    },
    {
      "inputs": [
        {
          "internalType": "address",
          "name": "token",
          "type": "address"
        },
        {
          "internalType": "uint256",
          "name": "amount",
          "type": "uint256"
        },
        {
          "internalType": "address",
          "name": "from",
          "type": "address"
        }
      ],
      "name": "repay",
      "outputs": [
        {
          "internalType": "uint256",
          "name": "",
          "type": "uint256"
        }
      ],
      "stateMutability": "nonpayable",
      "type": "function"
    },
    {
      "inputs": [
        {
          "internalType": "address",
          "name": "_borrow",
          "type": "address"
        }
      ],
      "name": "setBorrow",
      "outputs": [],
      "stateMutability": "nonpayable",
      "type": "function"
    },
    {
      "inputs": [
        {
          "internalType": "address",
          "name": "_priceFeed",
          "type": "address"
        }
      ],
      "name": "setPriceFeed",
      "outputs": [],
      "stateMutability": "nonpayable",
      "type": "function"
    },
    {
      "inputs": [
        {
          "internalType": "address",
          "name": "tokenIn",
          "type": "address"
        },
        {
          "internalType": "address",
          "name": "tokenOut",
          "type": "address"
        },
        {
          "internalType": "uint256",
          "name": "amountIn",
          "type": "uint256"
        },
        {
          "internalType": "uint256",
          "name": "amountOutMin",
          "type": "uint256"
        },
        {
          "internalType": "address",
          "name": "to",
          "type": "address"
        },
        {
          "internalType": "uint256",
          "name": "deadline",
          "type": "uint256"
        }
      ],
      "name": "swapIn",
      "outputs": [
        {
          "internalType": "uint256",
          "name": "",
          "type": "uint256"
        }
      ],
      "stateMutability": "nonpayable",
      "type": "function"
    },
    {
      "inputs": [
        {
          "internalType": "address",
          "name": "tokenIn",
          "type": "address"
        },
        {
          "internalType": "address",
          "name": "tokenOut",
          "type": "address"
        },
        {
          "internalType": "uint256",
          "name": "amountInMax",
          "type": "uint256"
        },
        {
          "internalType": "uint256",
          "name": "amountOut",
          "type": "uint256"
        },
        {
          "internalType": "address",
          "name": "to",
          "type": "address"
        },
        {
          "internalType": "uint256",
          "name": "deadline",
          "type": "uint256"
        }
      ],
      "name": "swapOut",
      "outputs": [
        {
          "internalType": "uint256",
          "name": "",
          "type": "uint256"
        }
      ],
      "stateMutability": "nonpayable",
      "type": "function"
    },
    {
      "inputs": [
        {
          "internalType": "address",
          "name": "newOwner",
          "type": "address"
        }
      ],
      "name": "transferOwnership",
      "outputs": [],
      "stateMutability": "nonpayable",
      "type": "function"
    },
    {
      "inputs": [
        {
          "internalType": "address",
          "name": "token",
          "type": "address"
        },
        {
          "internalType": "uint256",
          "name": "lastRatioToken",
          "type": "uint256"
        },
        {
          "internalType": "uint256",
          "name": "lastRatioOsd",
          "type": "uint256"
        },
        {
          "internalType": "bool",
          "name": "rebalancible",
          "type": "bool"
        },
        {
          "internalType": "bool",
          "name": "usePriceFeed",
          "type": "bool"
        },
        {
          "internalType": "uint8",
          "name": "feeType",
          "type": "uint8"
        },
        {
          "internalType": "uint8",
          "name": "revenueRate",
          "type": "uint8"
        },
        {
          "internalType": "uint16[3]",
          "name": "feeRates",
          "type": "uint16[3]"
        }
      ],
      "name": "updatePool",
      "outputs": [],
      "stateMutability": "nonpayable",
      "type": "function"
    },
    {
      "inputs": [
        {
          "internalType": "address",
          "name": "token",
          "type": "address"
        },
        {
          "internalType": "address",
          "name": "to",
          "type": "address"
        },
        {
          "internalType": "uint256",
          "name": "amount",
          "type": "uint256"
        }
      ],
      "name": "withdrawRevenueOsd",
      "outputs": [],
      "stateMutability": "nonpayable",
      "type": "function"
    }
  ],
  "bytecode": "0x60806040523480156200001157600080fd5b50604051620053ed380380620053ed8339810160408190526200003491620000b5565b6200003f3362000065565b600380546001600160a01b0319166001600160a01b0392909216919091179055620000e7565b600080546001600160a01b038381166001600160a01b0319831681178455604051919092169283917f8be0079c531659141344cd1fd0a4f28419497f9722a3daafe3b4186f6b6457e09190a35050565b600060208284031215620000c857600080fd5b81516001600160a01b0381168114620000e057600080fd5b9392505050565b6152f680620000f76000396000f3fe60806040523480156200001157600080fd5b5060043610620002315760003560e01c80636f159b311162000131578063a9c2730011620000bb578063ec04205b1162000086578063ec04205b14620006f5578063eef598bd146200073a578063f2fde38b1462000751578063f6da90571462000768578063fb1da1d6146200077c57600080fd5b8063a9c273001462000672578063bfb21b7614620006a1578063bff851ab14620006b8578063d2b6dac314620006de57600080fd5b806385be3a4111620000fc57806385be3a41146200058557806386385699146200059e5780638da5cb5b14620005b5578063a4063dbc14620005c757600080fd5b80636f159b311462000523578063715018a61462000550578063724e78da146200055a578063741bef1a146200057157600080fd5b8063376d3d5d11620001bf57806353b609b5116200018a57806353b609b514620004b35780635ceae9c414620004ca5780635d112fec14620004e15780636c665a5514620004f55780636c816c88146200050c57600080fd5b8063376d3d5d14620004575780633b45ee1d146200046e57806340e9cd2e14620004855780634aa06652146200049c57600080fd5b806313ea1978116200020057806313ea19781462000322578063269ba30c14620003c85780632b1c511f14620003f05780632c6ea668146200041f57600080fd5b806306bfa93814620002365780630922769714620002be5780630fe79ee414620002d757806311eaa6091462000307575b600080fd5b620002876200024736600462003890565b6001600160a01b039081166000908152600160208190526040909120908101546006820154600790920154921692909160ff808216926101009092041690565b604080516001600160a01b039095168552602085019390935290151591830191909152151560608201526080015b60405180910390f35b620002d5620002cf366004620038ae565b62000793565b005b620002ee620002e8366004620038ef565b620008ff565b6040516001600160a01b039091168152602001620002b5565b620003136305f5e10081565b604051908152602001620002b5565b6200038b6200033336600462003890565b6001600160a01b03166000908152600160205260409020600781015460088201546009830154600a9093015460ff620100009384900481169561ffff8085169695850481169564010000000090950416939091169190565b6040805160ff978816815261ffff96871660208201529486169085015293909116606083015292909216608083015260a082015260c001620002b5565b620003df620003d936600462003909565b6200092a565b6040519015158152602001620002b5565b620003136200040136600462003890565b6001600160a01b031660009081526001602052604090206002015490565b620004366200043036600462003890565b62000a7c565b604080519485526020850193909352918301526060820152608001620002b5565b62000313620004683660046200394a565b62000ae8565b620002d56200047f366004620039b2565b62000d3b565b620002d56200049636600462003890565b62000e31565b62000313620004ad366004620038ae565b62000e80565b62000313620004c4366004620038ae565b62000f86565b62000313620004db36600462003909565b62001084565b600454620002ee906001600160a01b031681565b620003136200050636600462003909565b62001134565b620003136200051d36600462003a58565b620011da565b6200053a6200053436600462003aa3565b620016e7565b60408051928352602083019190915201620002b5565b620002d56200171d565b620002d56200056b36600462003890565b62001758565b600554620002ee906001600160a01b031681565b6200058f620017a7565b604051620002b5919062003ad0565b62000313620005af36600462003b1f565b62001881565b6000546001600160a01b0316620002ee565b62000657620005d836600462003890565b60016020819052600091825260409091208054918101546002820154600383015460048401546005850154600686015460078701546009880154600a890154600b909901546001600160a01b039a8b169a909816989697959694959394929360ff8084169461010085048216946201000090048216938216929091168d565b604051620002b59d9c9b9a9998979695949392919062003b85565b620003136200068336600462003890565b6001600160a01b03166000908152600160205260409020600a015490565b6200053a620006b236600462003890565b620019d4565b620006cf620006c936600462003890565b62001a52565b604051620002b5919062003c10565b62000313620006ef36600462003b1f565b62001ad1565b620004366200070636600462003890565b6001600160a01b03166000908152600160205260409020600281015460038201546004830154600590930154919390929190565b620003136200074b36600462003aa3565b62001c27565b620002d56200076236600462003890565b62001c57565b600354620002ee906001600160a01b031681565b6200053a6200078d3660046200394a565b62001cf9565b6000546001600160a01b03163314620007c95760405162461bcd60e51b8152600401620007c09062003c47565b60405180910390fd5b6001600160a01b0383166000908152600160205260409020600a810154821115620008285760405162461bcd60e51b815260206004820152600e60248201526d494e535546465f524556454e554560901b6044820152606401620007c0565b8181600a0160008282546200083e919062003c92565b90915550506003546040516340c10f1960e01b81526001600160a01b03909116906340c10f199062000877908690869060040162003ca8565b600060405180830381600087803b1580156200089257600080fd5b505af1158015620008a7573d6000803e3d6000fd5b50505050826001600160a01b0316846001600160a01b03167f8563c72e438b4cf8f76fdfeb1fb06781a953df368c94e6c00ee678d59cf58c4084604051620008f191815260200190565b60405180910390a350505050565b600281815481106200091057600080fd5b6000918252602090912001546001600160a01b0316905081565b6004546000906001600160a01b031633146200095a5760405162461bcd60e51b8152600401620007c09062003cd7565b6001600160a01b0380851660009081526001602052604090208054909116620009975760405162461bcd60e51b8152600401620007c09062003cff565b600480548254604051634d3c739760e11b81526001600160a01b0391821693810193909352600092911690639a78e72e90602401606060405180830381865afa158015620009e9573d6000803e3d6000fd5b505050506040513d601f19601f8201168201806040525081019062000a0f919062003d28565b925050508085111562000a565760405162461bcd60e51b815260206004820152600e60248201526d494e535546465f524556454e554560901b6044820152606401620007c0565b815462000a6e906001600160a01b031685876200201c565b6001925050505b9392505050565b6001600160a01b0380821660009081526001602052604081208054919283928392839290911662000ac15760405162461bcd60e51b8152600401620007c09062003cff565b806002015492508060050154915062000ada816200207b565b909790965092945090925050565b60008180158062000af95750428110155b62000b185760405162461bcd60e51b8152600401620007c09062003d57565b6001600160a01b038087166000908152600160205260409020805490911662000b555760405162461bcd60e51b8152600401620007c09062003cff565b600062000b63828862002154565b905060008783600201600082825462000b7d919062003d78565b918290555060048054604051637c1d086560e11b81529294506001600160a01b0316925063f83a10ca9162000bb7918d9186910162003ca8565b6020604051808303816000875af115801562000bd7573d6000803e3d6000fd5b505050506040513d601f19601f8201168201806040525081019062000bfd919062003d8e565b50825460028401546005850154600386015460048701546040805194855260208501939093529183015260608201526001600160a01b0390911690600080516020620052a18339815191529060800160405180910390a2866001600160a01b0316896001600160a01b03167f76e3540b214147a4d1733ed21adbc36bc76fe68060033ed6a6dc81a8d3e699a48a8560405162000ca3929190918252602082015260400190565b60405180910390a3825462000cc4906001600160a01b031633308b620022ab565b60018301546040516340c10f1960e01b81526001600160a01b03909116906340c10f199062000cfa908a90869060040162003ca8565b600060405180830381600087803b15801562000d1557600080fd5b505af115801562000d2a573d6000803e3d6000fd5b50939b9a5050505050505050505050565b6000546001600160a01b0316331462000d685760405162461bcd60e51b8152600401620007c09062003c47565b6001600160a01b038089166000908152600160205260409020805490911662000da55760405162461bcd60e51b8152600401620007c09062003cff565b60008811801562000db65750600087115b1562000dcb5760038101889055600481018790555b60078101805461ffff191687151561ff00191617610100871515021762ff000019166201000060ff878116919091029190911790915560098201805460ff191691851691909117905562000e256008820183600362003736565b50505050505050505050565b6000546001600160a01b0316331462000e5e5760405162461bcd60e51b8152600401620007c09062003c47565b600480546001600160a01b0319166001600160a01b0392909216919091179055565b6000826001600160a01b0316846001600160a01b03160362000eb65760405162461bcd60e51b8152600401620007c09062003dae565b6001600160a01b038085166000818152600160205260408082208785168352908220600354919490939116900362000ef057508362000f14565b600782015462000f0c90849062010000900460ff1687620022eb565b509293505050505b6003546001600160a01b039081169087160362000f345780935062000f7c565b600783015462000f5090839062010000900460ff1683620023f6565b5050506002830154909450841062000f7c5760405162461bcd60e51b8152600401620007c09062003dd2565b5050509392505050565b6000826001600160a01b0316846001600160a01b03160362000fbc5760405162461bcd60e51b8152600401620007c09062003dae565b6001600160a01b0380851660009081526001602052604080822086841680845291832060035491949093929116900362000ff85750836200101b565b60078301546200101490839062010000900460ff1687620024fa565b5091925050505b6003546001600160a01b03908116908816036200103b5780935062000f7c565b60078201546200105790849062010000900460ff168362002609565b505050600285015491955050841062000f7c5760405162461bcd60e51b8152600401620007c09062003dd2565b6004546000906001600160a01b03163314620010b45760405162461bcd60e51b8152600401620007c09062003cd7565b6001600160a01b0380851660009081526001602052604090208054909116620010f15760405162461bcd60e51b8152600401620007c09062003cff565b60008482600201600082825462001109919062003d78565b918290555083549092506200112b91506001600160a01b0316853088620022ab565b95945050505050565b6004546000906001600160a01b03163314620011645760405162461bcd60e51b8152600401620007c09062003cd7565b6001600160a01b0380851660009081526001602052604090208054909116620011a15760405162461bcd60e51b8152600401620007c09062003cff565b600084826002016000828254620011b9919062003c92565b918290555083549092506200112b91506001600160a01b031685876200201c565b60008084116200121b5760405162461bcd60e51b815260206004820152600b60248201526a16915493d7d05353d5539560aa1b6044820152606401620007c0565b600083116200125f5760405162461bcd60e51b815260206004820152600f60248201526e16915493d7d05353d5539517d3d4d1608a1b6044820152606401620007c0565b6001600160a01b038086166000908152600160205260409020805490911615620012ba5760405162461bcd60e51b815260206004820152600b60248201526a504f4f4c5f45584953545360a81b6044820152606401620007c0565b6003546001600160a01b03908116908716036200130c5760405162461bcd60e51b815260206004820152600f60248201526e10d0539393d517d31254d517d3d4d1608a1b6044820152606401620007c0565b600280546001810182556000919091527f405787fa12a823e0f2b7631cc41b3ba8828b3321ca811111fa75cd3aa3bb5ace0180546001600160a01b0388166001600160a01b0319918216811790925582541617815560405186906200137190620037d7565b6001600160a01b039091168152602001604051809103906000f0801580156200139e573d6000803e3d6000fd5b506001820180546001600160a01b03929092166001600160a01b03199092169190911790554260068201556002810185905560038082018690556004820185905560098201805460ff191660461790556040805160608101825261012c80825260966020830152918101919091526200141d91600884019190620037e5565b50856001600160a01b031663313ce5676040518163ffffffff1660e01b8152600401602060405180830381865afa1580156200145d573d6000803e3d6000fd5b505050506040513d601f19601f8201168201806040525081019062001483919062003df8565b600b8201805460ff191660ff929092169190911790558054620014b2906001600160a01b0316333088620022ab565b8461012c808211620014fa5760405162461bcd60e51b815260206004820152601060248201526f105353d5539517d513d3d7d4d350531360821b6044820152606401620007c0565b60018301546001600160a01b03166340c10f19866200151a848662003c92565b6040518363ffffffff1660e01b81526004016200153992919062003ca8565b600060405180830381600087803b1580156200155457600080fd5b505af115801562001569573d6000803e3d6000fd5b50505060018401546040516340c10f1960e01b81526001600160a01b0390911691506340c10f1990620015a3903090859060040162003ca8565b600060405180830381600087803b158015620015be57600080fd5b505af1158015620015d3573d6000803e3d6000fd5b505050508082620015e5919062003c92565b60018401546040516001600160a01b039182168152919350891691507f99d2b755eb38920131acb332adf086ea38d15009f223c21f3aa978d6ab2347869060200160405180910390a2815460028301546005840154600385015460048601546040805194855260208501939093529183015260608201526001600160a01b0390911690600080516020620052a18339815191529060800160405180910390a2836001600160a01b0316876001600160a01b03167f76e3540b214147a4d1733ed21adbc36bc76fe68060033ed6a6dc81a8d3e699a48884604051620016d3929190918252602082015260400190565b60405180910390a39150505b949350505050565b6001600160a01b0382166000908152600160205260408120819081806200170f8387620026f7565b909890975095505050505050565b6000546001600160a01b031633146200174a5760405162461bcd60e51b8152600401620007c09062003c47565b62001756600062002844565b565b6000546001600160a01b03163314620017855760405162461bcd60e51b8152600401620007c09062003c47565b600580546001600160a01b0319166001600160a01b0392909216919091179055565b60025460609060008167ffffffffffffffff811115620017cb57620017cb62003e18565b604051908082528060200260200182016040528015620017f5578160200160208202803683370190505b50905060005b828110156200187a57600281815481106200181a576200181a62003cc1565b9060005260206000200160009054906101000a90046001600160a01b03168282815181106200184d576200184d62003cc1565b6001600160a01b039092166020928302919091019091015280620018718162003e2e565b915050620017fb565b5092915050565b600081801580620018925750428110155b620018b15760405162461bcd60e51b8152600401620007c09062003d57565b866001600160a01b0316886001600160a01b031603620018e55760405162461bcd60e51b8152600401620007c09062003dae565b6001600160a01b03808916600090815260016020526040808220928a1682528120906200191583838d8c62002894565b905060006200192884848d8b8662002971565b604080516001600160a01b038f811682528e811660208301529181018d90526060810183905291925089169033907f1eeaa4acf3c225a4033105c2647625dbb298dec93b14e16253c4231e26c02b1d9060800160405180910390a388811015620019c55760405162461bcd60e51b815260206004820152600d60248201526c125394d5519197d3d555141555609a1b6044820152606401620007c0565b9b9a5050505050505050505050565b6001600160a01b0380821660009081526001602052604081208054919283921662001a055750600093849350915050565b6007810154610100900460ff161562001a3e5780546305f5e1009062001a34906001600160a01b031662002a4f565b9250925050915091565b806003015481600401549250925050915091565b62001a5c6200383e565b6001600160a01b03821660009081526001602052604080822081516060810192839052926008909101916003918390855b82829054906101000a900461ffff1661ffff168152602001906002019060208260010104928301926001038202915080841162001a8d575094979650505050505050565b60008180158062001ae25750428110155b62001b015760405162461bcd60e51b8152600401620007c09062003d57565b866001600160a01b0316886001600160a01b03160362001b355760405162461bcd60e51b8152600401620007c09062003dae565b6001600160a01b03808916600090815260016020526040808220928a16825281209062001b6683838c8a8c62002b5f565b9050600062001b7984848e8b8662002bff565b90508981111562001bbf5760405162461bcd60e51b815260206004820152600f60248201526e115610d154d4d2559157d253941555608a1b6044820152606401620007c0565b604080516001600160a01b038e811682528d81166020830152918101839052606081018b90529089169033907f1eeaa4acf3c225a4033105c2647625dbb298dec93b14e16253c4231e26c02b1d9060800160405180910390a39b9a5050505050505050505050565b6001600160a01b03821660009081526001602052604081208162001c4c828562002154565b925050505b92915050565b6000546001600160a01b0316331462001c845760405162461bcd60e51b8152600401620007c09062003c47565b6001600160a01b03811662001ceb5760405162461bcd60e51b815260206004820152602660248201527f4f776e61626c653a206e6577206f776e657220697320746865207a65726f206160448201526564647265737360d01b6064820152608401620007c0565b62001cf68162002844565b50565b6000808280158062001d0b5750428110155b62001d2a5760405162461bcd60e51b8152600401620007c09062003d57565b6001600160a01b038088166000908152600160205260409020805490911662001d675760405162461bcd60e51b8152600401620007c09062003cff565b60008062001d76838a620026f7565b915091508183600201541162001dc05760405162461bcd60e51b815260206004820152600e60248201526d494e535546465f5245534552564560901b6044820152606401620007c0565b60008284600201600082825462001dd8919062003c92565b918290555060048054604051637c1d086560e11b81529294506001600160a01b0316925063f83a10ca9162001e12918f9186910162003ca8565b6020604051808303816000875af115801562001e32573d6000803e3d6000fd5b505050506040513d601f19601f8201168201806040525081019062001e58919062003d8e565b508184600501600082825462001e6f919062003c92565b90915550506001840154604051632770a7eb60e21b81526001600160a01b0390911690639dc29fac9062001eaa9033908e9060040162003ca8565b600060405180830381600087803b15801562001ec557600080fd5b505af115801562001eda573d6000803e3d6000fd5b5050855462001ef792506001600160a01b031690508a856200201c565b6003546040516340c10f1960e01b81526001600160a01b03909116906340c10f199062001f2b908c90869060040162003ca8565b600060405180830381600087803b15801562001f4657600080fd5b505af115801562001f5b573d6000803e3d6000fd5b5050855460028701546005880154600389015460048a01546040805194855260208501939093529183015260608201526001600160a01b039091169250600080516020620052a1833981519152915060800160405180910390a2886001600160a01b03168b6001600160a01b03167f3d58404efba0e9fa8c42b15fd0c0aee3cc2ac3a59477f4e392bff292d4977879858560405162002004929190918252602082015260400190565b60405180910390a35090999098509650505050505050565b620020768363a9059cbb60e01b84846040516024016200203e92919062003ca8565b60408051601f198184030181529190526020810180516001600160e01b03166001600160e01b03199093169290921790915262002c94565b505050565b600480548254604051634d3c739760e11b81526001600160a01b0391821693810193909352600092839283928392911690639a78e72e90602401606060405180830381865afa158015620020d3573d6000803e3d6000fd5b505050506040513d601f19601f82011682018060405250810190620020f9919062003d28565b509150915060008183876002015462002113919062003d78565b6200211f919062003c92565b9050600086600301548760040154836200213a919062003e4a565b62002146919062003e64565b919791965090945050505050565b600782015460009081908390610100900460ff1615620021d35760006200217b866200207b565b50865490915060009062002198906001600160a01b031662002a4f565b9050806305f5e1008860050154620021b1919062003e4a565b620021bd919062003e64565b620021c9908362003d78565b9350505062002215565b600080620021e1876200207b565b9150915080876005015483620021f8919062003e4a565b62002204919062003e64565b62002210908362003d78565b935050505b81818660010160009054906101000a90046001600160a01b03166001600160a01b03166318160ddd6040518163ffffffff1660e01b8152600401602060405180830381865afa1580156200226d573d6000803e3d6000fd5b505050506040513d601f19601f8201168201806040525081019062002293919062003e87565b6200229f919062003e4a565b6200112b919062003e64565b6040516001600160a01b0380851660248301528316604482015260648101829052620022e59085906323b872dd60e01b906084016200203e565b50505050565b6000806000806000806000620023018a6200207b565b8b5460078d01549294509092506001600160a01b0316906000906200233e9085908590610100900460ff16620023378662002a4f565b8e62002d6d565b905060008c6008018c60ff16600381106200235d576200235d62003cc1565b601081049190910154600f9091166002026101000a900461ffff169050620186a06200238a828462003e4a565b62002396919062003e64565b9650620023a4878362003c92565b9950620023b28b8662003d78565b60078e0154909950610100900460ff16620023d657620023d3828562003c92565b97505b620023e48d8a8a8562002dbf565b95505050505050939792965093509350565b6000806000806000876008018760ff166003811062002419576200241962003cc1565b601081049190910154600f9091166002026101000a900461ffff169050620186a062002446828862003e4a565b62002452919062003e64565b9150600062002462838862003c92565b9050600080620024728b6200207b565b8c5460078e01549294509092506001600160a01b031690620024ac9084908490610100900460ff16620024a58562002a4f565b8862002e35565b9850888311620024d05760405162461bcd60e51b8152600401620007c09062003dd2565b620024dc898462003c92565b9750620024ea8a8362003d78565b9650505050505093509350935093565b6000806000806000806200250e896200207b565b60078b01548b549294509092506000916200254b9185918591610100900460ff169062002544906001600160a01b031662002a4f565b8c62002e7f565b905062002559888462003c92565b95508783116200257d5760405162461bcd60e51b8152600401620007c09062003dd2565b62002589818362003d78565b945060008a6008018a60ff1660038110620025a857620025a862003cc1565b601081049190910154600f9091166002026101000a900461ffff169050620025d481620186a062003c92565b620025e0828462003e4a565b620025ec919062003e64565b9450620025fa858362003d78565b97505050505093509350935093565b600080600080600080886008018860ff16600381106200262d576200262d62003cc1565b601081049190910154600f9091166002026101000a900461ffff1690506200265981620186a062003c92565b62002665828962003e4a565b62002671919062003e64565b9250600062002681848962003d78565b9050600080620026918c6200207b565b8d5460078f01549294509092506001600160a01b031690620026cb9084908490610100900460ff16620026c48562002a4f565b8862002eb8565b9950620026d98a8462003d78565b9850620026e78b8362003c92565b9750620023e48d8a8a8762002dbf565b600080600062002707856200207b565b5090508460010160009054906101000a90046001600160a01b03166001600160a01b03166318160ddd6040518163ffffffff1660e01b8152600401602060405180830381865afa15801562002760573d6000803e3d6000fd5b505050506040513d601f19601f8201168201806040525081019062002786919062003e87565b62002792858362003e4a565b6200279e919062003e64565b92508460010160009054906101000a90046001600160a01b03166001600160a01b03166318160ddd6040518163ffffffff1660e01b8152600401602060405180830381865afa158015620027f6573d6000803e3d6000fd5b505050506040513d601f19601f820116820180604052508101906200281c919062003e87565b8486600501546200282e919062003e4a565b6200283a919062003e64565b9150509250929050565b600080546001600160a01b038381166001600160a01b0319831681178455604051919092169283917f8be0079c531659141344cd1fd0a4f28419497f9722a3daafe3b4186f6b6457e09190a35050565b60035460009081906001600160a01b03908116908516036200291f5750600354604051632770a7eb60e21b815283916001600160a01b031690639dc29fac90620028e5903390859060040162003ca8565b600060405180830381600087803b1580156200290057600080fd5b505af115801562002915573d6000803e3d6000fd5b505050506200112b565b6000806000806000620029458b8b60070160029054906101000a900460ff168a620022eb565b94509450945094509450849550620029638b8986868a878762002ef1565b505050505095945050505050565b60035460009081906001600160a01b0390811690861603620029fc57506003546040516340c10f1960e01b815283916001600160a01b0316906340c10f1990620029c2908790859060040162003ca8565b600060405180830381600087803b158015620029dd57600080fd5b505af1158015620029f2573d6000803e3d6000fd5b5050505062002a45565b60008060008062002a208a8c60070160029054906101000a900460ff1689620023f6565b929750879650909450925090508762002a3f8b8686868c8787620031e2565b50505050505b9695505050505050565b6003546000906001600160a01b039081169083160362002a7457506305f5e100919050565b6001600160a01b03821660009081526001602052604090206007810154610100900460ff1662002aa75750600092915050565b6005546040516341976e0960e01b81526001600160a01b038581166004830152909116906341976e0990602401602060405180830381865afa15801562002af2573d6000803e3d6000fd5b505050506040513d601f19601f8201168201806040525081019062002b18919062003e87565b91506000821162002b595760405162461bcd60e51b815260206004820152600a60248201526950524943455f5a45524f60b01b6044820152606401620007c0565b50919050565b60035460009081906001600160a01b039081169086160362002bb057506003546040516340c10f1960e01b815283916001600160a01b0316906340c10f1990620029c2903390859060040162003ca8565b60008060008062002bd48a8c60070160029054906101000a900460ff1689620024fa565b935093509350935083945062002bf08a88858589868e620031e2565b50505050905095945050505050565b60035460009081906001600160a01b039081169086160362002c505750600354604051632770a7eb60e21b815283916001600160a01b031690639dc29fac90620029c2908790859060040162003ca8565b600080600080600062002c768c8c60070160029054906101000a900460ff168a62002609565b9450945094509450945084955062002a3f8c8786868c878762002ef1565b600062002ceb826040518060400160405280602081526020017f5361666545524332303a206c6f772d6c6576656c2063616c6c206661696c6564815250856001600160a01b03166200342e9092919063ffffffff16565b80519091501562002076578080602001905181019062002d0c919062003d8e565b620020765760405162461bcd60e51b815260206004820152602a60248201527f5361666545524332303a204552433230206f7065726174696f6e20646964206e6044820152691bdd081cdd58d8d9595960b21b6064820152608401620007c0565b6000831562002db2576000831162002d995760405162461bcd60e51b8152600401620007c09062003ea1565b62002daa836305f5e100846200343f565b90506200112b565b62002a458686846200345a565b6000818560050154101562002e2a57600785015460ff1662002e115760405162461bcd60e51b815260206004820152600a602482015269125394d5519197d3d4d160b21b6044820152606401620007c0565b600585015462002e22908362003c92565b9050620016df565b506000949350505050565b6000831562002e72576000831162002e615760405162461bcd60e51b8152600401620007c09062003ea1565b62002daa6305f5e10084846200343f565b62002a458587846200345a565b6000831562002eab576000831162002d995760405162461bcd60e51b8152600401620007c09062003ea1565b62002a45868684620034a1565b6000831562002ee4576000831162002e615760405162461bcd60e51b8152600401620007c09062003ea1565b62002a45858784620034a1565b8587600201600082825462002f07919062003d78565b909155505060048054885460028a0154604051637c1d086560e11b81526001600160a01b039384169463f83a10ca9462002f45941692910162003ca8565b6020604051808303816000875af115801562002f65573d6000803e3d6000fd5b505050506040513d601f19601f8201168201806040525081019062002f8b919062003d8e565b50600987015460009060649062002fa69060ff168562003e4a565b62002fb2919062003e64565b90508088600a01600082825462002fca919062003d78565b909155505087546001600160a01b03167f4daa66261ce0fd318a8b8e5a12526b9e43f3f411a9cb6488e3959d6d123137878262003008818762003c92565b6040805192835260208301919091520160405180910390a26007880154610100900460ff166200304b576003880186905562003045818662003c92565b60048901555b816000036200307c5762003060818562003d78565b886005015462003071919062003c92565b60058901556200311c565b62003088818462003c92565b600589015560006200309d89898786620034db565b60018a01549091506001600160a01b03166340c10f19620030c66000546001600160a01b031690565b836040518363ffffffff1660e01b8152600401620030e692919062003ca8565b600060405180830381600087803b1580156200310157600080fd5b505af115801562003116573d6000803e3d6000fd5b50505050505b8754600289015460058a015460038b015460048c01546040805194855260208501939093529183015260608201526001600160a01b0390911690600080516020620052a18339815191529060800160405180910390a2875460405133917f4afcf3f98c7075e7246a1e3a24bbed0b6fc2b50e04e3c499c29eb0b13c72561d91620031b7916001600160a01b0316908b90899060009062003ec5565b60405180910390a28754620031d8906001600160a01b031633308a620022ab565b5050505050505050565b600086886002016000828254620031fa919062003c92565b9182905550600480548b54604051637c1d086560e11b81529395506001600160a01b03918216945063f83a10ca936200323b93919092169186910162003ca8565b6020604051808303816000875af11580156200325b573d6000803e3d6000fd5b505050506040513d601f19601f8201168201806040525081019062003281919062003d8e565b5060098801546000906064906200329c9060ff168662003e4a565b620032a8919062003e64565b90508089600a016000828254620032c0919062003d78565b90915550620032d29050818662003c92565b896005016000828254620032e7919062003d78565b909155505088546001600160a01b03167f4daa66261ce0fd318a8b8e5a12526b9e43f3f411a9cb6488e3959d6d123137878262003325818862003c92565b6040805192835260208301919091520160405180910390a26007890154610100900460ff1662003368576003890187905562003362818762003c92565b60048a01555b885460405133917f4afcf3f98c7075e7246a1e3a24bbed0b6fc2b50e04e3c499c29eb0b13c72561d91620033ad916001600160a01b0316908c908a9060019062003ec5565b60405180910390a2885460028a015460058b015460038c015460048d01546040805194855260208501939093529183015260608201526001600160a01b0390911690600080516020620052a18339815191529060800160405180910390a2885462003423906001600160a01b0316848a6200201c565b505050505050505050565b6060620016df8484600085620035bd565b6000826200344e858462003e4a565b620016df919062003e64565b60008062003469838662003d78565b90506000816200347a868862003e4a565b62003486919062003e64565b90508060000362003495575060015b62002a45818662003c92565b600080620034b0838662003c92565b9050600081620034c1868862003e4a565b620034cd919062003e64565b905062002a45858262003c92565b6000808281620034eb886200207b565b5060058901549091508762003501888462003e4a565b6200350d919062003e64565b62003519919062003d78565b925062003527828462003c92565b6001890154604080516318160ddd60e01b8152905185926001600160a01b0316916318160ddd9160048083019260209291908290030181865afa15801562003573573d6000803e3d6000fd5b505050506040513d601f19601f8201168201806040525081019062003599919062003e87565b620035a5919062003e4a565b620035b1919062003e64565b98975050505050505050565b606082471015620036205760405162461bcd60e51b815260206004820152602660248201527f416464726573733a20696e73756666696369656e742062616c616e636520666f6044820152651c8818d85b1b60d21b6064820152608401620007c0565b6001600160a01b0385163b620036795760405162461bcd60e51b815260206004820152601d60248201527f416464726573733a2063616c6c20746f206e6f6e2d636f6e74726163740000006044820152606401620007c0565b600080866001600160a01b0316858760405162003697919062003f37565b60006040518083038185875af1925050503d8060008114620036d6576040519150601f19603f3d011682016040523d82523d6000602084013e620036db565b606091505b5091509150620036ed828286620036f8565b979650505050505050565b606083156200370957508162000a75565b8251156200371a5782518084602001fd5b8160405162461bcd60e51b8152600401620007c0919062003f55565b600183019183908215620037c55791602002820160005b838211156200379357833561ffff1683826101000a81548161ffff021916908361ffff16021790555092602001926002016020816001010492830192600103026200374d565b8015620037c35782816101000a81549061ffff021916905560020160208160010104928301926001030262003793565b505b50620037d39291506200385c565b5090565b6113168062003f8b83390190565b600183019183908215620037c55791602002820160005b838211156200379357835183826101000a81548161ffff021916908361ffff1602179055509260200192600201602081600101049283019260010302620037fc565b60405180606001604052806003906020820280368337509192915050565b5b80821115620037d357600081556001016200385d565b80356001600160a01b03811681146200388b57600080fd5b919050565b600060208284031215620038a357600080fd5b62000a758262003873565b600080600060608486031215620038c457600080fd5b620038cf8462003873565b9250620038df6020850162003873565b9150604084013590509250925092565b6000602082840312156200390257600080fd5b5035919050565b6000806000606084860312156200391f57600080fd5b6200392a8462003873565b925060208401359150620039416040850162003873565b90509250925092565b600080600080608085870312156200396157600080fd5b6200396c8562003873565b935060208501359250620039836040860162003873565b9396929550929360600135925050565b801515811462001cf657600080fd5b60ff8116811462001cf657600080fd5b600080600080600080600080610140808a8c031215620039d157600080fd5b620039dc8a62003873565b985060208a0135975060408a0135965060608a0135620039fc8162003993565b955060808a013562003a0e8162003993565b945060a08a013562003a2081620039a2565b935060c08a013562003a3281620039a2565b92508981018b101562003a4457600080fd5b5060e0890190509295985092959890939650565b6000806000806080858703121562003a6f57600080fd5b62003a7a8562003873565b9350602085013592506040850135915062003a986060860162003873565b905092959194509250565b6000806040838503121562003ab757600080fd5b62003ac28362003873565b946020939093013593505050565b6020808252825182820181905260009190848201906040850190845b8181101562003b135783516001600160a01b03168352928401929184019160010162003aec565b50909695505050505050565b60008060008060008060c0878903121562003b3957600080fd5b62003b448762003873565b955062003b546020880162003873565b9450604087013593506060870135925062003b726080880162003873565b915060a087013590509295509295509295565b6001600160a01b038e811682528d166020820152604081018c9052606081018b9052608081018a905260a0810189905260c0810188905286151560e082015285151561010082015260ff85166101208201526101a0810160ff85166101408301528361016083015262003bfe61018083018460ff169052565b9e9d5050505050505050505050505050565b60608101818360005b600381101562003c3e57815161ffff1683526020928301929091019060010162003c19565b50505092915050565b6020808252818101527f4f776e61626c653a2063616c6c6572206973206e6f7420746865206f776e6572604082015260600190565b634e487b7160e01b600052601160045260246000fd5b8181038181111562001c515762001c5162003c7c565b6001600160a01b03929092168252602082015260400190565b634e487b7160e01b600052603260045260246000fd5b6020808252600e908201526d24a72b20a624a22fa1a0a62622a960911b604082015260600190565b6020808252600f908201526e504f4f4c5f4e4f545f45584953545360881b604082015260600190565b60008060006060848603121562003d3e57600080fd5b8351925060208401519150604084015190509250925092565b6020808252600790820152661156141254915160ca1b604082015260600190565b8082018082111562001c515762001c5162003c7c565b60006020828403121562003da157600080fd5b815162000a758162003993565b6020808252600a908201526929a0a6a2afaa27a5a2a760b11b604082015260600190565b6020808252600c908201526b24a729aaa3232faa27a5a2a760a11b604082015260600190565b60006020828403121562003e0b57600080fd5b815162000a7581620039a2565b634e487b7160e01b600052604160045260246000fd5b60006001820162003e435762003e4362003c7c565b5060010190565b808202811582820484141762001c515762001c5162003c7c565b60008262003e8257634e487b7160e01b600052601260045260246000fd5b500490565b60006020828403121562003e9a57600080fd5b5051919050565b6020808252600a908201526970726963655f7a65726f60b01b604082015260600190565b6001600160a01b03851681526020810184905260408101839052608081016002831062003f0257634e487b7160e01b600052602160045260246000fd5b82606083015295945050505050565b60005b8381101562003f2e57818101518382015260200162003f14565b50506000910152565b6000825162003f4b81846020870162003f11565b9190910192915050565b602081526000825180602084015262003f7681604085016020870162003f11565b601f01601f1916919091016040019291505056fe60806040523480156200001157600080fd5b50604051620013163803806200131683398101604081905262000034916200028b565b620000a7816001600160a01b03166395d89b416040518163ffffffff1660e01b8152600401600060405180830381865afa15801562000077573d6000803e3d6000fd5b505050506040513d6000823e601f3d908101601f19168201604052620000a19190810190620002f9565b620001f5565b6200011a826001600160a01b03166395d89b416040518163ffffffff1660e01b8152600401600060405180830381865afa158015620000ea573d6000803e3d6000fd5b505050506040513d6000823e601f3d908101601f19168201604052620001149190810190620002f9565b62000220565b600362000128838262000440565b50600462000137828262000440565b505050620001546200014e6200023560201b60201c565b62000239565b600680546001600160a01b0319166001600160a01b0383169081179091556040805163313ce56760e01b8152905163313ce567916004808201926020929091908290030181865afa158015620001ae573d6000803e3d6000fd5b505050506040513d601f19601f82011682018060405250810190620001d491906200050c565b600660146101000a81548160ff021916908360ff1602179055505062000594565b6060816040516020016200020a919062000531565b6040516020818303038152906040529050919050565b6060816040516020016200020a91906200056b565b3390565b600580546001600160a01b038381166001600160a01b0319831681179093556040519116919082907f8be0079c531659141344cd1fd0a4f28419497f9722a3daafe3b4186f6b6457e090600090a35050565b6000602082840312156200029e57600080fd5b81516001600160a01b0381168114620002b657600080fd5b9392505050565b634e487b7160e01b600052604160045260246000fd5b60005b83811015620002f0578181015183820152602001620002d6565b50506000910152565b6000602082840312156200030c57600080fd5b81516001600160401b03808211156200032457600080fd5b818401915084601f8301126200033957600080fd5b8151818111156200034e576200034e620002bd565b604051601f8201601f19908116603f01168101908382118183101715620003795762000379620002bd565b816040528281528760208487010111156200039357600080fd5b620003a6836020830160208801620002d3565b979650505050505050565b600181811c90821680620003c657607f821691505b602082108103620003e757634e487b7160e01b600052602260045260246000fd5b50919050565b601f8211156200043b57600081815260208120601f850160051c81016020861015620004165750805b601f850160051c820191505b81811015620004375782815560010162000422565b5050505b505050565b81516001600160401b038111156200045c576200045c620002bd565b62000474816200046d8454620003b1565b84620003ed565b602080601f831160018114620004ac5760008415620004935750858301515b600019600386901b1c1916600185901b17855562000437565b600085815260208120601f198616915b82811015620004dd57888601518255948401946001909101908401620004bc565b5085821015620004fc5787850151600019600388901b60f8161c191681555b5050505050600190811b01905550565b6000602082840312156200051f57600080fd5b815160ff81168114620002b657600080fd5b62027aa160ed1b81526000825162000551816003850160208701620002d3565b620204c560ec1b6003939091019283015250600601919050565b600082516200057f818460208701620002d3565b620204c560ec1b920191825250600301919050565b610d7280620005a46000396000f3fe608060405234801561001057600080fd5b506004361061010b5760003560e01c8063715018a6116100a2578063a457c2d711610071578063a457c2d71461022e578063a9059cbb14610241578063dd62ed3e14610254578063f2fde38b14610267578063fc0c546a1461027a57600080fd5b8063715018a6146101e65780638da5cb5b146101ee57806395d89b41146102135780639dc29fac1461021b57600080fd5b8063313ce567116100de578063313ce56714610176578063395093511461019557806340c10f19146101a857806370a08231146101bd57600080fd5b806306fdde0314610110578063095ea7b31461012e57806318160ddd1461015157806323b872dd14610163575b600080fd5b61011861028d565b6040516101259190610b6c565b60405180910390f35b61014161013c366004610bd6565b61031f565b6040519015158152602001610125565b6002545b604051908152602001610125565b610141610171366004610c00565b610339565b600654600160a01b900460ff1660405160ff9091168152602001610125565b6101416101a3366004610bd6565b61035d565b6101bb6101b6366004610bd6565b61037f565b005b6101556101cb366004610c3c565b6001600160a01b031660009081526020819052604090205490565b6101bb6103c0565b6005546001600160a01b03165b6040516001600160a01b039091168152602001610125565b6101186103f6565b6101bb610229366004610bd6565b610405565b61014161023c366004610bd6565b610439565b61014161024f366004610bd6565b6104b4565b610155610262366004610c5e565b6104c2565b6101bb610275366004610c3c565b6104ed565b6006546101fb906001600160a01b031681565b60606003805461029c90610c91565b80601f01602080910402602001604051908101604052809291908181526020018280546102c890610c91565b80156103155780601f106102ea57610100808354040283529160200191610315565b820191906000526020600020905b8154815290600101906020018083116102f857829003601f168201915b5050505050905090565b60003361032d818585610588565b60019150505b92915050565b6000336103478582856106ad565b610352858585610727565b506001949350505050565b60003361032d81858561037083836104c2565b61037a9190610ce1565b610588565b6005546001600160a01b031633146103b25760405162461bcd60e51b81526004016103a990610cf4565b60405180910390fd5b6103bc82826108f5565b5050565b6005546001600160a01b031633146103ea5760405162461bcd60e51b81526004016103a990610cf4565b6103f460006109d4565b565b60606004805461029c90610c91565b6005546001600160a01b0316331461042f5760405162461bcd60e51b81526004016103a990610cf4565b6103bc8282610a26565b6000338161044782866104c2565b9050838110156104a75760405162461bcd60e51b815260206004820152602560248201527f45524332303a2064656372656173656420616c6c6f77616e63652062656c6f77604482015264207a65726f60d81b60648201526084016103a9565b6103528286868403610588565b60003361032d818585610727565b6001600160a01b03918216600090815260016020908152604080832093909416825291909152205490565b6005546001600160a01b031633146105175760405162461bcd60e51b81526004016103a990610cf4565b6001600160a01b03811661057c5760405162461bcd60e51b815260206004820152602660248201527f4f776e61626c653a206e6577206f776e657220697320746865207a65726f206160448201526564647265737360d01b60648201526084016103a9565b610585816109d4565b50565b6001600160a01b0383166105ea5760405162461bcd60e51b8152602060048201526024808201527f45524332303a20617070726f76652066726f6d20746865207a65726f206164646044820152637265737360e01b60648201526084016103a9565b6001600160a01b03821661064b5760405162461bcd60e51b815260206004820152602260248201527f45524332303a20617070726f766520746f20746865207a65726f206164647265604482015261737360f01b60648201526084016103a9565b6001600160a01b0383811660008181526001602090815260408083209487168084529482529182902085905590518481527f8c5be1e5ebec7d5bd14f71427d1e84f3dd0314c0f7b2291e5b200ac8c7c3b92591015b60405180910390a3505050565b60006106b984846104c2565b9050600019811461072157818110156107145760405162461bcd60e51b815260206004820152601d60248201527f45524332303a20696e73756666696369656e7420616c6c6f77616e636500000060448201526064016103a9565b6107218484848403610588565b50505050565b6001600160a01b03831661078b5760405162461bcd60e51b815260206004820152602560248201527f45524332303a207472616e736665722066726f6d20746865207a65726f206164604482015264647265737360d81b60648201526084016103a9565b6001600160a01b0382166107ed5760405162461bcd60e51b815260206004820152602360248201527f45524332303a207472616e7366657220746f20746865207a65726f206164647260448201526265737360e81b60648201526084016103a9565b6001600160a01b038316600090815260208190526040902054818110156108655760405162461bcd60e51b815260206004820152602660248201527f45524332303a207472616e7366657220616d6f756e7420657863656564732062604482015265616c616e636560d01b60648201526084016103a9565b6001600160a01b0380851660009081526020819052604080822085850390559185168152908120805484929061089c908490610ce1565b92505081905550826001600160a01b0316846001600160a01b03167fddf252ad1be2c89b69c2b068fc378daa952ba7f163c4a11628f55a4df523b3ef846040516108e891815260200190565b60405180910390a3610721565b6001600160a01b03821661094b5760405162461bcd60e51b815260206004820152601f60248201527f45524332303a206d696e7420746f20746865207a65726f20616464726573730060448201526064016103a9565b806002600082825461095d9190610ce1565b90915550506001600160a01b0382166000908152602081905260408120805483929061098a908490610ce1565b90915550506040518181526001600160a01b038316906000907fddf252ad1be2c89b69c2b068fc378daa952ba7f163c4a11628f55a4df523b3ef9060200160405180910390a35050565b600580546001600160a01b038381166001600160a01b0319831681179093556040519116919082907f8be0079c531659141344cd1fd0a4f28419497f9722a3daafe3b4186f6b6457e090600090a35050565b6001600160a01b038216610a865760405162461bcd60e51b815260206004820152602160248201527f45524332303a206275726e2066726f6d20746865207a65726f206164647265736044820152607360f81b60648201526084016103a9565b6001600160a01b03821660009081526020819052604090205481811015610afa5760405162461bcd60e51b815260206004820152602260248201527f45524332303a206275726e20616d6f756e7420657863656564732062616c616e604482015261636560f01b60648201526084016103a9565b6001600160a01b0383166000908152602081905260408120838303905560028054849290610b29908490610d29565b90915550506040518281526000906001600160a01b038516907fddf252ad1be2c89b69c2b068fc378daa952ba7f163c4a11628f55a4df523b3ef906020016106a0565b600060208083528351808285015260005b81811015610b9957858101830151858201604001528201610b7d565b506000604082860101526040601f19601f8301168501019250505092915050565b80356001600160a01b0381168114610bd157600080fd5b919050565b60008060408385031215610be957600080fd5b610bf283610bba565b946020939093013593505050565b600080600060608486031215610c1557600080fd5b610c1e84610bba565b9250610c2c60208501610bba565b9150604084013590509250925092565b600060208284031215610c4e57600080fd5b610c5782610bba565b9392505050565b60008060408385031215610c7157600080fd5b610c7a83610bba565b9150610c8860208401610bba565b90509250929050565b600181811c90821680610ca557607f821691505b602082108103610cc557634e487b7160e01b600052602260045260246000fd5b50919050565b634e487b7160e01b600052601160045260246000fd5b8082018082111561033357610333610ccb565b6020808252818101527f4f776e61626c653a2063616c6c6572206973206e6f7420746865206f776e6572604082015260600190565b8181038181111561033357610333610ccb56fea2646970667358221220d096a7f87027258c6b6162e489132b619a2d91c22964cfc93d9232aae0727d3c64736f6c634300081100330fda88444c12e1f4744fdef52d79861522a79baa20a440385e449e39f0de5cd5a2646970667358221220958197ce5eed938e9b0efffe0256dafebb5732eb988e9b973f310c6635cf30ec64736f6c63430008110033",
  "linkReferences": {},
  "deployedLinkReferences": {}
}