{
  "_format": "hh-sol-artifact-1",
  "contractName": "MockFlashBorrower",
  "sourceName": "contracts/test/MockFlashBorrower.sol",
  "abi": [
    {
      "inputs": [
        {
          "internalType": "address",
          "name": "_borrow",
          "type": "address"
        },
        {
          "internalType": "address",
          "name": "_repay",
          "type": "address"
        }
      ],
      "stateMutability": "nonpayable",
      "type": "constructor"
    },
    {
      "inputs": [],
      "name": "borrowAddress",
      "outputs": [
        {
          "internalType": "address",
          "name": "",
          "type": "address"
        }
      ],
      "stateMutability": "view",
      "type": "function"
    },
    {
      "inputs": [
        {
          "internalType": "address",
          "name": "",
          "type": "address"
        },
        {
          "internalType": "address",
          "name": "token",
          "type": "address"
        },
        {
          "internalType": "uint256",
          "name": "amount",
          "type": "uint256"
        },
        {
          "internalType": "uint256",
          "name": "fee",
          "type": "uint256"
        },
        {
          "internalType": "bytes",
          "name": "",
          "type": "bytes"
        }
      ],
      "name": "onFlashLoan",
      "outputs": [
        {
          "internalType": "bytes32",
          "name": "",
          "type": "bytes32"
        }
      ],
      "stateMutability": "nonpayable",
      "type": "function"
    },
    {
      "inputs": [],
      "name": "repayAddress",
      "outputs": [
        {
          "internalType": "address",
          "name": "",
          "type": "address"
        }
      ],
      "stateMutability": "view",
      "type": "function"
    }
  ],
  "bytecode": "0x608060405234801561001057600080fd5b506040516103e53803806103e583398101604081905261002f9161007c565b600080546001600160a01b039384166001600160a01b031991821617909155600180549290931691161790556100af565b80516001600160a01b038116811461007757600080fd5b919050565b6000806040838503121561008f57600080fd5b61009883610060565b91506100a660208401610060565b90509250929050565b610327806100be6000396000f3fe608060405234801561001057600080fd5b50600436106100415760003560e01c80631ad1ed311461004657806323e30c8b1461007657806371b1803a14610097575b600080fd5b600154610059906001600160a01b031681565b6040516001600160a01b0390911681526020015b60405180910390f35b6100896100843660046101fb565b6100aa565b60405190815260200161006d565b600054610059906001600160a01b031681565b6000805460405163a9059cbb60e01b81526001600160a01b039182166004820152602481018790529087169063a9059cbb906044016020604051808303816000875af11580156100fe573d6000803e3d6000fd5b505050506040513d601f19601f8201168201806040525081019061012291906102a1565b506001546001600160a01b038088169163095ea7b3911661014387896102ca565b6040516001600160e01b031960e085901b1681526001600160a01b03909216600483015260248201526044016020604051808303816000875af115801561018e573d6000803e3d6000fd5b505050506040513d601f19601f820116820180604052508101906101b291906102a1565b507f439148f0bbc682ca079e46d6e2c2f0c1e3b820f1a291b069d8882abf8cf18dd9979650505050505050565b80356001600160a01b03811681146101f657600080fd5b919050565b60008060008060008060a0878903121561021457600080fd5b61021d876101df565b955061022b602088016101df565b94506040870135935060608701359250608087013567ffffffffffffffff8082111561025657600080fd5b818901915089601f83011261026a57600080fd5b81358181111561027957600080fd5b8a602082850101111561028b57600080fd5b6020830194508093505050509295509295509295565b6000602082840312156102b357600080fd5b815180151581146102c357600080fd5b9392505050565b808201808211156102eb57634e487b7160e01b600052601160045260246000fd5b9291505056fea2646970667358221220043fe5a24e9e8db8e52fd7414291644c96735666b6ed5c4f6235155a7dee036364736f6c63430008110033",
  "linkReferences": {},
  "deployedLinkReferences": {}
}