{
  "_format": "hh-sol-artifact-1",
  "contractName": "Faucet",
  "sourceName": "contracts/test/Faucet.sol",
  "abi": [
    {
      "inputs": [],
      "stateMutability": "nonpayable",
      "type": "constructor"
    },
    {
      "anonymous": false,
      "inputs": [
        {
          "indexed": true,
          "internalType": "address",
          "name": "previousOwner",
          "type": "address"
        },
        {
          "indexed": true,
          "internalType": "address",
          "name": "newOwner",
          "type": "address"
        }
      ],
      "name": "OwnershipTransferred",
      "type": "event"
    },
    {
      "inputs": [
        {
          "internalType": "address",
          "name": "_address",
          "type": "address"
        }
      ],
      "name": "allowedToWithdraw",
      "outputs": [
        {
          "internalType": "bool",
          "name": "",
          "type": "bool"
        }
      ],
      "stateMutability": "view",
      "type": "function"
    },
    {
      "inputs": [],
      "name": "getFaucetTokenList",
      "outputs": [
        {
          "components": [
            {
              "internalType": "bool",
              "name": "disabled",
              "type": "bool"
            },
            {
              "internalType": "address",
              "name": "token",
              "type": "address"
            },
            {
              "internalType": "uint256",
              "name": "amount",
              "type": "uint256"
            }
          ],
          "internalType": "struct Faucet.FaucetToken[]",
          "name": "",
          "type": "tuple[]"
        }
      ],
      "stateMutability": "view",
      "type": "function"
    },
    {
      "inputs": [],
      "name": "owner",
      "outputs": [
        {
          "internalType": "address",
          "name": "",
          "type": "address"
        }
      ],
      "stateMutability": "view",
      "type": "function"
    },
    {
      "inputs": [],
      "name": "renounceOwnership",
      "outputs": [],
      "stateMutability": "nonpayable",
      "type": "function"
    },
    {
      "inputs": [
        {
          "internalType": "address",
          "name": "_address",
          "type": "address"
        }
      ],
      "name": "requestTokens",
      "outputs": [],
      "stateMutability": "nonpayable",
      "type": "function"
    },
    {
      "inputs": [
        {
          "internalType": "address",
          "name": "newOwner",
          "type": "address"
        }
      ],
      "name": "transferOwnership",
      "outputs": [],
      "stateMutability": "nonpayable",
      "type": "function"
    },
    {
      "inputs": [
        {
          "internalType": "bool",
          "name": "_disabled",
          "type": "bool"
        },
        {
          "internalType": "address",
          "name": "_token",
          "type": "address"
        },
        {
          "internalType": "uint256",
          "name": "_amount",
          "type": "uint256"
        }
      ],
      "name": "updateFaucet",
      "outputs": [],
      "stateMutability": "nonpayable",
      "type": "function"
    },
    {
      "inputs": [
        {
          "internalType": "uint256",
          "name": "_waitTime",
          "type": "uint256"
        }
      ],
      "name": "updateWaitTime",
      "outputs": [],
      "stateMutability": "nonpayable",
      "type": "function"
    },
    {
      "inputs": [],
      "name": "waitTime",
      "outputs": [
        {
          "internalType": "uint256",
          "name": "",
          "type": "uint256"
        }
      ],
      "stateMutability": "view",
      "type": "function"
    }
  ],
  "bytecode": "0x6080604052610e1060015534801561001657600080fd5b50610020336100d6565b60408051606081018252600180825260006020830181815293830181815260028054938401815591829052925191027f405787fa12a823e0f2b7631cc41b3ba8828b3321ca811111fa75cd3aa3bb5ace8101805494516001600160a01b031661010002610100600160a81b0319931515939093166001600160a81b03199095169490941791909117909255517f405787fa12a823e0f2b7631cc41b3ba8828b3321ca811111fa75cd3aa3bb5acf90910155610126565b600080546001600160a01b038381166001600160a01b0319831681178455604051919092169283917f8be0079c531659141344cd1fd0a4f28419497f9722a3daafe3b4186f6b6457e09190a35050565b610988806101356000396000f3fe608060405234801561001057600080fd5b50600436106100935760003560e01c80638da5cb5b116100665780638da5cb5b146100f0578063bd79ad051461010b578063c4a71da214610120578063ccca123b14610133578063f2fde38b1461014a57600080fd5b80632d291cad14610098578063580f3904146100c05780636e372ef8146100d5578063715018a6146100e8575b600080fd5b6100ab6100a63660046107aa565b61015d565b60405190151581526020015b60405180910390f35b6100d36100ce3660046107aa565b61016e565b005b6100d36100e33660046107cc565b61032e565b6100d36103a4565b6000546040516001600160a01b0390911681526020016100b7565b6101136103da565b6040516100b791906107e5565b6100d361012e366004610857565b610461565b61013c60015481565b6040519081526020016100b7565b6100d36101583660046107aa565b61064d565b6000610168826106e8565b92915050565b610177816106e8565b6101d75760405162461bcd60e51b815260206004820152602660248201527f596f752063616e206f6e6c792072657175657374206f6e63652065766572792060448201526518903437bab960d11b60648201526084015b60405180910390fd5b6001546101e490426108ab565b6001600160a01b0382166000908152600360205260408120919091555b60025481101561032a576002818154811061021e5761021e6108be565b6000918252602082206002909102015460ff1615159003610318576002818154811061024c5761024c6108be565b906000526020600020906002020160000160019054906101000a90046001600160a01b03166001600160a01b031663a9059cbb8360028481548110610293576102936108be565b60009182526020909120600160029092020101546040516001600160e01b031960e085901b1681526001600160a01b03909216600483015260248201526044016020604051808303816000875af11580156102f2573d6000803e3d6000fd5b505050506040513d601f19601f8201168201806040525081019061031691906108d4565b505b80610322816108f1565b915050610201565b5050565b6000546001600160a01b031633146103585760405162461bcd60e51b81526004016101ce9061090a565b6000811161039f5760405162461bcd60e51b815260206004820152601460248201527305761697454696d652073686f756c6420677420360641b60448201526064016101ce565b600155565b6000546001600160a01b031633146103ce5760405162461bcd60e51b81526004016101ce9061090a565b6103d8600061073e565b565b60606002805480602002602001604051908101604052809291908181526020016000905b828210156104585760008481526020908190206040805160608101825260028602909201805460ff81161515845261010090046001600160a01b0316838501526001908101549183019190915290835290920191016103fe565b50505050905090565b6000546001600160a01b0316331461048b5760405162461bcd60e51b81526004016101ce9061090a565b6001600160a01b038216600090815260046020526040902054816104f15760405162461bcd60e51b815260206004820152601960248201527f46617563657420416d6f756e742073686f756c6420677420300000000000000060448201526064016101ce565b806000036105e1576040805160608101825285151581526001600160a01b03808616602083019081529282018581526002805460018181018355600083905285519183027f405787fa12a823e0f2b7631cc41b3ba8828b3321ca811111fa75cd3aa3bb5ace81018054985190961661010002610100600160a81b0319931515939093166001600160a81b0319909816979097179190911790935590517f405787fa12a823e0f2b7631cc41b3ba8828b3321ca811111fa75cd3aa3bb5acf90940193909355915490916105c29161093f565b6001600160a01b03851660009081526004602052604090205550610647565b83600282815481106105f5576105f56108be565b906000526020600020906002020160000160006101000a81548160ff0219169083151502179055508160028281548110610631576106316108be565b9060005260206000209060020201600101819055505b50505050565b6000546001600160a01b031633146106775760405162461bcd60e51b81526004016101ce9061090a565b6001600160a01b0381166106dc5760405162461bcd60e51b815260206004820152602660248201527f4f776e61626c653a206e6577206f776e657220697320746865207a65726f206160448201526564647265737360d01b60648201526084016101ce565b6106e58161073e565b50565b6001600160a01b038116600090815260036020526040812054810361070f57506001919050565b6001600160a01b038216600090815260036020526040902054421061073657506001919050565b506000919050565b600080546001600160a01b038381166001600160a01b0319831681178455604051919092169283917f8be0079c531659141344cd1fd0a4f28419497f9722a3daafe3b4186f6b6457e09190a35050565b80356001600160a01b03811681146107a557600080fd5b919050565b6000602082840312156107bc57600080fd5b6107c58261078e565b9392505050565b6000602082840312156107de57600080fd5b5035919050565b602080825282518282018190526000919060409081850190868401855b8281101561083c578151805115158552868101516001600160a01b0316878601528501518585015260609093019290850190600101610802565b5091979650505050505050565b80151581146106e557600080fd5b60008060006060848603121561086c57600080fd5b833561087781610849565b92506108856020850161078e565b9150604084013590509250925092565b634e487b7160e01b600052601160045260246000fd5b8082018082111561016857610168610895565b634e487b7160e01b600052603260045260246000fd5b6000602082840312156108e657600080fd5b81516107c581610849565b60006001820161090357610903610895565b5060010190565b6020808252818101527f4f776e61626c653a2063616c6c6572206973206e6f7420746865206f776e6572604082015260600190565b818103818111156101685761016861089556fea264697066735822122041a5d1b12098563e61221860e16b9f453e6058dd573f69bf580f89f2f8a69c9064736f6c63430008110033",
  "linkReferences": {},
  "deployedLinkReferences": {}
}