{
  "_format": "hh-sol-artifact-1",
  "contractName": "VariableBorrow",
  "sourceName": "contracts/borrow/VariableBorrow.sol",
  "abi": [
    {
      "inputs": [
        {
          "internalType": "address",
          "name": "_swap",
          "type": "address"
        },
        {
          "internalType": "address",
          "name": "_oracle",
          "type": "address"
        }
      ],
      "stateMutability": "nonpayable",
      "type": "constructor"
    },
    {
      "inputs": [
        {
          "internalType": "uint256",
          "name": "x",
          "type": "uint256"
        }
      ],
      "name": "PRBMathUD60x18__Exp2InputTooBig",
      "type": "error"
    },
    {
      "inputs": [
        {
          "internalType": "uint256",
          "name": "x",
          "type": "uint256"
        }
      ],
      "name": "PRBMathUD60x18__LogInputTooSmall",
      "type": "error"
    },
    {
      "inputs": [
        {
          "internalType": "uint256",
          "name": "prod1",
          "type": "uint256"
        }
      ],
      "name": "PRBMath__MulDivFixedPointOverflow",
      "type": "error"
    },
    {
      "inputs": [
        {
          "internalType": "uint256",
          "name": "prod1",
          "type": "uint256"
        },
        {
          "internalType": "uint256",
          "name": "denominator",
          "type": "uint256"
        }
      ],
      "name": "PRBMath__MulDivOverflow",
      "type": "error"
    },
    {
      "anonymous": false,
      "inputs": [
        {
          "indexed": true,
          "internalType": "address",
          "name": "asset",
          "type": "address"
        },
        {
          "indexed": true,
          "internalType": "address",
          "name": "account",
          "type": "address"
        },
        {
          "indexed": false,
          "internalType": "uint256",
          "name": "amount",
          "type": "uint256"
        }
      ],
      "name": "Borrow",
      "type": "event"
    },
    {
      "anonymous": false,
      "inputs": [
        {
          "indexed": true,
          "internalType": "address",
          "name": "asset",
          "type": "address"
        },
        {
          "indexed": true,
          "internalType": "address",
          "name": "account",
          "type": "address"
        },
        {
          "indexed": true,
          "internalType": "address",
          "name": "colAsset",
          "type": "address"
        },
        {
          "indexed": false,
          "internalType": "uint256",
          "name": "amount",
          "type": "uint256"
        }
      ],
      "name": "CollateralAdd",
      "type": "event"
    },
    {
      "anonymous": false,
      "inputs": [
        {
          "indexed": true,
          "internalType": "address",
          "name": "asset",
          "type": "address"
        },
        {
          "indexed": true,
          "internalType": "address",
          "name": "account",
          "type": "address"
        },
        {
          "indexed": true,
          "internalType": "address",
          "name": "colAsset",
          "type": "address"
        },
        {
          "indexed": false,
          "internalType": "uint256",
          "name": "amount",
          "type": "uint256"
        }
      ],
      "name": "CollateralRemove",
      "type": "event"
    },
    {
      "anonymous": false,
      "inputs": [
        {
          "indexed": true,
          "internalType": "address",
          "name": "asset",
          "type": "address"
        },
        {
          "indexed": true,
          "internalType": "address",
          "name": "account",
          "type": "address"
        },
        {
          "indexed": false,
          "internalType": "uint256",
          "name": "amount",
          "type": "uint256"
        }
      ],
      "name": "Liquidate",
      "type": "event"
    },
    {
      "anonymous": false,
      "inputs": [
        {
          "indexed": true,
          "internalType": "address",
          "name": "previousOwner",
          "type": "address"
        },
        {
          "indexed": true,
          "internalType": "address",
          "name": "newOwner",
          "type": "address"
        }
      ],
      "name": "OwnershipTransferred",
      "type": "event"
    },
    {
      "anonymous": false,
      "inputs": [
        {
          "indexed": true,
          "internalType": "address",
          "name": "asset",
          "type": "address"
        },
        {
          "indexed": true,
          "internalType": "address",
          "name": "account",
          "type": "address"
        },
        {
          "indexed": false,
          "internalType": "uint256",
          "name": "amount",
          "type": "uint256"
        }
      ],
      "name": "Repay",
      "type": "event"
    },
    {
      "anonymous": false,
      "inputs": [
        {
          "indexed": true,
          "internalType": "address",
          "name": "asset",
          "type": "address"
        },
        {
          "indexed": true,
          "internalType": "address",
          "name": "account",
          "type": "address"
        },
        {
          "indexed": false,
          "internalType": "uint256",
          "name": "debt",
          "type": "uint256"
        }
      ],
      "name": "UpdateDebtPosition",
      "type": "event"
    },
    {
      "inputs": [
        {
          "internalType": "uint256",
          "name": "",
          "type": "uint256"
        }
      ],
      "name": "assetList",
      "outputs": [
        {
          "internalType": "address",
          "name": "",
          "type": "address"
        }
      ],
      "stateMutability": "view",
      "type": "function"
    },
    {
      "inputs": [
        {
          "internalType": "address",
          "name": "",
          "type": "address"
        }
      ],
      "name": "assets",
      "outputs": [
        {
          "internalType": "uint256",
          "name": "debt",
          "type": "uint256"
        },
        {
          "internalType": "uint256",
          "name": "protocolRevenueAmount",
          "type": "uint256"
        },
        {
          "internalType": "uint256",
          "name": "protocolRevenueAmountExtract",
          "type": "uint256"
        },
        {
          "internalType": "uint256",
          "name": "r0",
          "type": "uint256"
        },
        {
          "internalType": "uint256",
          "name": "relativeInterest",
          "type": "uint256"
        },
        {
          "internalType": "uint256",
          "name": "updatedAt",
          "type": "uint256"
        },
        {
          "internalType": "uint16",
          "name": "interestRate",
          "type": "uint16"
        },
        {
          "internalType": "uint16",
          "name": "base",
          "type": "uint16"
        },
        {
          "internalType": "uint16",
          "name": "optimal",
          "type": "uint16"
        },
        {
          "internalType": "uint16",
          "name": "slope1",
          "type": "uint16"
        },
        {
          "internalType": "uint16",
          "name": "slope2",
          "type": "uint16"
        },
        {
          "internalType": "uint8",
          "name": "borrowCredit",
          "type": "uint8"
        },
        {
          "internalType": "uint8",
          "name": "collateralCredit",
          "type": "uint8"
        },
        {
          "internalType": "uint8",
          "name": "penaltyRate",
          "type": "uint8"
        }
      ],
      "stateMutability": "view",
      "type": "function"
    },
    {
      "inputs": [
        {
          "internalType": "address",
          "name": "_asset",
          "type": "address"
        },
        {
          "internalType": "uint256",
          "name": "amount",
          "type": "uint256"
        },
        {
          "components": [
            {
              "internalType": "address",
              "name": "token",
              "type": "address"
            },
            {
              "internalType": "uint256",
              "name": "amount",
              "type": "uint256"
            }
          ],
          "internalType": "struct VariableBorrow.Collateral[]",
          "name": "collaterals",
          "type": "tuple[]"
        },
        {
          "internalType": "address",
          "name": "to",
          "type": "address"
        }
      ],
      "name": "borrow",
      "outputs": [],
      "stateMutability": "nonpayable",
      "type": "function"
    },
    {
      "inputs": [
        {
          "internalType": "address",
          "name": "_asset",
          "type": "address"
        }
      ],
      "name": "extractProtocolRevenue",
      "outputs": [],
      "stateMutability": "nonpayable",
      "type": "function"
    },
    {
      "inputs": [
        {
          "internalType": "address",
          "name": "",
          "type": "address"
        },
        {
          "internalType": "uint256",
          "name": "amount",
          "type": "uint256"
        }
      ],
      "name": "flashFee",
      "outputs": [
        {
          "internalType": "uint256",
          "name": "",
          "type": "uint256"
        }
      ],
      "stateMutability": "view",
      "type": "function"
    },
    {
      "inputs": [
        {
          "internalType": "contract IERC3156FlashBorrower",
          "name": "receiver",
          "type": "address"
        },
        {
          "internalType": "address",
          "name": "token",
          "type": "address"
        },
        {
          "internalType": "uint256",
          "name": "amount",
          "type": "uint256"
        },
        {
          "internalType": "bytes",
          "name": "data",
          "type": "bytes"
        }
      ],
      "name": "flashLoan",
      "outputs": [
        {
          "internalType": "bool",
          "name": "",
          "type": "bool"
        }
      ],
      "stateMutability": "nonpayable",
      "type": "function"
    },
    {
      "inputs": [
        {
          "internalType": "address",
          "name": "_asset",
          "type": "address"
        },
        {
          "internalType": "address",
          "name": "_account",
          "type": "address"
        },
        {
          "internalType": "uint256",
          "name": "delaySeconds",
          "type": "uint256"
        }
      ],
      "name": "getAccountDebt",
      "outputs": [
        {
          "internalType": "uint256",
          "name": "",
          "type": "uint256"
        }
      ],
      "stateMutability": "view",
      "type": "function"
    },
    {
      "inputs": [],
      "name": "getAssetList",
      "outputs": [
        {
          "internalType": "address[]",
          "name": "",
          "type": "address[]"
        }
      ],
      "stateMutability": "view",
      "type": "function"
    },
    {
      "inputs": [
        {
          "internalType": "address",
          "name": "_asset",
          "type": "address"
        }
      ],
      "name": "getAssetsView",
      "outputs": [
        {
          "internalType": "uint256",
          "name": "debt",
          "type": "uint256"
        },
        {
          "internalType": "uint256",
          "name": "r0",
          "type": "uint256"
        },
        {
          "internalType": "uint256",
          "name": "relativeInterest",
          "type": "uint256"
        },
        {
          "internalType": "uint256",
          "name": "updatedAt",
          "type": "uint256"
        },
        {
          "internalType": "uint16",
          "name": "interestRate",
          "type": "uint16"
        },
        {
          "internalType": "uint16",
          "name": "base",
          "type": "uint16"
        },
        {
          "internalType": "uint16",
          "name": "optimal",
          "type": "uint16"
        },
        {
          "internalType": "uint16",
          "name": "slope1",
          "type": "uint16"
        },
        {
          "internalType": "uint16",
          "name": "slope2",
          "type": "uint16"
        },
        {
          "internalType": "uint8",
          "name": "borrowCredit",
          "type": "uint8"
        },
        {
          "internalType": "uint8",
          "name": "collateralCredit",
          "type": "uint8"
        },
        {
          "internalType": "uint8",
          "name": "penaltyRate",
          "type": "uint8"
        }
      ],
      "stateMutability": "view",
      "type": "function"
    },
    {
      "inputs": [
        {
          "internalType": "address",
          "name": "_asset",
          "type": "address"
        },
        {
          "internalType": "address",
          "name": "_account",
          "type": "address"
        }
      ],
      "name": "getCollaterals",
      "outputs": [
        {
          "components": [
            {
              "internalType": "address",
              "name": "token",
              "type": "address"
            },
            {
              "internalType": "uint256",
              "name": "amount",
              "type": "uint256"
            }
          ],
          "internalType": "struct VariableBorrow.Collateral[]",
          "name": "",
          "type": "tuple[]"
        }
      ],
      "stateMutability": "view",
      "type": "function"
    },
    {
      "inputs": [
        {
          "internalType": "address",
          "name": "_asset",
          "type": "address"
        }
      ],
      "name": "getDebt",
      "outputs": [
        {
          "internalType": "uint256",
          "name": "",
          "type": "uint256"
        },
        {
          "internalType": "uint256",
          "name": "",
          "type": "uint256"
        },
        {
          "internalType": "uint256",
          "name": "",
          "type": "uint256"
        }
      ],
      "stateMutability": "view",
      "type": "function"
    },
    {
      "inputs": [
        {
          "internalType": "address",
          "name": "_asset",
          "type": "address"
        },
        {
          "components": [
            {
              "internalType": "address",
              "name": "token",
              "type": "address"
            },
            {
              "internalType": "uint256",
              "name": "amount",
              "type": "uint256"
            }
          ],
          "internalType": "struct VariableBorrow.Collateral[]",
          "name": "collaterals",
          "type": "tuple[]"
        },
        {
          "internalType": "address",
          "name": "to",
          "type": "address"
        }
      ],
      "name": "getMaxAmountOfBorrow",
      "outputs": [
        {
          "internalType": "uint256",
          "name": "",
          "type": "uint256"
        }
      ],
      "stateMutability": "view",
      "type": "function"
    },
    {
      "inputs": [
        {
          "internalType": "address",
          "name": "_asset",
          "type": "address"
        },
        {
          "components": [
            {
              "internalType": "address",
              "name": "token",
              "type": "address"
            },
            {
              "internalType": "uint256",
              "name": "amount",
              "type": "uint256"
            }
          ],
          "internalType": "struct VariableBorrow.Collateral[]",
          "name": "collaterals",
          "type": "tuple[]"
        }
      ],
      "name": "getMaxAmountOfRepay",
      "outputs": [
        {
          "internalType": "uint256",
          "name": "",
          "type": "uint256"
        }
      ],
      "stateMutability": "view",
      "type": "function"
    },
    {
      "inputs": [
        {
          "internalType": "address",
          "name": "_asset",
          "type": "address"
        },
        {
          "internalType": "address",
          "name": "_account",
          "type": "address"
        }
      ],
      "name": "getPositionsView",
      "outputs": [
        {
          "internalType": "uint256",
          "name": "debt",
          "type": "uint256"
        },
        {
          "internalType": "uint256",
          "name": "r0",
          "type": "uint256"
        },
        {
          "internalType": "address[]",
          "name": "collateralTokens",
          "type": "address[]"
        },
        {
          "internalType": "uint256[]",
          "name": "collateralAmounts",
          "type": "uint256[]"
        }
      ],
      "stateMutability": "view",
      "type": "function"
    },
    {
      "inputs": [
        {
          "internalType": "address",
          "name": "_asset",
          "type": "address"
        },
        {
          "internalType": "address",
          "name": "_account",
          "type": "address"
        }
      ],
      "name": "liquidatable",
      "outputs": [
        {
          "internalType": "bool",
          "name": "",
          "type": "bool"
        }
      ],
      "stateMutability": "view",
      "type": "function"
    },
    {
      "inputs": [
        {
          "internalType": "address",
          "name": "_asset",
          "type": "address"
        },
        {
          "internalType": "address",
          "name": "account",
          "type": "address"
        }
      ],
      "name": "liquidatableAmount",
      "outputs": [
        {
          "internalType": "uint256",
          "name": "",
          "type": "uint256"
        }
      ],
      "stateMutability": "view",
      "type": "function"
    },
    {
      "inputs": [
        {
          "internalType": "address",
          "name": "_asset",
          "type": "address"
        },
        {
          "internalType": "address",
          "name": "account",
          "type": "address"
        },
        {
          "internalType": "uint256",
          "name": "amount",
          "type": "uint256"
        },
        {
          "internalType": "address",
          "name": "to",
          "type": "address"
        }
      ],
      "name": "liquidate",
      "outputs": [],
      "stateMutability": "nonpayable",
      "type": "function"
    },
    {
      "inputs": [
        {
          "internalType": "address",
          "name": "token",
          "type": "address"
        }
      ],
      "name": "maxFlashLoan",
      "outputs": [
        {
          "internalType": "uint256",
          "name": "",
          "type": "uint256"
        }
      ],
      "stateMutability": "view",
      "type": "function"
    },
    {
      "inputs": [],
      "name": "oracle",
      "outputs": [
        {
          "internalType": "contract IOracle",
          "name": "",
          "type": "address"
        }
      ],
      "stateMutability": "view",
      "type": "function"
    },
    {
      "inputs": [],
      "name": "owner",
      "outputs": [
        {
          "internalType": "address",
          "name": "",
          "type": "address"
        }
      ],
      "stateMutability": "view",
      "type": "function"
    },
    {
      "inputs": [
        {
          "internalType": "address",
          "name": "",
          "type": "address"
        },
        {
          "internalType": "address",
          "name": "",
          "type": "address"
        }
      ],
      "name": "positions",
      "outputs": [
        {
          "internalType": "uint256",
          "name": "debt",
          "type": "uint256"
        },
        {
          "internalType": "uint256",
          "name": "r0",
          "type": "uint256"
        }
      ],
      "stateMutability": "view",
      "type": "function"
    },
    {
      "inputs": [],
      "name": "renounceOwnership",
      "outputs": [],
      "stateMutability": "nonpayable",
      "type": "function"
    },
    {
      "inputs": [
        {
          "internalType": "address",
          "name": "_asset",
          "type": "address"
        },
        {
          "internalType": "uint256",
          "name": "amountMax",
          "type": "uint256"
        },
        {
          "components": [
            {
              "internalType": "address",
              "name": "token",
              "type": "address"
            },
            {
              "internalType": "uint256",
              "name": "amount",
              "type": "uint256"
            }
          ],
          "internalType": "struct VariableBorrow.Collateral[]",
          "name": "collaterals",
          "type": "tuple[]"
        },
        {
          "internalType": "address",
          "name": "to",
          "type": "address"
        }
      ],
      "name": "repay",
      "outputs": [
        {
          "internalType": "uint256",
          "name": "",
          "type": "uint256"
        }
      ],
      "stateMutability": "nonpayable",
      "type": "function"
    },
    {
      "inputs": [
        {
          "internalType": "address",
          "name": "_oracle",
          "type": "address"
        }
      ],
      "name": "setOracle",
      "outputs": [],
      "stateMutability": "nonpayable",
      "type": "function"
    },
    {
      "inputs": [
        {
          "internalType": "address",
          "name": "_router",
          "type": "address"
        }
      ],
      "name": "setRouter",
      "outputs": [],
      "stateMutability": "nonpayable",
      "type": "function"
    },
    {
      "inputs": [],
      "name": "swap",
      "outputs": [
        {
          "internalType": "contract ISwapForBorrow",
          "name": "",
          "type": "address"
        }
      ],
      "stateMutability": "view",
      "type": "function"
    },
    {
      "inputs": [
        {
          "internalType": "address",
          "name": "newOwner",
          "type": "address"
        }
      ],
      "name": "transferOwnership",
      "outputs": [],
      "stateMutability": "nonpayable",
      "type": "function"
    },
    {
      "inputs": [
        {
          "internalType": "address",
          "name": "_asset",
          "type": "address"
        },
        {
          "internalType": "uint16",
          "name": "base",
          "type": "uint16"
        },
        {
          "internalType": "uint16",
          "name": "optimal",
          "type": "uint16"
        },
        {
          "internalType": "uint16",
          "name": "slope1",
          "type": "uint16"
        },
        {
          "internalType": "uint16",
          "name": "slope2",
          "type": "uint16"
        },
        {
          "internalType": "uint8",
          "name": "borrowCredit",
          "type": "uint8"
        },
        {
          "internalType": "uint8",
          "name": "collateralCredit",
          "type": "uint8"
        },
        {
          "internalType": "uint8",
          "name": "penaltyRate",
          "type": "uint8"
        }
      ],
      "name": "updateAsset",
      "outputs": [],
      "stateMutability": "nonpayable",
      "type": "function"
    },
    {
      "inputs": [
        {
          "internalType": "address",
          "name": "asset",
          "type": "address"
        },
        {
          "internalType": "uint256",
          "name": "availability",
          "type": "uint256"
        }
      ],
      "name": "updateInterest",
      "outputs": [
        {
          "internalType": "bool",
          "name": "",
          "type": "bool"
        }
      ],
      "stateMutability": "nonpayable",
      "type": "function"
    },
    {
      "inputs": [
        {
          "internalType": "address",
          "name": "_protocolRevenueAddress",
          "type": "address"
        },
        {
          "internalType": "uint8",
          "name": "_protocolRevenueRate",
          "type": "uint8"
        },
        {
          "internalType": "uint8",
          "name": "_protocolRevenueFlashRate",
          "type": "uint8"
        },
        {
          "internalType": "uint16",
          "name": "_flashLoanFeeRate",
          "type": "uint16"
        }
      ],
      "name": "updateProtocolRevenue",
      "outputs": [],
      "stateMutability": "nonpayable",
      "type": "function"
    }
  ],
  "bytecode": "0x6080604052600480546001600160a01b0319169055600580546001600160c01b0319166204991960a11b1790553480156200003957600080fd5b5060405162004820380380620048208339810160408190526200005c9162000106565b620000673362000099565b600680546001600160a01b039384166001600160a01b031991821617909155600780549290931691161790556200013e565b600080546001600160a01b038381166001600160a01b0319831681178455604051919092169283917f8be0079c531659141344cd1fd0a4f28419497f9722a3daafe3b4186f6b6457e09190a35050565b80516001600160a01b03811681146200010157600080fd5b919050565b600080604083850312156200011a57600080fd5b6200012583620000e9565b91506200013560208401620000e9565b90509250929050565b6146d2806200014e6000396000f3fe608060405234801561001057600080fd5b50600436106101da5760003560e01c80638119c06511610104578063bd77bc67116100a2578063d9d98ce411610071578063d9d98ce4146105da578063f11b8188146105ed578063f2fde38b14610700578063f83a10ca1461071357600080fd5b8063bd77bc671461058e578063c0d78655146105a1578063c323c0a9146105b4578063c64fa29a146105c757600080fd5b80638da5cb5b116100de5780638da5cb5b1461052957806398d1ea031461053a5780639a78e72e1461054d578063a0b4b3011461057b57600080fd5b80638119c065146104e057806382df39de146104f357806385e6ae9a1461050657600080fd5b80634bd214451161017c57806363d47f411161014b57806363d47f4114610487578063715018a61461049a5780637adbf973146104a25780637dc0d1d0146104b557600080fd5b80634bd21445146103f75780634c0f2a021461043e5780635cffe9de14610451578063613255ab1461047457600080fd5b80633765c0b8116101b85780633765c0b8146103a75780633de2f6b2146103bc5780633f5706f1146103d15780634073f424146103e457600080fd5b806316f1c4ac146101df5780631e8ed2f8146102055780633065b22214610225575b600080fd5b6101f26101ed366004613dc7565b610726565b6040519081526020015b60405180910390f35b610218610213366004613e08565b6107a9565b6040516101fc9190613e41565b61033c610233366004613e99565b6001600160a01b031660009081526001602081815260409283902083516101c08101855281548082529382015492810192909252600281015493820193909352600383015460608201819052600484015460808301819052600585015460a0840181905260069095015461ffff80821660c08601819052620100008304821660e08701819052600160201b840483166101008801819052600160301b850484166101208901819052600160401b8604909416610140890181905260ff600160501b870481166101608b01819052600160581b880482166101808c01819052600160601b9098049091166101a0909a018a9052999b979a9699969893979296919590939192909190565b604080519c8d5260208d019b909b52998b019890985260608a019690965261ffff94851660808a015292841660a089015290831660c0880152821660e08701521661010085015260ff90811661012085015290811661014084015216610160820152610180016101fc565b6103af610864565b6040516101fc9190613efa565b6103cf6103ca366004613f0d565b610930565b005b6103cf6103df366004613fac565b610cf4565b6101f26103f2366004614020565b61123b565b610429610405366004613e08565b60036020908152600092835260408084209091529082529020805460019091015482565b604080519283526020830191909152016101fc565b6101f261044c366004613e08565b611366565b61046461045f366004614075565b6114cc565b60405190151581526020016101fc565b6101f2610482366004613e99565b611621565b6101f2610495366004614114565b611690565b6103cf61183e565b6103cf6104b0366004613e99565b611874565b6007546104c8906001600160a01b031681565b6040516001600160a01b0390911681526020016101fc565b6006546104c8906001600160a01b031681565b610464610501366004613e08565b6118c0565b610519610514366004613e08565b6119d4565b6040516101fc9493929190614171565b6000546001600160a01b03166104c8565b6103cf6105483660046141f6565b611bf0565b61056061055b366004613e99565b611dc8565b604080519384526020840192909252908201526060016101fc565b6104c861058936600461424c565b611dec565b6103cf61059c366004613e99565b611e16565b6103cf6105af366004613e99565b611f21565b6101f26105c2366004613fac565b611f6d565b6103cf6105d5366004614265565b6124d2565b6101f26105e83660046142fe565b612699565b6106836105fb366004613e99565b60016020819052600091825260409091208054918101546002820154600383015460048401546005850154600690950154939492939192909161ffff80821691620100008104821691600160201b8204811691600160301b8104821691600160401b8204169060ff600160501b8204811691600160581b8104821691600160601b909104168e565b604080519e8f5260208f019d909d529b8d019a909a5260608c019890985260808b019690965260a08a019490945261ffff92831660c08a015290821660e089015281166101008801529081166101208701521661014085015260ff908116610160850152908116610180840152166101a08201526101c0016101fc565b6103cf61070e366004613e99565b6126c2565b6104646107213660046142fe565b61275d565b6001600160a01b0380841660009081526001602090815260408083206003835281842094871684529390915281209091908261076283866127af565b60018301549091501561079a578154600183015460009161078e91610788908590612823565b90612838565b94506107a29350505050565b600093505050505b9392505050565b6001600160a01b03808316600090815260036020908152604080832093851683529281528282208351606081810186528254825260018301548285015260028301805487518187028101870189528181529297939593860193879084015b8282101561084f576000848152602090819020604080518082019091526002850290910180546001600160a01b03168252600190810154828401529083529092019101610807565b50505091525050604001519150505b92915050565b60025460609060008167ffffffffffffffff8111156108855761088561432a565b6040519080825280602002602001820160405280156108ae578160200160208202803683370190505b50905060005b8281101561092957600281815481106108cf576108cf614340565b9060005260206000200160009054906101000a90046001600160a01b03168282815181106108ff576108ff614340565b6001600160a01b0390921660209283029190910190910152806109218161436c565b9150506108b4565b5092915050565b6001600160a01b038416600090815260016020526040902060058101546109725760405162461bcd60e51b815260040161096990614385565b60405180910390fd5b6001600160a01b03808616600090815260036020908152604080832093881683529290522080546109cf5760405162461bcd60e51b81526020600482015260076024820152661393d7d111509560ca1b6044820152606401610969565b60006109dc8360006127af565b905060006109ff836000015461078885600101548561282390919063ffffffff16565b9050610a0b8187612844565b95506000610a8a84600201805480602002602001604051908101604052809291908181526020016000905b82821015610a7e576000848152602090819020604080518082019091526002850290910180546001600160a01b03168252600190810154828401529083529092019101610a36565b505050508a848a61285a565b60055486546003880154929350606492600160a01b90920460ff1691610ab7908290610788908990612823565b610ac191906143ae565b610acb91906143c1565b610ad591906143ee565b856001016000828254610ae89190614410565b9091555050845460038601548891610b0591610788908790612823565b610b0f91906143ae565b85556003850183905560018401839055610b2987836143ae565b845560065460405163173aba7160e21b8152610bad918b916001600160a01b0390911690635ceae9c490610b659084908d903390600401614423565b6020604051808303816000875af1158015610b84573d6000803e3d6000fd5b505050506040513d601f19601f82011682018060405250810190610ba89190614446565b612971565b5060005b6002850154811015610c4a576000856002018281548110610bd457610bd4614340565b90600052602060002090600202019050600081600101541115610c37576001810154600090610c039085612838565b8254909150610c1c906001600160a01b03168a83612b21565b80826001016000828254610c3091906143ae565b9091555050505b5080610c428161436c565b915050610bb1565b50876001600160a01b0316896001600160a01b03167faef3faf684172084346f7dc2cc3bb1328d1cc23caec12dd9a82d4a4e56c00b1789604051610c9091815260200190565b60405180910390a3856001600160a01b0316896001600160a01b03167f9f7adc8515726b2aee7b87682def818614c26952b11753537a86460e6e497c358660000154604051610ce191815260200190565b60405180910390a3505050505050505050565b6001600160a01b03851660009081526001602052604090206005810154610d2d5760405162461bcd60e51b815260040161096990614385565b6001600160a01b038216331480610d4e57506005546001600160a01b031633145b610d8c5760405162461bcd60e51b815260206004820152600f60248201526e5045524d495353494f4e2044454e5960881b6044820152606401610969565b6001600160a01b0380871660009081526003602090815260408083209386168352929052908120905b84811015610f145736868683818110610dd057610dd0614340565b90506040020190508260020180549050821015610ec057602081013515610ebb57826002018281548110610e0657610e06614340565b6000918252602091829020600290910201546001600160a01b031690610e2e90830183613e99565b6001600160a01b031614610e545760405162461bcd60e51b81526004016109699061445f565b610e7b333060208401803590610e6a9086613e99565b6001600160a01b0316929190612b89565b8060200135836002018381548110610e9557610e95614340565b90600052602060002090600202016001016000828254610eb59190614410565b90915550505b610f01565b610ed6333060208401803590610e6a9086613e99565b600280840180546001810182556000918252602090912083929190910201610efe828261448b565b50505b5080610f0c8161436c565b915050610db5565b5085156110f0576000610f288360006127af565b9050600080836000015411610f3d5787610f5f565b825460018401548991610f5591610788908690612823565b610f5f9190614410565b60055485546003870154929350606492600160a01b90920460ff1691610f8c908290610788908890612823565b610f9691906143ae565b610fa091906143c1565b610faa91906143ee565b846001016000828254610fbd9190614410565b9091555050835460038501548991610fda91610788908690612823565b610fe49190614410565b84556003840182905560028301805460408051602080840282018101909252828152611067939092909160009084015b8282101561105c576000848152602090819020604080518082019091526002850290910180546001600160a01b03168252600190810154828401529083529092019101611014565b505050508a83612bc7565b156110a85760405162461bcd60e51b8152602060048201526011602482015270125394d5519197d0d3d313105511549053607a1b6044820152606401610969565b60018301829055808355600654604051636c665a5560e01b81526110ec918b916001600160a01b0390911690636c665a5590610b659084908e903390600401614423565b5050505b826001600160a01b0316876001600160a01b03167f312a5e5e1079f5dda4e95dbbd0b908b291fd5b992ef22073643ab691572c5b528860405161113591815260200190565b60405180910390a3826001600160a01b0316876001600160a01b03167f9f7adc8515726b2aee7b87682def818614c26952b11753537a86460e6e497c35836000015460405161118691815260200190565b60405180910390a360005b8481101561123157368686838181106111ac576111ac614340565b6040029190910191506111c490506020820182613e99565b6001600160a01b0316856001600160a01b03168a6001600160a01b03167f95721932839ab100f851020c6273ade398de93043a388f8403f0be0ac60b6d04846020013560405161121691815260200190565b60405180910390a450806112298161436c565b915050611191565b5050505050505050565b600080611249856001612bf1565b50506001600160a01b03861660009081526003602090815260408083203384528252808320600201805482518185028101850190935280835294955092936112e3939192859084015b828210156112da576000848152602090819020604080518082019091526002850290910180546001600160a01b03168252600190810154828401529083529092019101611292565b50505050612cc0565b50905060006113438686808060200260200160405190810160405280939291908181526020016000905b828210156113395761132a604083028601368190038101906144c1565b8152602001906001019061130d565b5050505050612cc0565b5090508261135182846143ae565b61135b91906143ee565b979650505050505050565b6001600160a01b038083166000908152600160209081526040808320600383528184209486168452939091528120909190826113a283826127af565b905060006113c5836000015461078885600101548561282390919063ffffffff16565b905060008060006113d68a85612bf1565b92509250925060008061144d8860020180548060200260200160405190810160405280929190818152602001600090828210156112da576000848152602090819020604080518082019091526002850290910180546001600160a01b03168252600190810154828401529083529092019101611292565b915091508185101561146b576000995050505050505050505061085e565b60006114bb848361148488670f43fc2c04ee0000612838565b61148e91906143ae565b61149891906143c1565b846114ab89670f43fc2c04ee0000612838565b6114b591906143ae565b90612823565b9d9c50505050505050505050505050565b60006114d785611621565b8411156115165760405162461bcd60e51b815260206004820152600d60248201526c105353d5539517d15610d0d151609a1b6044820152606401610969565b60006115228686612699565b905061152f868689612e44565b6040516323e30c8b60e01b81527f439148f0bbc682ca079e46d6e2c2f0c1e3b820f1a291b069d8882abf8cf18dd9906001600160a01b038916906323e30c8b906115879033908b908b9088908c908c90600401614527565b6020604051808303816000875af11580156115a6573d6000803e3d6000fd5b505050506040513d601f19601f820116820180604052508101906115ca9190614446565b146116085760405162461bcd60e51b815260206004820152600e60248201526d24a72b20a624a22fa922aa2aa92760911b6044820152606401610969565b6116148686838a612ebb565b5060019695505050505050565b600654604051632b1c511f60e01b81526001600160a01b0383811660048301526000921690632b1c511f90602401602060405180830381865afa15801561166c573d6000803e3d6000fd5b505050506040513d601f19601f8201168201806040525081019061085e9190614446565b60008061169e866001612bf1565b50506001600160a01b0387811660009081526003602090815260408083209388168352928152828220600201805484518184028101840190955280855294955091936117309392918590840182156112da576000848152602090819020604080518082019091526002850290910180546001600160a01b03168252600190810154828401529083529092019101611292565b50905060006117868787808060200260200160405190810160405280939291908181526020016000905b8282101561133957611777604083028601368190038101906144c1565b8152602001906001019061175a565b50600654604051632b1c511f60e01b81526001600160a01b038b8116600483015292935060009290911690632b1c511f90602401602060405180830381865afa1580156117d7573d6000803e3d6000fd5b505050506040513d601f19601f820116820180604052508101906117fb9190614446565b905060008461180a8486614410565b61181491906143ee565b90508082111561182a5794506118369350505050565b50935061183692505050565b949350505050565b6000546001600160a01b031633146118685760405162461bcd60e51b815260040161096990614583565b6118726000612f95565b565b6000546001600160a01b0316331461189e5760405162461bcd60e51b815260040161096990614583565b600780546001600160a01b0319166001600160a01b0392909216919091179055565b6001600160a01b0382166000908152600160205260408120600581015482036118ed57600091505061085e565b6001600160a01b038085166000908152600360209081526040808320938716835292905290812080549091036119285760009250505061085e565b60006119358360006127af565b90506000611958836000015461078885600101548561282390919063ffffffff16565b905061135b83600201805480602002602001604051908101604052809291908181526020016000905b828210156119c9576000848152602090819020604080518082019091526002850290910180546001600160a01b03168252600190810154828401529083529092019101611981565b505050508883612bc7565b6001600160a01b03808316600090815260036020908152604080832093851683529281528282208351606081810186528254825260018301548285015260028301805487518187028101870189528181529697889793968796899695909492860193909291879084015b82821015611a86576000848152602090819020604080518082019091526002850290910180546001600160a01b03168252600190810154828401529083529092019101611a3e565b5050509152505080516020820151604083015151919750955090915067ffffffffffffffff811115611aba57611aba61432a565b604051908082528060200260200182016040528015611ae3578160200160208202803683370190505b50925080604001515167ffffffffffffffff811115611b0457611b0461432a565b604051908082528060200260200182016040528015611b2d578160200160208202803683370190505b50915060005b816040015151811015611be55781604001518181518110611b5657611b56614340565b602002602001015160000151848281518110611b7457611b74614340565b60200260200101906001600160a01b031690816001600160a01b03168152505081604001518181518110611baa57611baa614340565b602002602001015160200151838281518110611bc857611bc8614340565b602090810291909101015280611bdd8161436c565b915050611b33565b505092959194509250565b6000546001600160a01b03163314611c1a5760405162461bcd60e51b815260040161096990614583565b6001600160a01b038416611c705760405162461bcd60e51b815260206004820152601a60248201527f43414e4e4f5420424520544845205a45524f20414444524553530000000000006044820152606401610969565b60648360ff161115611cb95760405162461bcd60e51b8152602060048201526012602482015271052415445204245545745454e20302d3130360741b6044820152606401610969565b60648260ff161115611d025760405162461bcd60e51b8152602060048201526012602482015271052415445204245545745454e20302d3130360741b6044820152606401610969565b6127108161ffff161115611d585760405162461bcd60e51b815260206004820152601860248201527f4645452052415445204245545745454e20302d313030303000000000000000006044820152606401610969565b600480546001600160a01b0319166001600160a01b0395909516949094179093556005805461ffff60a01b1916600160a01b60ff9485160260ff60a81b191617600160a81b92909316919091029190911761ffff60b01b1916600160b01b61ffff90931692909202919091179055565b600080600080600080611dda87612fe5565b919750955093505050505b9193909250565b60028181548110611dfc57600080fd5b6000918252602090912001546001600160a01b0316905081565b6000611e2182612fe5565b9250505060008111611e6e5760405162461bcd60e51b8152602060048201526016602482015275282927aa27a1a7a62fa0a6a7aaa72a2fa4a729aaa32360511b6044820152606401610969565b600654600480546040516309a6e8c360e21b81526001600160a01b039384169363269ba30c93611ea693889388939091169101614423565b6020604051808303816000875af1158015611ec5573d6000803e3d6000fd5b505050506040513d601f19601f82011682018060405250810190611ee991906145b8565b506001600160a01b038216600090815260016020526040812060028101805491928492611f17908490614410565b9091555050505050565b6000546001600160a01b03163314611f4b5760405162461bcd60e51b815260040161096990614583565b600580546001600160a01b0319166001600160a01b0392909216919091179055565b6001600160a01b03851660009081526001602052604081206005810154611fa65760405162461bcd60e51b815260040161096990614385565b6001600160a01b038316331480611fc757506005546001600160a01b031633145b6120055760405162461bcd60e51b815260206004820152600f60248201526e5045524d495353494f4e2044454e5960881b6044820152606401610969565b6001600160a01b038088166000908152600360209081526040808320938716835292905290812090871580159061203c5750815415155b1561215c57600061204e8460006127af565b90506000612071846000015461078886600101548561282390919063ffffffff16565b905061207d818b612844565b60055486546003880154929550606492600160a01b90920460ff16916120aa908290610788908890612823565b6120b491906143ae565b6120be91906143c1565b6120c891906143ee565b8560010160008282546120db9190614410565b90915550508454600386015484916120f891610788908690612823565b61210291906143ae565b8555600385018290556001840182905561211c83826143ae565b845560065460405163173aba7160e21b8152612158918d916001600160a01b0390911690635ceae9c490610b6590849089903390600401614423565b5050505b60005b868110156122b4573688888381811061217a5761217a614340565b90506040020190506000816020013511156122a1578360020182815481106121a4576121a4614340565b6000918252602091829020600290910201546001600160a01b0316906121cc90830183613e99565b6001600160a01b0316146121f25760405162461bcd60e51b81526004016109699061445f565b806020013584600201838154811061220c5761220c614340565b906000526020600020906002020160010154101561223c5760405162461bcd60e51b81526004016109699061445f565b61226133602083018035906122519085613e99565b6001600160a01b03169190612b21565b806020013584600201838154811061227b5761227b614340565b9060005260206000209060020201600101600082825461229b91906143ae565b90915550505b50806122ac8161436c565b91505061215f565b5060006122c58a8460000154612bf1565b5050905060006123398460020180548060200260200160405190810160405280929190818152602001600090828210156112da576000848152602090819020604080518082019091526002850290910180546001600160a01b03168252600190810154828401529083529092019101611292565b509050818110156123815760405162461bcd60e51b815260206004820152601260248201527121a7a62620aa22a920a639afa4a729aaa32360711b6044820152606401610969565b866001600160a01b03168b6001600160a01b03167f05f2eeda0e08e4b437f487c8d7d29b14537d15e3488170dc3de5dbdf8dac4684856040516123c691815260200190565b60405180910390a3866001600160a01b03168b6001600160a01b03167f9f7adc8515726b2aee7b87682def818614c26952b11753537a86460e6e497c35866000015460405161241791815260200190565b60405180910390a360005b888110156124c257368a8a8381811061243d5761243d614340565b60400291909101915061245590506020820182613e99565b6001600160a01b0316896001600160a01b03168e6001600160a01b03167fa7b425c4185912d8419a8be1114567a0aef13032c507b4817edc76385031f0f884602001356040516124a791815260200190565b60405180910390a450806124ba8161436c565b915050612422565b50919a9950505050505050505050565b6000546001600160a01b031633146124fc5760405162461bcd60e51b815260040161096990614583565b6001600160a01b0388166000908152600160205260408120600581015490910361256c57600280546001810182556000919091527f405787fa12a823e0f2b7631cc41b3ba8828b3321ca811111fa75cd3aa3bb5ace0180546001600160a01b0319166001600160a01b038b161790555b60068101805465ffffffff000019166201000061ffff8b81169190910265ffff00000000191691909117600160201b8a8316021769ffffffff0000000000001916600160301b8983160269ffff0000000000000000191617600160401b9188169190910217905560048101546000036125fb57670de0b6b3a76400006003820181905560048201554260058201555b600654604051632b1c511f60e01b81526001600160a01b03808c16600483015261264a928c92911690632b1c511f90602401602060405180830381865afa158015610b84573d6000803e3d6000fd5b50600601805461ffff60501b1916600160501b60ff9586160260ff60581b191617600160581b938516939093029290921760ff60601b1916600160601b91909316029190911790555050505050565b600554600090612710906126b890600160b01b900461ffff16846143c1565b6107a291906143ee565b6000546001600160a01b031633146126ec5760405162461bcd60e51b815260040161096990614583565b6001600160a01b0381166127515760405162461bcd60e51b815260206004820152602660248201527f4f776e61626c653a206e6577206f776e657220697320746865207a65726f206160448201526564647265737360d01b6064820152608401610969565b61275a81612f95565b50565b6006546000906001600160a01b031633146127a55760405162461bcd60e51b815260206004820152600860248201526704e4f545f535741560c41b6044820152606401610969565b6107a28383612971565b6005820154600090429082906127c58584614410565b6127cf91906143ae565b905061281a85600401546107886301e1338084670de0b6b3a76400006127f591906143c1565b6127ff91906143ee565b60068901546128149061ffff16612710612823565b906130cb565b95945050505050565b60006107a283670de0b6b3a76400008461310d565b60006107a283836131da565b600081831061285357816107a2565b5090919050565b60008060008061286a8787612bf1565b92509250925060008061287c8a612cc0565b9092509050600061289a848361148488670f43fc2c04ee0000612838565b9050828610156128df5760405162461bcd60e51b815260206004820152601060248201526f4e4f545f4c4951554944415441424c4560801b6044820152606401610969565b8781101561291f5760405162461bcd60e51b815260206004820152600d60248201526c105353d5539517d15610d15151609a1b6044820152606401610969565b600061292f83610788878c6143c1565b90508381118061293d575083155b1561295957670de0b6b3a7640000975050505050505050611836565b6129638185612823565b975050505050505050611836565b6001600160a01b03821660009081526001602052604081206005810154820361299e57600091505061085e565b80546000906129ae908590614410565b82546129bc906127106143c1565b6129c691906143ee565b6006830154909150600090600160201b900461ffff168210612a7e5760068301546129fe90600160201b900461ffff166127106145da565b600684015461ffff91821691600160401b8204811691612a2791600160201b90910416856143ae565b612a3191906143c1565b612a3b91906143ee565b600684015461ffff600160301b8204811691612a619162010000909104166127106145f5565b612a6b91906145f5565b61ffff16612a799190614410565b612ad6565b600683015461ffff600160201b8204811691612aa391600160301b90910416846143c1565b612aad91906143ee565b6006840154612ac89062010000900461ffff166127106145f5565b61ffff16612ad69190614410565b600684015490915061ffff808316911614612b1557612af68360006127af565b600484015560068301805461ffff191661ffff83161790554260058401555b50600195945050505050565b6040516001600160a01b038316602482015260448101829052612b8490849063a9059cbb60e01b906064015b60408051601f198184030181529190526020810180516001600160e01b03166001600160e01b0319909316929092179091526132a0565b505050565b6040516001600160a01b0380851660248301528316604482015260648101829052612bc19085906323b872dd60e01b90608401612b4d565b50505050565b600080612bd48484612bf1565b505090506000612be386612cc0565b509091101595945050505050565b6001600160a01b038281166000818152600160205260408082206006015460075491516341976e0960e01b81526004810194909452919384938493600160501b900460ff1692909116906341976e0990602401602060405180830381865afa158015612c61573d6000803e3d6000fd5b505050506040513d601f19601f82011682018060405250810190612c859190614446565b915060ff8116612c9583876143c1565b612c9f91906143c1565b9350612cb660ff8216670de0b6b3a76400006143c1565b9250509250925092565b600080808080805b8651811015612e13576000878281518110612ce557612ce5614340565b60209081029190910181015180516001600160a01b03908116600090815260019093526040808420600754845192516341976e0960e01b815292841660048401529395509392909116906341976e0990602401602060405180830381865afa158015612d55573d6000803e3d6000fd5b505050506040513d601f19601f82011682018060405250810190612d799190614446565b8360200151612d8891906143c1565b6006830154909150600090612da8908390600160581b900460ff166143c1565b6006840154909150600090612dc890600160601b900460ff166064614610565b612dd59060ff16836143c1565b9050612de1838a614410565b9850612ded8289614410565b9750612df98188614410565b965050505050508080612e0b9061436c565b915050612cc8565b50818315612e3557612e30612e298560646143c1565b8390612823565b612e38565b60005b94509450505050915091565b600654604051636c665a5560e01b81526001600160a01b0390911690636c665a5590612e7890869086908690600401614423565b6020604051808303816000875af1158015612e97573d6000803e3d6000fd5b505050506040513d601f19601f82011682018060405250810190612bc19190614446565b6001600160a01b0384166000908152600160205260409020600554606490612eed90600160a81b900460ff16856143c1565b612ef791906143ee565b816001016000828254612f0a9190614410565b90915550506006546001600160a01b0316635ceae9c486612f2b8688614410565b856040518463ffffffff1660e01b8152600401612f4a93929190614423565b6020604051808303816000875af1158015612f69573d6000803e3d6000fd5b505050506040513d601f19601f82011682018060405250810190612f8d9190614446565b505050505050565b600080546001600160a01b038381166001600160a01b0319831681178455604051919092169283917f8be0079c531659141344cd1fd0a4f28419497f9722a3daafe3b4186f6b6457e09190a35050565b6001600160a01b0381166000908152600160205260408120600581015482918291820361301d57600080600093509350935050611de5565b600061302a8260006127af565b9050600061304d836000015461078885600301548561282390919063ffffffff16565b6005548454919250600091606491600160a01b900460ff169061307090856143ae565b61307a91906143c1565b61308491906143ee565b90506000846002015482866001015461309d9190614410565b6130a791906143ae565b9050828286600101546130ba9190614410565b909a90995090975095505050505050565b6000826000036130f35781156130e25760006130ec565b670de0b6b3a76400005b905061085e565b6107a261310861310285613372565b84612838565b613428565b60008080600019858709858702925082811083820303915050806000036131475783828161313d5761313d6143d8565b04925050506107a2565b83811061317157604051631dcf306360e21b81526004810182905260248101859052604401610969565b60008486880960026001871981018816978890046003810283188082028403028082028403028082028403028082028403028082028403029081029092039091026000889003889004909101858311909403939093029303949094049190911702949350505050565b60008080600019848609848602925082811083820303915050670de0b6b3a7640000811061321e5760405163698d9a0160e11b815260048101829052602401610969565b600080670de0b6b3a764000086880991506706f05b59d3b1ffff821190508260000361325c5780670de0b6b3a764000085040194505050505061085e565b620400008285030493909111909103600160ee1b02919091177faccb18165bd6fe31ae1cf318dc5b51eee0e1ba569b88cd74c1773b91fac106690201905092915050565b60006132f5826040518060400160405280602081526020017f5361666545524332303a206c6f772d6c6576656c2063616c6c206661696c6564815250856001600160a01b031661346e9092919063ffffffff16565b805190915015612b84578080602001905181019061331391906145b8565b612b845760405162461bcd60e51b815260206004820152602a60248201527f5361666545524332303a204552433230206f7065726174696f6e20646964206e6044820152691bdd081cdd58d8d9595960b21b6064820152608401610969565b6000670de0b6b3a76400008210156133a057604051633621413760e21b815260048101839052602401610969565b60006133b5670de0b6b3a7640000840461347d565b670de0b6b3a764000081029250905082811c670de0b6b3a763ffff1981016133de575050919050565b6706f05b59d3b200005b801561342057670de0b6b3a7640000828002049150671bc16d674ec800008210613418579283019260019190911c905b60011c6133e8565b505050919050565b6000680a688906bd8b000000821061345657604051634a4f26f160e01b815260048101839052602401610969565b670de0b6b3a7640000604083901b046107a281613560565b60606118368484600085613c58565b6000600160801b821061349d57608091821c9161349a9082614410565b90505b600160401b82106134bb57604091821c916134b89082614410565b90505b600160201b82106134d957602091821c916134d69082614410565b90505b6201000082106134f657601091821c916134f39082614410565b90505b610100821061351257600891821c9161350f9082614410565b90505b6010821061352d57600491821c9161352a9082614410565b90505b6004821061354857600291821c916135459082614410565b90505b6002821061355b5761085e600182614410565b919050565b600160bf1b6780000000000000008216156135845768016a09e667f3bcc9090260401c5b6740000000000000008216156135a3576801306fe0a31b7152df0260401c5b6720000000000000008216156135c2576801172b83c7d517adce0260401c5b6710000000000000008216156135e15768010b5586cf9890f62a0260401c5b670800000000000000821615613600576801059b0d31585743ae0260401c5b67040000000000000082161561361f57680102c9a3e778060ee70260401c5b67020000000000000082161561363e5768010163da9fb33356d80260401c5b67010000000000000082161561365d57680100b1afa5abcbed610260401c5b668000000000000082161561367b5768010058c86da1c09ea20260401c5b6640000000000000821615613699576801002c605e2e8cec500260401c5b66200000000000008216156136b757680100162f3904051fa10260401c5b66100000000000008216156136d5576801000b175effdc76ba0260401c5b66080000000000008216156136f357680100058ba01fb9f96d0260401c5b66040000000000008216156137115768010002c5cc37da94920260401c5b660200000000000082161561372f576801000162e525ee05470260401c5b600160301b82161561374a5768010000b17255775c040260401c5b65800000000000821615613767576801000058b91b5bc9ae0260401c5b6540000000000082161561378457680100002c5c89d5ec6d0260401c5b652000000000008216156137a15768010000162e43f4f8310260401c5b651000000000008216156137be57680100000b1721bcfc9a0260401c5b650800000000008216156137db5768010000058b90cf1e6e0260401c5b650400000000008216156137f8576801000002c5c863b73f0260401c5b6502000000000082161561381557680100000162e430e5a20260401c5b65010000000000821615613832576801000000b1721835510260401c5b64800000000082161561384e57680100000058b90c0b490260401c5b64400000000082161561386a5768010000002c5c8601cc0260401c5b642000000000821615613886576801000000162e42fff00260401c5b6410000000008216156138a25768010000000b17217fbb0260401c5b6408000000008216156138be576801000000058b90bfce0260401c5b6404000000008216156138da57680100000002c5c85fe30260401c5b6402000000008216156138f65768010000000162e42ff10260401c5b600160201b82161561391157680100000000b17217f80260401c5b638000000082161561392c5768010000000058b90bfc0260401c5b6340000000821615613947576801000000002c5c85fe0260401c5b632000000082161561396257680100000000162e42ff0260401c5b631000000082161561397d576801000000000b17217f0260401c5b630800000082161561399857680100000000058b90c00260401c5b63040000008216156139b35768010000000002c5c8600260401c5b63020000008216156139ce576801000000000162e4300260401c5b63010000008216156139e95768010000000000b172180260401c5b62800000821615613a03576801000000000058b90c0260401c5b62400000821615613a1d57680100000000002c5c860260401c5b62200000821615613a375768010000000000162e430260401c5b62100000821615613a5157680100000000000b17210260401c5b62080000821615613a6b5768010000000000058b910260401c5b62040000821615613a85576801000000000002c5c80260401c5b62020000821615613a9f57680100000000000162e40260401c5b62010000821615613ab9576801000000000000b1720260401c5b618000821615613ad257680100000000000058b90260401c5b614000821615613aeb5768010000000000002c5d0260401c5b612000821615613b04576801000000000000162e0260401c5b611000821615613b1d5768010000000000000b170260401c5b610800821615613b36576801000000000000058c0260401c5b610400821615613b4f57680100000000000002c60260401c5b610200821615613b6857680100000000000001630260401c5b610100821615613b8157680100000000000000b10260401c5b6080821615613b9957680100000000000000590260401c5b6040821615613bb1576801000000000000002c0260401c5b6020821615613bc957680100000000000000160260401c5b6010821615613be1576801000000000000000b0260401c5b6008821615613bf957680100000000000000060260401c5b6004821615613c1157680100000000000000030260401c5b6002821615613c2957680100000000000000010260401c5b6001821615613c4157680100000000000000010260401c5b670de0b6b3a76400000260409190911c60bf031c90565b606082471015613cb95760405162461bcd60e51b815260206004820152602660248201527f416464726573733a20696e73756666696369656e742062616c616e636520666f6044820152651c8818d85b1b60d21b6064820152608401610969565b6001600160a01b0385163b613d105760405162461bcd60e51b815260206004820152601d60248201527f416464726573733a2063616c6c20746f206e6f6e2d636f6e74726163740000006044820152606401610969565b600080866001600160a01b03168587604051613d2c919061464d565b60006040518083038185875af1925050503d8060008114613d69576040519150601f19603f3d011682016040523d82523d6000602084013e613d6e565b606091505b509150915061135b82828660608315613d885750816107a2565b825115613d985782518084602001fd5b8160405162461bcd60e51b81526004016109699190614669565b6001600160a01b038116811461275a57600080fd5b600080600060608486031215613ddc57600080fd5b8335613de781613db2565b92506020840135613df781613db2565b929592945050506040919091013590565b60008060408385031215613e1b57600080fd5b8235613e2681613db2565b91506020830135613e3681613db2565b809150509250929050565b602080825282518282018190526000919060409081850190868401855b82811015613e8c57815180516001600160a01b03168552860151868501529284019290850190600101613e5e565b5091979650505050505050565b600060208284031215613eab57600080fd5b81356107a281613db2565b600081518084526020808501945080840160005b83811015613eef5781516001600160a01b031687529582019590820190600101613eca565b509495945050505050565b6020815260006107a26020830184613eb6565b60008060008060808587031215613f2357600080fd5b8435613f2e81613db2565b93506020850135613f3e81613db2565b9250604085013591506060850135613f5581613db2565b939692955090935050565b60008083601f840112613f7257600080fd5b50813567ffffffffffffffff811115613f8a57600080fd5b6020830191508360208260061b8501011115613fa557600080fd5b9250929050565b600080600080600060808688031215613fc457600080fd5b8535613fcf81613db2565b945060208601359350604086013567ffffffffffffffff811115613ff257600080fd5b613ffe88828901613f60565b909450925050606086013561401281613db2565b809150509295509295909350565b60008060006040848603121561403557600080fd5b833561404081613db2565b9250602084013567ffffffffffffffff81111561405c57600080fd5b61406886828701613f60565b9497909650939450505050565b60008060008060006080868803121561408d57600080fd5b853561409881613db2565b945060208601356140a881613db2565b935060408601359250606086013567ffffffffffffffff808211156140cc57600080fd5b818801915088601f8301126140e057600080fd5b8135818111156140ef57600080fd5b89602082850101111561410157600080fd5b9699959850939650602001949392505050565b6000806000806060858703121561412a57600080fd5b843561413581613db2565b9350602085013567ffffffffffffffff81111561415157600080fd5b61415d87828801613f60565b9094509250506040850135613f5581613db2565b848152600060208581840152608060408401526141916080840186613eb6565b838103606085015284518082528286019183019060005b818110156141c4578351835292840192918401916001016141a8565b50909998505050505050505050565b803560ff8116811461355b57600080fd5b803561ffff8116811461355b57600080fd5b6000806000806080858703121561420c57600080fd5b843561421781613db2565b9350614225602086016141d3565b9250614233604086016141d3565b9150614241606086016141e4565b905092959194509250565b60006020828403121561425e57600080fd5b5035919050565b600080600080600080600080610100898b03121561428257600080fd5b883561428d81613db2565b975061429b60208a016141e4565b96506142a960408a016141e4565b95506142b760608a016141e4565b94506142c560808a016141e4565b93506142d360a08a016141d3565b92506142e160c08a016141d3565b91506142ef60e08a016141d3565b90509295985092959890939650565b6000806040838503121561431157600080fd5b823561431c81613db2565b946020939093013593505050565b634e487b7160e01b600052604160045260246000fd5b634e487b7160e01b600052603260045260246000fd5b634e487b7160e01b600052601160045260246000fd5b60006001820161437e5761437e614356565b5060010190565b6020808252600f908201526e1054d4d15517d393d517d1561254d5608a1b604082015260600190565b8181038181111561085e5761085e614356565b808202811582820484141761085e5761085e614356565b634e487b7160e01b600052601260045260246000fd5b60008261440b57634e487b7160e01b600052601260045260246000fd5b500490565b8082018082111561085e5761085e614356565b6001600160a01b0393841681526020810192909252909116604082015260600190565b60006020828403121561445857600080fd5b5051919050565b6020808252601290820152711253959053125117d0d3d31310551154905360721b604082015260600190565b813561449681613db2565b81546001600160a01b0319166001600160a01b03919091161781556020919091013560019190910155565b6000604082840312156144d357600080fd5b6040516040810181811067ffffffffffffffff8211171561450457634e487b7160e01b600052604160045260246000fd5b604052823561451281613db2565b81526020928301359281019290925250919050565b6001600160a01b03878116825286166020820152604081018590526060810184905260a06080820181905281018290526000828460c0840137600060c0848401015260c0601f19601f8501168301019050979650505050505050565b6020808252818101527f4f776e61626c653a2063616c6c6572206973206e6f7420746865206f776e6572604082015260600190565b6000602082840312156145ca57600080fd5b815180151581146107a257600080fd5b61ffff82811682821603908082111561092957610929614356565b61ffff81811683821601908082111561092957610929614356565b60ff818116838216019081111561085e5761085e614356565b60005b8381101561464457818101518382015260200161462c565b50506000910152565b6000825161465f818460208701614629565b9190910192915050565b6020815260008251806020840152614688816040850160208701614629565b601f01601f1916919091016040019291505056fea26469706673582212200cf18919dd42be2ba1e00160808771a10a1dfc9d4c783c8043f5de1800dd6c9d64736f6c63430008110033",
  "linkReferences": {},
  "deployedLinkReferences": {}
}