{
  "_format": "hh-sol-artifact-1",
  "contractName": "FuturePriceFeed",
  "sourceName": "contracts/future/FuturePriceFeed.sol",
  "abi": [
    {
      "anonymous": false,
      "inputs": [
        {
          "indexed": true,
          "internalType": "address",
          "name": "previousOwner",
          "type": "address"
        },
        {
          "indexed": true,
          "internalType": "address",
          "name": "newOwner",
          "type": "address"
        }
      ],
      "name": "OwnershipTransferred",
      "type": "event"
    },
    {
      "inputs": [],
      "name": "ONE_USD",
      "outputs": [
        {
          "internalType": "uint256",
          "name": "",
          "type": "uint256"
        }
      ],
      "stateMutability": "view",
      "type": "function"
    },
    {
      "inputs": [],
      "name": "PRICE_PRECISION",
      "outputs": [
        {
          "internalType": "uint256",
          "name": "",
          "type": "uint256"
        }
      ],
      "stateMutability": "view",
      "type": "function"
    },
    {
      "inputs": [],
      "name": "fastPriceFeed",
      "outputs": [
        {
          "internalType": "address",
          "name": "",
          "type": "address"
        }
      ],
      "stateMutability": "view",
      "type": "function"
    },
    {
      "inputs": [
        {
          "internalType": "address",
          "name": "_token",
          "type": "address"
        }
      ],
      "name": "getPrice",
      "outputs": [
        {
          "internalType": "uint256",
          "name": "",
          "type": "uint256"
        }
      ],
      "stateMutability": "view",
      "type": "function"
    },
    {
      "inputs": [],
      "name": "owner",
      "outputs": [
        {
          "internalType": "address",
          "name": "",
          "type": "address"
        }
      ],
      "stateMutability": "view",
      "type": "function"
    },
    {
      "inputs": [],
      "name": "renounceOwnership",
      "outputs": [],
      "stateMutability": "nonpayable",
      "type": "function"
    },
    {
      "inputs": [
        {
          "internalType": "address",
          "name": "_fastPriceFeed",
          "type": "address"
        }
      ],
      "name": "setFastPriceFeed",
      "outputs": [],
      "stateMutability": "nonpayable",
      "type": "function"
    },
    {
      "inputs": [
        {
          "internalType": "address",
          "name": "newOwner",
          "type": "address"
        }
      ],
      "name": "transferOwnership",
      "outputs": [],
      "stateMutability": "nonpayable",
      "type": "function"
    }
  ],
  "bytecode": "0x608060405234801561001057600080fd5b5061001a3361001f565b61006f565b600080546001600160a01b038381166001600160a01b0319831681178455604051919092169283917f8be0079c531659141344cd1fd0a4f28419497f9722a3daafe3b4186f6b6457e09190a35050565b6104358061007e6000396000f3fe608060405234801561001057600080fd5b50600436106100885760003560e01c8063715018a61161005b578063715018a6146101075780638da5cb5b1461010f57806395082d25146100f3578063f2fde38b1461012057600080fd5b8063171e77211461008d5780633a849c21146100a257806341976e09146100d257806367781c0e146100f3575b600080fd5b6100a061009b366004610381565b610133565b005b6001546100b5906001600160a01b031681565b6040516001600160a01b0390911681526020015b60405180910390f35b6100e56100e0366004610381565b610188565b6040519081526020016100c9565b6100e56c0c9f2c9cd04674edea4000000081565b6100a0610260565b6000546001600160a01b03166100b5565b6100a061012e366004610381565b610296565b6000546001600160a01b031633146101665760405162461bcd60e51b815260040161015d906103b1565b60405180910390fd5b600180546001600160a01b0319166001600160a01b0392909216919091179055565b60006001600160a01b0382166101ac57506c0c9f2c9cd04674edea40000000919050565b6001546040516302e731e560e31b81526001600160a01b03848116600483015260009216906317398f2890602401602060405180830381865afa1580156101f7573d6000803e3d6000fd5b505050506040513d601f19601f8201168201806040525081019061021b91906103e6565b90506000811161025a5760405162461bcd60e51b815260206004820152600a60248201526970726963655f7a65726f60b01b604482015260640161015d565b92915050565b6000546001600160a01b0316331461028a5760405162461bcd60e51b815260040161015d906103b1565b6102946000610331565b565b6000546001600160a01b031633146102c05760405162461bcd60e51b815260040161015d906103b1565b6001600160a01b0381166103255760405162461bcd60e51b815260206004820152602660248201527f4f776e61626c653a206e6577206f776e657220697320746865207a65726f206160448201526564647265737360d01b606482015260840161015d565b61032e81610331565b50565b600080546001600160a01b038381166001600160a01b0319831681178455604051919092169283917f8be0079c531659141344cd1fd0a4f28419497f9722a3daafe3b4186f6b6457e09190a35050565b60006020828403121561039357600080fd5b81356001600160a01b03811681146103aa57600080fd5b9392505050565b6020808252818101527f4f776e61626c653a2063616c6c6572206973206e6f7420746865206f776e6572604082015260600190565b6000602082840312156103f857600080fd5b505191905056fea264697066735822122086db463e9c167c5e4bc07a2a3c7800deb9ce4d89c2cb152dcf67d1d228d483d264736f6c63430008110033",
  "linkReferences": {},
  "deployedLinkReferences": {}
}