{
  "_format": "hh-sol-artifact-1",
  "contractName": "StakeRevenue",
  "sourceName": "contracts/stake/StakeRevenue.sol",
  "abi": [
    {
      "inputs": [
        {
          "internalType": "address",
          "name": "_stakeTokenAddress",
          "type": "address"
        }
      ],
      "stateMutability": "nonpayable",
      "type": "constructor"
    },
    {
      "anonymous": false,
      "inputs": [
        {
          "indexed": true,
          "internalType": "address",
          "name": "user",
          "type": "address"
        },
        {
          "indexed": false,
          "internalType": "uint256",
          "name": "amount",
          "type": "uint256"
        }
      ],
      "name": "Deposit",
      "type": "event"
    },
    {
      "anonymous": false,
      "inputs": [
        {
          "indexed": true,
          "internalType": "address",
          "name": "previousOwner",
          "type": "address"
        },
        {
          "indexed": true,
          "internalType": "address",
          "name": "newOwner",
          "type": "address"
        }
      ],
      "name": "OwnershipTransferred",
      "type": "event"
    },
    {
      "anonymous": false,
      "inputs": [
        {
          "indexed": true,
          "internalType": "address",
          "name": "user",
          "type": "address"
        },
        {
          "indexed": false,
          "internalType": "uint256",
          "name": "amount",
          "type": "uint256"
        }
      ],
      "name": "Withdraw",
      "type": "event"
    },
    {
      "inputs": [
        {
          "internalType": "address[]",
          "name": "tokenList",
          "type": "address[]"
        },
        {
          "internalType": "uint256[]",
          "name": "amountList",
          "type": "uint256[]"
        }
      ],
      "name": "addRevenue",
      "outputs": [],
      "stateMutability": "nonpayable",
      "type": "function"
    },
    {
      "inputs": [
        {
          "internalType": "address",
          "name": "_token",
          "type": "address"
        }
      ],
      "name": "addRevenueToken",
      "outputs": [],
      "stateMutability": "nonpayable",
      "type": "function"
    },
    {
      "inputs": [
        {
          "internalType": "uint256",
          "name": "_amount",
          "type": "uint256"
        }
      ],
      "name": "deposit",
      "outputs": [],
      "stateMutability": "nonpayable",
      "type": "function"
    },
    {
      "inputs": [
        {
          "internalType": "address",
          "name": "account",
          "type": "address"
        }
      ],
      "name": "getAccountInfo",
      "outputs": [
        {
          "internalType": "uint256",
          "name": "",
          "type": "uint256"
        },
        {
          "internalType": "uint256",
          "name": "",
          "type": "uint256"
        },
        {
          "internalType": "uint256",
          "name": "",
          "type": "uint256"
        },
        {
          "internalType": "uint256",
          "name": "",
          "type": "uint256"
        },
        {
          "internalType": "uint8[]",
          "name": "",
          "type": "uint8[]"
        },
        {
          "internalType": "address[]",
          "name": "",
          "type": "address[]"
        },
        {
          "internalType": "uint256[]",
          "name": "",
          "type": "uint256[]"
        }
      ],
      "stateMutability": "view",
      "type": "function"
    },
    {
      "inputs": [],
      "name": "owner",
      "outputs": [
        {
          "internalType": "address",
          "name": "",
          "type": "address"
        }
      ],
      "stateMutability": "view",
      "type": "function"
    },
    {
      "inputs": [],
      "name": "renounceOwnership",
      "outputs": [],
      "stateMutability": "nonpayable",
      "type": "function"
    },
    {
      "inputs": [
        {
          "internalType": "uint256",
          "name": "",
          "type": "uint256"
        }
      ],
      "name": "revenueInfoList",
      "outputs": [
        {
          "internalType": "address",
          "name": "",
          "type": "address"
        }
      ],
      "stateMutability": "view",
      "type": "function"
    },
    {
      "inputs": [
        {
          "internalType": "address",
          "name": "",
          "type": "address"
        }
      ],
      "name": "revenueInfoMap",
      "outputs": [
        {
          "internalType": "contract IERC20",
          "name": "rewardToken",
          "type": "address"
        },
        {
          "internalType": "uint256",
          "name": "paidOut",
          "type": "uint256"
        },
        {
          "internalType": "uint256",
          "name": "totalReward",
          "type": "uint256"
        }
      ],
      "stateMutability": "view",
      "type": "function"
    },
    {
      "inputs": [
        {
          "internalType": "uint256",
          "name": "",
          "type": "uint256"
        },
        {
          "internalType": "address",
          "name": "",
          "type": "address"
        }
      ],
      "name": "revenueTimeline",
      "outputs": [
        {
          "internalType": "uint256",
          "name": "reward",
          "type": "uint256"
        },
        {
          "internalType": "uint256",
          "name": "supply",
          "type": "uint256"
        }
      ],
      "stateMutability": "view",
      "type": "function"
    },
    {
      "inputs": [
        {
          "internalType": "uint256",
          "name": "",
          "type": "uint256"
        }
      ],
      "name": "revenueTimelineIndexList",
      "outputs": [
        {
          "internalType": "uint256",
          "name": "",
          "type": "uint256"
        }
      ],
      "stateMutability": "view",
      "type": "function"
    },
    {
      "inputs": [],
      "name": "stakeBpAmount",
      "outputs": [
        {
          "internalType": "uint256",
          "name": "",
          "type": "uint256"
        }
      ],
      "stateMutability": "view",
      "type": "function"
    },
    {
      "inputs": [],
      "name": "stakeLastBpTime",
      "outputs": [
        {
          "internalType": "uint256",
          "name": "",
          "type": "uint256"
        }
      ],
      "stateMutability": "view",
      "type": "function"
    },
    {
      "inputs": [],
      "name": "stakeTokenAddress",
      "outputs": [
        {
          "internalType": "address",
          "name": "",
          "type": "address"
        }
      ],
      "stateMutability": "view",
      "type": "function"
    },
    {
      "inputs": [],
      "name": "stakeTokenAmount",
      "outputs": [
        {
          "internalType": "uint256",
          "name": "",
          "type": "uint256"
        }
      ],
      "stateMutability": "view",
      "type": "function"
    },
    {
      "inputs": [],
      "name": "stakeTokenDecimal",
      "outputs": [
        {
          "internalType": "uint8",
          "name": "",
          "type": "uint8"
        }
      ],
      "stateMutability": "view",
      "type": "function"
    },
    {
      "inputs": [
        {
          "internalType": "address",
          "name": "newOwner",
          "type": "address"
        }
      ],
      "name": "transferOwnership",
      "outputs": [],
      "stateMutability": "nonpayable",
      "type": "function"
    },
    {
      "inputs": [
        {
          "internalType": "address",
          "name": "",
          "type": "address"
        }
      ],
      "name": "userInfo",
      "outputs": [
        {
          "internalType": "address",
          "name": "user",
          "type": "address"
        },
        {
          "internalType": "uint256",
          "name": "amount",
          "type": "uint256"
        },
        {
          "internalType": "uint256",
          "name": "bp",
          "type": "uint256"
        },
        {
          "internalType": "uint256",
          "name": "tempAmount",
          "type": "uint256"
        },
        {
          "internalType": "uint256",
          "name": "lastIndex",
          "type": "uint256"
        }
      ],
      "stateMutability": "view",
      "type": "function"
    },
    {
      "inputs": [
        {
          "internalType": "address",
          "name": "",
          "type": "address"
        },
        {
          "internalType": "uint256",
          "name": "",
          "type": "uint256"
        }
      ],
      "name": "userOpTimeline",
      "outputs": [
        {
          "internalType": "enum StakeRevenue.EnumUserOp",
          "name": "op",
          "type": "uint8"
        },
        {
          "internalType": "uint256",
          "name": "amount",
          "type": "uint256"
        },
        {
          "internalType": "uint256",
          "name": "timestamp",
          "type": "uint256"
        }
      ],
      "stateMutability": "view",
      "type": "function"
    },
    {
      "inputs": [
        {
          "internalType": "uint256",
          "name": "_amount",
          "type": "uint256"
        }
      ],
      "name": "withdraw",
      "outputs": [],
      "stateMutability": "nonpayable",
      "type": "function"
    },
    {
      "inputs": [],
      "name": "withdrawReward",
      "outputs": [],
      "stateMutability": "nonpayable",
      "type": "function"
    }
  ],
  "bytecode": "0x60806040523480156200001157600080fd5b506040516200279a3803806200279a83398101604081905262000034916200014a565b6200003f33620000fa565b600780546001600160a01b0319166001600160a01b0383169081179091556040805163313ce56760e01b8152905163313ce567916004808201926020929091908290030181865afa15801562000099573d6000803e3d6000fd5b505050506040513d601f19601f82011682018060405250810190620000bf91906200017c565b6007805460ff92909216600160a01b0260ff60a01b1990921691909117905560006008819055600955620000f04290565b600a5550620001a1565b600080546001600160a01b038381166001600160a01b0319831681178455604051919092169283917f8be0079c531659141344cd1fd0a4f28419497f9722a3daafe3b4186f6b6457e09190a35050565b6000602082840312156200015d57600080fd5b81516001600160a01b03811681146200017557600080fd5b9392505050565b6000602082840312156200018f57600080fd5b815160ff811681146200017557600080fd5b6125e980620001b16000396000f3fe608060405234801561001057600080fd5b506004361061012c5760003560e01c80637b510fe8116100ad578063aff4b3a311610071578063aff4b3a31461037f578063b6b55f2514610388578063c885bc581461039b578063e639b707146103a3578063f2fde38b146103ac57600080fd5b80637b510fe8146102ed5780638da5cb5b146103135780639abd8d8014610324578063a671e5e714610346578063a87e7b091461035957600080fd5b806340226832116100f45780634022683214610265578063480190871461027857806350469deb146102bf578063558d9f18146102d2578063715018a6146102e557600080fd5b80630106395f146101315780631959a002146101615780632e1a7d4d146101da57806336e6ea57146101ef5780633f10b54514610206575b600080fd5b600754610144906001600160a01b031681565b6040516001600160a01b0390911681526020015b60405180910390f35b6101a861016f366004612006565b600560205260009081526040902080546001820154600283015460038401546004909401546001600160a01b0390931693919290919085565b604080516001600160a01b0390961686526020860194909452928401919091526060830152608082015260a001610158565b6101ed6101e8366004612021565b6103bf565b005b6101f860095481565b604051908152602001610158565b610240610214366004612006565b60016020819052600091825260409091208054918101546002909101546001600160a01b039092169183565b604080516001600160a01b039094168452602084019290925290820152606001610158565b6101ed610273366004612006565b61066e565b6102aa61028636600461203a565b60036020908152600092835260408084209091529082529020805460019091015482565b60408051928352602083019190915201610158565b6101446102cd366004612021565b610948565b6101ed6102e036600461213c565b610972565b6101ed610c58565b6103006102fb366004612006565b610c8e565b6040516101589796959493929190612270565b6000546001600160a01b0316610144565b6103376103323660046122ff565b6114dc565b6040516101589392919061233f565b6101f8610354366004612021565b611522565b60075461036d90600160a01b900460ff1681565b60405160ff9091168152602001610158565b6101f8600a5481565b6101ed610396366004612021565b611543565b6101ed611705565b6101f860085481565b6101ed6103ba366004612006565b611c2a565b336000908152600560205260409020600a5442901561043f576000600a54826103e8919061238b565b9050600064e8d4a51000617bdd83600854610403919061239e565b61040d919061239e565b61041791906123b5565b9050806009600082825461042b91906123d7565b9091555050801561043c57600a8390555b50505b600083116104835760405162461bcd60e51b815260206004820152600c60248201526b04445504f53495420475420360a41b60448201526064015b60405180910390fd5b33600090815260056020526040902060018101548411156104df5760405162461bcd60e51b815260206004820152601660248201527511115413d4d255081315081554d1548b985b5bdd5b9d60521b604482015260640161047a565b6008546104ec9085611cc5565b60088190556104fc9085906123d7565b60085460095461050c919061239e565b61051691906123b5565b60095560075460405163a9059cbb60e01b8152336004820152602481018690526001600160a01b039091169063a9059cbb906044016020604051808303816000875af115801561056a573d6000803e3d6000fd5b505050506040513d601f19601f8201168201806040525081019061058e91906123ea565b50600181015461059e9085611cc5565b600180830191909155336000908152600660205260409081902081516060810190925291819081526020018681526020016105d64290565b9052815460018181018455600093845260209093208251600390920201805492939092839160ff1990911690838181111561061357610613612329565b0217905550602082015160018201556040918201516002909101555133907f884edad9ce6fa2440d8a54cc123490eb96d2768479d49ff9c7366125a9424364906106609087815260200190565b60405180910390a250505050565b6000546001600160a01b031633146106985760405162461bcd60e51b815260040161047a9061240c565b6040516370a0823160e01b81523060048201526000906001600160a01b038316906370a0823190602401602060405180830381865afa1580156106df573d6000803e3d6000fd5b505050506040513d601f19601f820116820180604052508101906107039190612441565b10156107425760405162461bcd60e51b815260206004820152600e60248201526d3732b2b2103130b630b731b2a7b360911b604482015260640161047a565b6000816001600160a01b031663313ce5676040518163ffffffff1660e01b8152600401602060405180830381865afa158015610782573d6000803e3d6000fd5b505050506040513d601f19601f820116820180604052508101906107a6919061245a565b60ff1610156107e75760405162461bcd60e51b815260206004820152600d60248201526c6e65656420646563696d616c7360981b604482015260640161047a565b6000816001600160a01b03166306fdde036040518163ffffffff1660e01b8152600401600060405180830381865afa158015610827573d6000803e3d6000fd5b505050506040513d6000823e601f3d908101601f1916820160405261084f91908101906124a1565b51101561088a5760405162461bcd60e51b81526020600482015260096024820152686e656564206e616d6560b81b604482015260640161047a565b6001600160a01b0380821660009081526001602052604090208054909116156108ee5760405162461bcd60e51b8152602060048201526016602482015275726576656e7565496e666f206e65656420656d70747960501b604482015260640161047a565b80546001600160a01b039092166001600160a01b03199283168117909155600280546001810182556000919091527f405787fa12a823e0f2b7631cc41b3ba8828b3321ca811111fa75cd3aa3bb5ace018054909216179055565b6002818154811061095857600080fd5b6000918252602090912001546001600160a01b0316905081565b336000908152600560205260409020600a544290156109f2576000600a548261099b919061238b565b9050600064e8d4a51000617bdd836008546109b6919061239e565b6109c0919061239e565b6109ca91906123b5565b905080600960008282546109de91906123d7565b909155505080156109ef57600a8390555b50505b6000546001600160a01b03163314610a1c5760405162461bcd60e51b815260040161047a9061240c565b8251845114610a6d5760405162461bcd60e51b815260206004820152601760248201527f746f6b656e4c69737420657120616d6f756e744c697374000000000000000000604482015260640161047a565b4260005b8551811015610c1e576000868281518110610a8e57610a8e612535565b602002602001015190506000868381518110610aac57610aac612535565b6020026020010151905060008111610af85760405162461bcd60e51b815260206004820152600f60248201526e0616464526576656e7565206774203608c1b604482015260640161047a565b6001600160a01b038083166000818152600160205260409020805490921614610b5c5760405162461bcd60e51b8152602060048201526016602482015275726576656e7565496e666f206e6f742065786973747360501b604482015260640161047a565b6000600954600854610b6e91906123d7565b905060008111610bb15760405162461bcd60e51b815260206004820152600e60248201526d37379039ba30b5b2903a37b5b2b760911b604482015260640161047a565b60008681526003602090815260408083206001600160a01b03881680855292529091208481556001810183905590610beb90333087611cda565b83836002016000828254610bff91906123d7565b9250508190555050505050508080610c169061254b565b915050610a71565b50600480546001810182556000919091527f8a35acfbc15ff81a39ae7d344fd709f28e8600b4aa8c65c6b64bfe7fe36bd19b015550505050565b6000546001600160a01b03163314610c825760405162461bcd60e51b815260040161047a9061240c565b610c8c6000611d34565b565b6001600160a01b0381166000818152600560209081526040808320815160a0810183526001808301549482019490945260028083015493820193909352600382015460608281019190915260049092015460808201529485529054929384938493849392839283928691610d01916123d7565b67ffffffffffffffff811115610d1957610d19612066565b604051908082528060200260200182016040528015610d42578160200160208202803683370190505b50600254909150600090610d579060016123d7565b67ffffffffffffffff811115610d6f57610d6f612066565b604051908082528060200260200182016040528015610d98578160200160208202803683370190505b50600254909150600090610dad9060016123d7565b67ffffffffffffffff811115610dc557610dc5612066565b604051908082528060200260200182016040528015610dee578160200160208202803683370190505b5060075484519192506001600160a01b0316908490600090610e1257610e12612535565b6001600160a01b039283166020918202929092018101919091526007546040805163313ce56760e01b81529051919093169263313ce5679260048083019391928290030181865afa158015610e6b573d6000803e3d6000fd5b505050506040513d601f19601f82011682018060405250810190610e8f919061245a565b82600081518110610ea257610ea2612535565b602002602001019060ff16908160ff168152505060005b600254811015610fec5760028181548110610ed657610ed6612535565b6000918252602090912001546001600160a01b031684610ef78360016123d7565b81518110610f0757610f07612535565b60200260200101906001600160a01b031690816001600160a01b03168152505060028181548110610f3a57610f3a612535565b600091825260209182902001546040805163313ce56760e01b815290516001600160a01b039092169263313ce567926004808401938290030181865afa158015610f88573d6000803e3d6000fd5b505050506040513d601f19601f82011682018060405250810190610fac919061245a565b83610fb88360016123d7565b81518110610fc857610fc8612535565b60ff9092166020928302919091019091015280610fe48161254b565b915050610eb9565b5060005b6001600160a01b038d16600090815260066020526040902054811015611190576001600160a01b038d16600090815260066020526040812080548390811061103a5761103a612535565b6000918252602090912060408051606081019091526003909202018054829060ff16600181111561106d5761106d612329565b600181111561107e5761107e612329565b81526001820154602082015260029091015460409091015290504281604001511161117d576000815160018111156110b8576110b8612329565b036111315764e8d4a51000617bdd82604001516110d24290565b6110dc919061238b565b83602001516110eb919061239e565b6110f5919061239e565b6110ff91906123b5565b8660400181815161111091906123d7565b90525060208101516060870180516111299083906123d7565b90525061117d565b60608601516020820151611145908261238b565b8760400151611154919061239e565b61115e91906123b5565b6040870152602081015160608701805161117990839061238b565b9052505b50806111888161254b565b915050610ff0565b5060808401515b60045481101561146b576000600482815481106111b6576111b6612535565b9060005260206000200154905060008060005b88516001600160a01b03166000908152600660205260409020548110156113455788516001600160a01b0316600090815260066020526040812080548390811061121557611215612535565b6000918252602090912060408051606081019091526003909202018054829060ff16600181111561124857611248612329565b600181111561125957611259612329565b815260200160018201548152602001600282015481525050905084816040015110156113325760008151600181111561129457611294612329565b036112f85764e8d4a51000617bdd8260400151876112b2919061238b565b83602001516112c1919061239e565b6112cb919061239e565b6112d591906123b5565b6112df90846123d7565b92508060200151846112f191906123d7565b9350611332565b83816020015185611309919061238b565b611313908561239e565b61131d91906123b5565b925080602001518461132f919061238b565b93505b508061133d8161254b565b9150506111c9565b50808860400181815161135891906123d7565b90525060005b600254811015611454576000848152600360205260408120600280548391908590811061138d5761138d612535565b60009182526020808320909101546001600160a01b0316835282810193909352604091820190208151808301909252805480835260019190910154928201929092529150158015906113e3575060008160200151115b156114415760208101516113f784866123d7565b8251611403919061239e565b61140d91906123b5565b876114198460016123d7565b8151811061142957611429612535565b6020026020010181815161143d91906123d7565b9052505b508061144c8161254b565b91505061135e565b5050505080806114639061254b565b915050611197565b5060085464e8d4a51000617bdd600a546114824290565b61148c919061238b565b600854611499919061239e565b6114a3919061239e565b6114ad91906123b5565b6009546114ba91906123d7565b6020860151604090960151919e909d50949b5099509097509095509350915050565b600660205281600052604060002081815481106114f857600080fd5b600091825260209091206003909102018054600182015460029092015460ff909116935090915083565b6004818154811061153257600080fd5b600091825260209091200154905081565b336000908152600560205260409020600a544290156115c3576000600a548261156c919061238b565b9050600064e8d4a51000617bdd83600854611587919061239e565b611591919061239e565b61159b91906123b5565b905080600960008282546115af91906123d7565b909155505080156115c057600a8390555b50505b600083116116025760405162461bcd60e51b815260206004820152600c60248201526b04445504f53495420475420360a41b604482015260640161047a565b33600090815260056020526040902060085461161e9085611d84565b600855600754611639906001600160a01b0316333087611cda565b60018101546116489085611d84565b600182015533600090815260066020526040808220815160608101909252918190815260200186815260200161167b4290565b9052815460018181018455600093845260209093208251600390920201805492939092839160ff199091169083818111156116b8576116b8612329565b0217905550602082015160018201556040918201516002909101555133907fe1fffcc4923d04b559f4d29a8bfc6cda04eb5b0d3c460751c2402c5c5cc9109c906106609087815260200190565b33600090815260056020526040812060025490919067ffffffffffffffff81111561173257611732612066565b60405190808252806020026020018201604052801561175b578160200160208202803683370190505b5060025490915060009067ffffffffffffffff81111561177d5761177d612066565b6040519080825280602002602001820160405280156117a6578160200160208202803683370190505b50905060005b60025481101561182357600281815481106117c9576117c9612535565b9060005260206000200160009054906101000a90046001600160a01b03168382815181106117f9576117f9612535565b6001600160a01b03909216602092830291909101909101528061181b8161254b565b9150506117ac565b5060048301545b600454811015611adc5760006004828154811061184957611849612535565b9060005260206000200154905060008060005b336000908152600660205260409020548110156119c45733600090815260066020526040812080548390811061189457611894612535565b6000918252602090912060408051606081019091526003909202018054829060ff1660018111156118c7576118c7612329565b60018111156118d8576118d8612329565b815260200160018201548152602001600282015481525050905084816040015110156119b15760008151600181111561191357611913612329565b036119775764e8d4a51000617bdd826040015187611931919061238b565b8360200151611940919061239e565b61194a919061239e565b61195491906123b5565b61195e90846123d7565b925080602001518461197091906123d7565b93506119b1565b83816020015185611988919061238b565b611992908561239e565b61199c91906123b5565b92508060200151846119ae919061238b565b93505b50806119bc8161254b565b91505061185c565b5060005b600254811015611ab457600084815260036020526040812060028054839190859081106119f7576119f7612535565b60009182526020808320909101546001600160a01b031683528281019390935260409182019020815180830190925280548083526001919091015492820192909252915015801590611a4d575060008160200151115b15611aa1576020810151611a6184866123d7565b8251611a6d919061239e565b611a7791906123b5565b878381518110611a8957611a89612535565b60200260200101818151611a9d91906123d7565b9052505b5080611aac8161254b565b9150506119c8565b50611ac08460016123d7565b600488015550829150611ad490508161254b565b91505061182a565b5060005b8251811015611c2457818181518110611afb57611afb612535565b602002602001015160016000858481518110611b1957611b19612535565b60200260200101516001600160a01b03166001600160a01b031681526020019081526020016000206001016000828254611b5391906123d7565b92505081905550828181518110611b6c57611b6c612535565b60200260200101516001600160a01b031663a9059cbb33848481518110611b9557611b95612535565b60200260200101516040518363ffffffff1660e01b8152600401611bce9291906001600160a01b03929092168252602082015260400190565b6020604051808303816000875af1158015611bed573d6000803e3d6000fd5b505050506040513d601f19601f82011682018060405250810190611c1191906123ea565b5080611c1c8161254b565b915050611ae0565b50505050565b6000546001600160a01b03163314611c545760405162461bcd60e51b815260040161047a9061240c565b6001600160a01b038116611cb95760405162461bcd60e51b815260206004820152602660248201527f4f776e61626c653a206e6577206f776e657220697320746865207a65726f206160448201526564647265737360d01b606482015260840161047a565b611cc281611d34565b50565b6000611cd1828461238b565b90505b92915050565b604080516001600160a01b0385811660248301528416604482015260648082018490528251808303909101815260849091019091526020810180516001600160e01b03166323b872dd60e01b179052611c24908590611d90565b600080546001600160a01b038381166001600160a01b0319831681178455604051919092169283917f8be0079c531659141344cd1fd0a4f28419497f9722a3daafe3b4186f6b6457e09190a35050565b6000611cd182846123d7565b6000611de5826040518060400160405280602081526020017f5361666545524332303a206c6f772d6c6576656c2063616c6c206661696c6564815250856001600160a01b0316611e679092919063ffffffff16565b805190915015611e625780806020019051810190611e0391906123ea565b611e625760405162461bcd60e51b815260206004820152602a60248201527f5361666545524332303a204552433230206f7065726174696f6e20646964206e6044820152691bdd081cdd58d8d9595960b21b606482015260840161047a565b505050565b6060611e768484600085611e80565b90505b9392505050565b606082471015611ee15760405162461bcd60e51b815260206004820152602660248201527f416464726573733a20696e73756666696369656e742062616c616e636520666f6044820152651c8818d85b1b60d21b606482015260840161047a565b6001600160a01b0385163b611f385760405162461bcd60e51b815260206004820152601d60248201527f416464726573733a2063616c6c20746f206e6f6e2d636f6e7472616374000000604482015260640161047a565b600080866001600160a01b03168587604051611f549190612564565b60006040518083038185875af1925050503d8060008114611f91576040519150601f19603f3d011682016040523d82523d6000602084013e611f96565b606091505b5091509150611fa6828286611fb1565b979650505050505050565b60608315611fc0575081611e79565b825115611fd05782518084602001fd5b8160405162461bcd60e51b815260040161047a9190612580565b80356001600160a01b038116811461200157600080fd5b919050565b60006020828403121561201857600080fd5b611cd182611fea565b60006020828403121561203357600080fd5b5035919050565b6000806040838503121561204d57600080fd5b8235915061205d60208401611fea565b90509250929050565b634e487b7160e01b600052604160045260246000fd5b604051601f8201601f1916810167ffffffffffffffff811182821017156120a5576120a5612066565b604052919050565b600067ffffffffffffffff8211156120c7576120c7612066565b5060051b60200190565b600082601f8301126120e257600080fd5b813560206120f76120f2836120ad565b61207c565b82815260059290921b8401810191818101908684111561211657600080fd5b8286015b84811015612131578035835291830191830161211a565b509695505050505050565b6000806040838503121561214f57600080fd5b823567ffffffffffffffff8082111561216757600080fd5b818501915085601f83011261217b57600080fd5b8135602061218b6120f2836120ad565b82815260059290921b840181019181810190898411156121aa57600080fd5b948201945b838610156121cf576121c086611fea565b825294820194908201906121af565b965050860135925050808211156121e557600080fd5b506121f2858286016120d1565b9150509250929050565b600081518084526020808501945080840160005b838110156122355781516001600160a01b031687529582019590820190600101612210565b509495945050505050565b600081518084526020808501945080840160005b8381101561223557815187529582019590820190600101612254565b600060e082018983526020898185015288604085015287606085015260e0608085015281875180845261010086019150828901935060005b818110156122c757845160ff16835293830193918301916001016122a8565b505084810360a08601526122db81886121fc565b9250505082810360c08401526122f18185612240565b9a9950505050505050505050565b6000806040838503121561231257600080fd5b61231b83611fea565b946020939093013593505050565b634e487b7160e01b600052602160045260246000fd5b606081016002851061236157634e487b7160e01b600052602160045260246000fd5b938152602081019290925260409091015290565b634e487b7160e01b600052601160045260246000fd5b81810381811115611cd457611cd4612375565b8082028115828204841417611cd457611cd4612375565b6000826123d257634e487b7160e01b600052601260045260246000fd5b500490565b80820180821115611cd457611cd4612375565b6000602082840312156123fc57600080fd5b81518015158114611e7957600080fd5b6020808252818101527f4f776e61626c653a2063616c6c6572206973206e6f7420746865206f776e6572604082015260600190565b60006020828403121561245357600080fd5b5051919050565b60006020828403121561246c57600080fd5b815160ff81168114611e7957600080fd5b60005b83811015612498578181015183820152602001612480565b50506000910152565b6000602082840312156124b357600080fd5b815167ffffffffffffffff808211156124cb57600080fd5b818401915084601f8301126124df57600080fd5b8151818111156124f1576124f1612066565b612504601f8201601f191660200161207c565b915080825285602082850101111561251b57600080fd5b61252c81602084016020860161247d565b50949350505050565b634e487b7160e01b600052603260045260246000fd5b60006001820161255d5761255d612375565b5060010190565b6000825161257681846020870161247d565b9190910192915050565b602081526000825180602084015261259f81604085016020870161247d565b601f01601f1916919091016040019291505056fea2646970667358221220c114afe972930d46239267a692efca60365ec215e24d64fb1a1ce3860f5a17f464736f6c63430008110033",
  "linkReferences": {},
  "deployedLinkReferences": {}
}